{
  "contracts/VPNRegistry.sol": {
    "VPNRegistry": {
      "abi": [
        {
          "inputs": [],
          "stateMutability": "nonpayable",
          "type": "constructor"
        },
        {
          "anonymous": false,
          "inputs": [
            {
              "indexed": true,
              "internalType": "address",
              "name": "newAdmin",
              "type": "address"
            }
          ],
          "name": "AdminAdded",
          "type": "event"
        },
        {
          "anonymous": false,
          "inputs": [
            {
              "indexed": true,
              "internalType": "address",
              "name": "removedAdmin",
              "type": "address"
            }
          ],
          "name": "AdminRemoved",
          "type": "event"
        },
        {
          "anonymous": false,
          "inputs": [
            {
              "indexed": true,
              "internalType": "address",
              "name": "nodeAddress",
              "type": "address"
            },
            {
              "indexed": false,
              "internalType": "uint256",
              "name": "latency",
              "type": "uint256"
            },
            {
              "indexed": false,
              "internalType": "uint256",
              "name": "bandwidth",
              "type": "uint256"
            },
            {
              "indexed": false,
              "internalType": "uint256",
              "name": "uptime",
              "type": "uint256"
            },
            {
              "indexed": false,
              "internalType": "uint256",
              "name": "reliability",
              "type": "uint256"
            },
            {
              "indexed": false,
              "internalType": "uint256",
              "name": "totalScore",
              "type": "uint256"
            }
          ],
          "name": "MetricsUpdated",
          "type": "event"
        },
        {
          "anonymous": false,
          "inputs": [
            {
              "indexed": true,
              "internalType": "address",
              "name": "nodeAddress",
              "type": "address"
            }
          ],
          "name": "NodeApproved",
          "type": "event"
        },
        {
          "anonymous": false,
          "inputs": [
            {
              "indexed": true,
              "internalType": "address",
              "name": "nodeAddress",
              "type": "address"
            }
          ],
          "name": "NodeDeactivated",
          "type": "event"
        },
        {
          "anonymous": false,
          "inputs": [
            {
              "indexed": true,
              "internalType": "address",
              "name": "nodeAddress",
              "type": "address"
            },
            {
              "indexed": false,
              "internalType": "string",
              "name": "ipAddress",
              "type": "string"
            },
            {
              "indexed": true,
              "internalType": "address",
              "name": "owner",
              "type": "address"
            }
          ],
          "name": "NodeRegistered",
          "type": "event"
        },
        {
          "inputs": [
            {
              "internalType": "address",
              "name": "newAdmin",
              "type": "address"
            }
          ],
          "name": "addAdmin",
          "outputs": [],
          "stateMutability": "nonpayable",
          "type": "function"
        },
        {
          "inputs": [],
          "name": "admin",
          "outputs": [
            {
              "internalType": "address",
              "name": "",
              "type": "address"
            }
          ],
          "stateMutability": "view",
          "type": "function"
        },
        {
          "inputs": [
            {
              "internalType": "address",
              "name": "",
              "type": "address"
            }
          ],
          "name": "admins",
          "outputs": [
            {
              "internalType": "bool",
              "name": "",
              "type": "bool"
            }
          ],
          "stateMutability": "view",
          "type": "function"
        },
        {
          "inputs": [
            {
              "internalType": "address",
              "name": "nodeAddress",
              "type": "address"
            }
          ],
          "name": "approveNode",
          "outputs": [],
          "stateMutability": "nonpayable",
          "type": "function"
        },
        {
          "inputs": [
            {
              "internalType": "address",
              "name": "nodeAddress",
              "type": "address"
            }
          ],
          "name": "deactivateNode",
          "outputs": [],
          "stateMutability": "nonpayable",
          "type": "function"
        },
        {
          "inputs": [],
          "name": "getActiveNodes",
          "outputs": [
            {
              "internalType": "address[]",
              "name": "",
              "type": "address[]"
            }
          ],
          "stateMutability": "view",
          "type": "function"
        },
        {
          "inputs": [],
          "name": "getBestNode",
          "outputs": [
            {
              "internalType": "address",
              "name": "",
              "type": "address"
            },
            {
              "internalType": "uint256",
              "name": "",
              "type": "uint256"
            }
          ],
          "stateMutability": "view",
          "type": "function"
        },
        {
          "inputs": [
            {
              "internalType": "address",
              "name": "nodeAddress",
              "type": "address"
            }
          ],
          "name": "getNodeDetails",
          "outputs": [
            {
              "internalType": "string",
              "name": "",
              "type": "string"
            },
            {
              "internalType": "address",
              "name": "",
              "type": "address"
            },
            {
              "internalType": "uint256",
              "name": "",
              "type": "uint256"
            },
            {
              "internalType": "bool",
              "name": "",
              "type": "bool"
            },
            {
              "internalType": "bool",
              "name": "",
              "type": "bool"
            },
            {
              "internalType": "uint256",
              "name": "",
              "type": "uint256"
            }
          ],
          "stateMutability": "view",
          "type": "function"
        },
        {
          "inputs": [
            {
              "internalType": "uint256",
              "name": "count",
              "type": "uint256"
            }
          ],
          "name": "getTopNodes",
          "outputs": [
            {
              "internalType": "address[]",
              "name": "",
              "type": "address[]"
            },
            {
              "internalType": "uint256[]",
              "name": "",
              "type": "uint256[]"
            }
          ],
          "stateMutability": "view",
          "type": "function"
        },
        {
          "inputs": [
            {
              "internalType": "address",
              "name": "account",
              "type": "address"
            }
          ],
          "name": "isAdmin",
          "outputs": [
            {
              "internalType": "bool",
              "name": "",
              "type": "bool"
            }
          ],
          "stateMutability": "view",
          "type": "function"
        },
        {
          "inputs": [
            {
              "internalType": "uint256",
              "name": "",
              "type": "uint256"
            }
          ],
          "name": "nodeAddresses",
          "outputs": [
            {
              "internalType": "address",
              "name": "",
              "type": "address"
            }
          ],
          "stateMutability": "view",
          "type": "function"
        },
        {
          "inputs": [
            {
              "internalType": "address",
              "name": "",
              "type": "address"
            }
          ],
          "name": "nodes",
          "outputs": [
            {
              "internalType": "string",
              "name": "ipAddress",
              "type": "string"
            },
            {
              "internalType": "address",
              "name": "owner",
              "type": "address"
            },
            {
              "internalType": "bool",
              "name": "isApproved",
              "type": "bool"
            },
            {
              "internalType": "bool",
              "name": "isActive",
              "type": "bool"
            },
            {
              "internalType": "uint256",
              "name": "timestamp",
              "type": "uint256"
            },
            {
              "internalType": "uint256",
              "name": "latency",
              "type": "uint256"
            },
            {
              "internalType": "uint256",
              "name": "bandwidth",
              "type": "uint256"
            },
            {
              "internalType": "uint256",
              "name": "uptime",
              "type": "uint256"
            },
            {
              "internalType": "uint256",
              "name": "reliability",
              "type": "uint256"
            },
            {
              "internalType": "uint256",
              "name": "totalScore",
              "type": "uint256"
            }
          ],
          "stateMutability": "view",
          "type": "function"
        },
        {
          "inputs": [
            {
              "internalType": "address",
              "name": "nodeAddress",
              "type": "address"
            },
            {
              "internalType": "string",
              "name": "ipAddress",
              "type": "string"
            }
          ],
          "name": "registerNode",
          "outputs": [],
          "stateMutability": "nonpayable",
          "type": "function"
        },
        {
          "inputs": [
            {
              "internalType": "address",
              "name": "",
              "type": "address"
            }
          ],
          "name": "registeredNodes",
          "outputs": [
            {
              "internalType": "bool",
              "name": "",
              "type": "bool"
            }
          ],
          "stateMutability": "view",
          "type": "function"
        },
        {
          "inputs": [
            {
              "internalType": "address",
              "name": "adminToRemove",
              "type": "address"
            }
          ],
          "name": "removeAdmin",
          "outputs": [],
          "stateMutability": "nonpayable",
          "type": "function"
        },
        {
          "inputs": [
            {
              "internalType": "address",
              "name": "nodeAddress",
              "type": "address"
            },
            {
              "internalType": "uint256",
              "name": "_latency",
              "type": "uint256"
            },
            {
              "internalType": "uint256",
              "name": "_bandwidth",
              "type": "uint256"
            },
            {
              "internalType": "uint256",
              "name": "_uptime",
              "type": "uint256"
            },
            {
              "internalType": "uint256",
              "name": "_reliability",
              "type": "uint256"
            }
          ],
          "name": "updateNodeMetrics",
          "outputs": [],
          "stateMutability": "nonpayable",
          "type": "function"
        }
      ],
      "evm": {
        "bytecode": {
          "linkReferences": {},
          "object": "6080604052348015600f57600080fd5b50600080546001600160a01b0319163390811782558152600160208190526040909120805460ff191690911790556120c38061004c6000396000f3fe608060405234801561001057600080fd5b50600436106101005760003560e01c8063bafb358111610097578063d3d1fb4811610066578063d3d1fb481461026a578063dd4c97a01461028d578063e243eaf0146102a0578063f851a440146102c157600080fd5b8063bafb3581146101f4578063bb9b342d14610219578063c4adf54b1461022c578063c4d770901461023f57600080fd5b806365814455116100d357806365814455146101925780636b51e919146101a557806370480275146101ba5780639ba446c9146101cd57600080fd5b80631785f53c14610105578063189a5a171461011a57806324d7806c1461014c578063429b62e51461016f575b600080fd5b610118610113366004611abf565b6102d4565b005b61012d610128366004611abf565b610416565b6040516101439a99989796959493929190611b27565b60405180910390f35b61015f61015a366004611abf565b6104fb565b6040519015158152602001610143565b61015f61017d366004611abf565b60016020526000908152604090205460ff1681565b6101186101a0366004611abf565b610536565b6101ad610651565b6040516101439190611bcf565b6101186101c8366004611abf565b610889565b6101d56109b3565b604080516001600160a01b039093168352602083019190915201610143565b610207610202366004611abf565b610b31565b60405161014396959493929190611be2565b610118610227366004611c3f565b610cde565b61011861023a366004611d09565b610f98565b61025261024d366004611d4b565b61120a565b6040516001600160a01b039091168152602001610143565b61015f610278366004611abf565b60046020526000908152604090205460ff1681565b61011861029b366004611abf565b611234565b6102b36102ae366004611d4b565b61130a565b604051610143929190611d64565b600054610252906001600160a01b031681565b6000546001600160a01b031633146103075760405162461bcd60e51b81526004016102fe90611dbe565b60405180910390fd5b6000546001600160a01b03908116908216036103655760405162461bcd60e51b815260206004820152601960248201527f43616e6e6f742072656d6f76652073757065722061646d696e0000000000000060448201526064016102fe565b6001600160a01b03811660009081526001602052604090205460ff166103cd5760405162461bcd60e51b815260206004820152601760248201527f41646472657373206973206e6f7420616e2061646d696e00000000000000000060448201526064016102fe565b6001600160a01b038116600081815260016020526040808220805460ff19169055517fa3b62bc36326052d97ea62d63c3d60308ed4c3ea8ac079dd8499f1e9c4f80c0f9190a250565b60026020526000908152604090208054819061043190611e06565b80601f016020809104026020016040519081016040528092919081815260200182805461045d90611e06565b80156104aa5780601f1061047f576101008083540402835291602001916104aa565b820191906000526020600020905b81548152906001019060200180831161048d57829003601f168201915b5050505060018301546002840154600385015460048601546005870154600688015460079098015496976001600160a01b0386169760ff600160a01b880481169850600160a81b909704909616958a565b600080546001600160a01b038381169116148061053057506001600160a01b03821660009081526001602052604090205460ff165b92915050565b6001600160a01b038116600090815260046020526040902054819060ff166105705760405162461bcd60e51b81526004016102fe90611e40565b6000546001600160a01b03163314806105a557506001600160a01b038281166000908152600260205260409020600101541633145b6106015760405162461bcd60e51b815260206004820152602760248201527f4f6e6c792061646d696e206f72206e6f6465206f776e65722063616e206465616044820152666374697661746560c81b60648201526084016102fe565b6001600160a01b038216600081815260026020526040808220600101805460ff60a81b19169055517fd9957750e6343405c319eb99a4ec67fa11cfd66969318cbc71aa2d45fa53a3499190a25050565b60606000805b60035481101561071857600260006003838154811061067857610678611e6d565b60009182526020808320909101546001600160a01b0316835282019290925260400190206001015460ff600160a81b9091041680156106fd575060026000600383815481106106c9576106c9611e6d565b60009182526020808320909101546001600160a01b0316835282019290925260400190206001015460ff600160a01b909104165b15610710578161070c81611e99565b9250505b600101610657565b5060008167ffffffffffffffff81111561073457610734611c29565b60405190808252806020026020018201604052801561075d578160200160208202803683370190505b5090506000805b60035481101561088057600260006003838154811061078557610785611e6d565b60009182526020808320909101546001600160a01b0316835282019290925260400190206001015460ff600160a81b90910416801561080a575060026000600383815481106107d6576107d6611e6d565b60009182526020808320909101546001600160a01b0316835282019290925260400190206001015460ff600160a01b909104165b15610878576003818154811061082257610822611e6d565b9060005260206000200160009054906101000a90046001600160a01b031683838151811061085257610852611e6d565b6001600160a01b03909216602092830291909101909101528161087481611e99565b9250505b600101610764565b50909392505050565b6000546001600160a01b031633146108b35760405162461bcd60e51b81526004016102fe90611dbe565b6001600160a01b0381166108fb5760405162461bcd60e51b815260206004820152600f60248201526e496e76616c6964206164647265737360881b60448201526064016102fe565b6001600160a01b03811660009081526001602052604090205460ff16156109645760405162461bcd60e51b815260206004820152601b60248201527f4164647265737320697320616c726561647920616e2061646d696e000000000060448201526064016102fe565b6001600160a01b0381166000818152600160208190526040808320805460ff1916909217909155517f44d6d25963f097ad14f29f06854a01f575648a1ef82f30e562ccd3889717e3399190a250565b60035460009081906109fd5760405162461bcd60e51b8152602060048201526013602482015272139bc81b9bd9195cc81c9959da5cdd195c9959606a1b60448201526064016102fe565b600080805b600354811015610ad957600060038281548110610a2157610a21611e6d565b60009182526020808320909101546001600160a01b0316808352600290915260409091206001015490915060ff600160a81b909104168015610a8557506001600160a01b038116600090815260026020526040902060010154600160a01b900460ff165b15610ad0576001600160a01b038116600090815260026020526040902060070154831015610ad0576001600160a01b0381166000908152600260205260409020600701549093509150825b50600101610a02565b506001600160a01b038216610b285760405162461bcd60e51b8152602060048201526015602482015274139bc81858dd1a5d99481b9bd9195cc8199bdd5b99605a1b60448201526064016102fe565b90939092509050565b6001600160a01b038116600090815260046020526040812054606091908190819081908190879060ff16610b775760405162461bcd60e51b81526004016102fe90611e40565b6001600160a01b03881660009081526002602052604080822081516101408101909252805482908290610ba990611e06565b80601f0160208091040260200160405190810160405280929190818152602001828054610bd590611e06565b8015610c225780601f10610bf757610100808354040283529160200191610c22565b820191906000526020600020905b815481529060010190602001808311610c0557829003601f168201915b505050918352505060018201546001600160a01b03811660208084019190915260ff600160a01b830481161515604080860191909152600160a81b9093041615156060808501919091526002850154608080860191909152600386015460a0860152600486015460c0860152600586015460e08601526006860154610100860152600790950154610120948501528551918601519386015192860151908601519590940151909e929d50909b5091995091975095509350505050565b6001600160a01b03821660009081526004602052604090205460ff1615610d475760405162461bcd60e51b815260206004820152601760248201527f4e6f646520616c7265616479207265676973746572656400000000000000000060448201526064016102fe565b6000815111610d985760405162461bcd60e51b815260206004820152601a60248201527f495020616464726573732063616e6e6f7420626520656d70747900000000000060448201526064016102fe565b610da18161193a565b610ded5760405162461bcd60e51b815260206004820152601960248201527f496e76616c6964204950206164647265737320666f726d61740000000000000060448201526064016102fe565b60408051610140810182528281523360208083019190915260008284018190526060830181905242608084015260a0830181905260c08301819052606460e0840152610100830181905261012083018190526001600160a01b038616815260029091529190912081518190610e629082611f01565b506020828101516001808401805460408088015160608901511515600160a81b0260ff60a81b19911515600160a01b026001600160a81b03199094166001600160a01b03978816179390931716919091179091556080860151600286015560a086015160038087019190915560c087015160048088019190915560e0880151600588015561010088015160068801556101209097015160079096019590955584548083019095557fc2575a0e9e593c00f959f8c92f12db2869c3395a3b0502d05e2516446f71f85b90940180549288166001600160a01b0319939093168317905560008281529490925292829020805460ff19169091179055513391907f604fb8f4b294861db7a506d41733c6d2b284bfc584623f6142eaca0d83a47c0290610f8c908590611fc0565b60405180910390a35050565b6000546001600160a01b0316331480610fc057503360009081526001602052604090205460ff165b610fdc5760405162461bcd60e51b81526004016102fe90611fd3565b6001600160a01b038516600090815260046020526040902054859060ff166110165760405162461bcd60e51b81526004016102fe90611e40565b606483111561105f5760405162461bcd60e51b81526020600482015260156024820152740557074696d65206d757374206265203c3d2031303605c1b60448201526064016102fe565b60648211156110b05760405162461bcd60e51b815260206004820152601a60248201527f52656c696162696c697479206d757374206265203c3d2031303000000000000060448201526064016102fe565b6001600160a01b038616600090815260026020526040812060038101879055600481018690556005810185905560068101849055906103e88711611115576103e86110fb8882612015565b611106906064612028565b611110919061203f565b611118565b60005b905060006103e88711611142576103e8611133886064612028565b61113d919061203f565b611145565b60645b90506064611154866014612028565b61115f886019612028565b61116a846019612028565b61117586601e612028565b61117f9190612061565b6111899190612061565b6111939190612061565b61119d919061203f565b60078401819055604080518a8152602081018a90529081018890526060810187905260808101919091526001600160a01b038a16907fd7f22bbfa2524e6e308b151c736e5b453ab2d8fa59fa8d2d46d0f2bf5362899a9060a00160405180910390a2505050505050505050565b6003818154811061121a57600080fd5b6000918252602090912001546001600160a01b0316905081565b6000546001600160a01b031633148061125c57503360009081526001602052604090205460ff165b6112785760405162461bcd60e51b81526004016102fe90611fd3565b6001600160a01b038116600090815260046020526040902054819060ff166112b25760405162461bcd60e51b81526004016102fe90611e40565b6001600160a01b038216600081815260026020526040808220600101805461ffff60a01b191661010160a01b179055517fc3d551ebc292891a4293fa7e08efe31a4abb41022df997ed0025b244902ff5bd9190a25050565b6060806000831161135d5760405162461bcd60e51b815260206004820152601c60248201527f436f756e74206d7573742062652067726561746572207468616e20300000000060448201526064016102fe565b6000805b60035481101561142257600260006003838154811061138257611382611e6d565b60009182526020808320909101546001600160a01b0316835282019290925260400190206001015460ff600160a81b909104168015611407575060026000600383815481106113d3576113d3611e6d565b60009182526020808320909101546001600160a01b0316835282019290925260400190206001015460ff600160a01b909104165b1561141a578161141681611e99565b9250505b600101611361565b508084111561142f578093505b60008167ffffffffffffffff81111561144a5761144a611c29565b604051908082528060200260200182016040528015611473578160200160208202803683370190505b50905060008267ffffffffffffffff81111561149157611491611c29565b6040519080825280602002602001820160405280156114ba578160200160208202803683370190505b5090506000805b6003548110156116435760026000600383815481106114e2576114e2611e6d565b60009182526020808320909101546001600160a01b0316835282019290925260400190206001015460ff600160a81b9091041680156115675750600260006003838154811061153357611533611e6d565b60009182526020808320909101546001600160a01b0316835282019290925260400190206001015460ff600160a01b909104165b1561163b576003818154811061157f5761157f611e6d565b9060005260206000200160009054906101000a90046001600160a01b03168483815181106115af576115af611e6d565b60200260200101906001600160a01b031690816001600160a01b03168152505060026000600383815481106115e6576115e6611e6d565b60009182526020808320909101546001600160a01b03168352820192909252604001902060070154835184908490811061162257611622611e6d565b60209081029190910101528161163781611e99565b9250505b6001016114c1565b5060005b611652600186612015565b8110156118065760005b60016116688388612015565b6116729190612015565b8110156117fd5783611685826001612061565b8151811061169557611695611e6d565b60200260200101518482815181106116af576116af611e6d565b602002602001015110156117f55760008482815181106116d1576116d1611e6d565b60200260200101519050848260016116e99190612061565b815181106116f9576116f9611e6d565b602002602001015185838151811061171357611713611e6d565b6020908102919091010152808561172b846001612061565b8151811061173b5761173b611e6d565b602002602001018181525050600086838151811061175b5761175b611e6d565b60200260200101519050868360016117739190612061565b8151811061178357611783611e6d565b602002602001015187848151811061179d5761179d611e6d565b6001600160a01b039092166020928302919091019091015280876117c2856001612061565b815181106117d2576117d2611e6d565b60200260200101906001600160a01b031690816001600160a01b03168152505050505b60010161165c565b50600101611647565b5060008767ffffffffffffffff81111561182257611822611c29565b60405190808252806020026020018201604052801561184b578160200160208202803683370190505b50905060008867ffffffffffffffff81111561186957611869611c29565b604051908082528060200260200182016040528015611892578160200160208202803683370190505b50905060005b8981101561192b578581815181106118b2576118b2611e6d565b60200260200101518382815181106118cc576118cc611e6d565b60200260200101906001600160a01b031690816001600160a01b0316815250508481815181106118fe576118fe611e6d565b602002602001015182828151811061191857611918611e6d565b6020908102919091010152600101611898565b50909890975095505050505050565b600081818080805b8451811015611a7e5784818151811061195d5761195d611e6d565b01602001516001600160f81b031916601760f91b036119cd57611981826001612061565b81148061198c575080155b1561199e575060009695505050505050565b836119a881611e99565b94505060038411156119c1575060009695505050505050565b60009250809150611a76565b60308582815181106119e1576119e1611e6d565b016020015160f81c1080611a0e57506039858281518110611a0457611a04611e6d565b016020015160f81c115b15611a20575060009695505050505050565b6030858281518110611a3457611a34611e6d565b0160200151611a46919060f81c612074565b60ff16611a5484600a612028565b611a5e9190612061565b925060ff831115611a76575060009695505050505050565b600101611942565b50826003148015611a995750611a95816001612061565b8451115b9695505050505050565b80356001600160a01b0381168114611aba57600080fd5b919050565b600060208284031215611ad157600080fd5b611ada82611aa3565b9392505050565b6000815180845260005b81811015611b0757602081850181015186830182015201611aeb565b506000602082860101526020601f19601f83011685010191505092915050565b61014081526000611b3c61014083018d611ae1565b6001600160a01b039b909b1660208301525097151560408901529515156060880152608087019490945260a086019290925260c085015260e084015261010083015261012090910152919050565b600081518084526020840193506020830160005b82811015611bc55781516001600160a01b0316865260209586019590910190600101611b9e565b5093949350505050565b602081526000611ada6020830184611b8a565b60c081526000611bf560c0830189611ae1565b6001600160a01b0397909716602083015250604081019490945291151560608401521515608083015260a090910152919050565b634e487b7160e01b600052604160045260246000fd5b60008060408385031215611c5257600080fd5b611c5b83611aa3565b9150602083013567ffffffffffffffff811115611c7757600080fd5b8301601f81018513611c8857600080fd5b803567ffffffffffffffff811115611ca257611ca2611c29565b604051601f8201601f19908116603f0116810167ffffffffffffffff81118282101715611cd157611cd1611c29565b604052818152828201602001871015611ce957600080fd5b816020840160208301376000602083830101528093505050509250929050565b600080600080600060a08688031215611d2157600080fd5b611d2a86611aa3565b97602087013597506040870135966060810135965060800135945092505050565b600060208284031215611d5d57600080fd5b5035919050565b604081526000611d776040830185611b8a565b828103602084015280845180835260208301915060208601925060005b81811015611db2578351835260209384019390920191600101611d94565b50909695505050505050565b60208082526028908201527f4f6e6c792073757065722061646d696e2063616e20706572666f726d20746869604082015267399030b1ba34b7b760c11b606082015260800190565b600181811c90821680611e1a57607f821691505b602082108103611e3a57634e487b7160e01b600052602260045260246000fd5b50919050565b602080825260139082015272139bd91948191bd95cc81b9bdd08195e1a5cdd606a1b604082015260600190565b634e487b7160e01b600052603260045260246000fd5b634e487b7160e01b600052601160045260246000fd5b600060018201611eab57611eab611e83565b5060010190565b601f821115611efc57806000526020600020601f840160051c81016020851015611ed95750805b601f840160051c820191505b81811015611ef95760008155600101611ee5565b50505b505050565b815167ffffffffffffffff811115611f1b57611f1b611c29565b611f2f81611f298454611e06565b84611eb2565b6020601f821160018114611f635760008315611f4b5750848201515b600019600385901b1c1916600184901b178455611ef9565b600084815260208120601f198516915b82811015611f935787850151825560209485019460019092019101611f73565b5084821015611fb15786840151600019600387901b60f8161c191681555b50505050600190811b01905550565b602081526000611ada6020830184611ae1565b60208082526022908201527f4f6e6c792061646d696e2063616e20706572666f726d2074686973206163746960408201526137b760f11b606082015260800190565b8181038181111561053057610530611e83565b808202811582820484141761053057610530611e83565b60008261205c57634e487b7160e01b600052601260045260246000fd5b500490565b8082018082111561053057610530611e83565b60ff828116828216039081111561053057610530611e8356fea26469706673582212207bc1a0792cd2a44e6b10024555498c79f13454f8cd308ca597cbbdfea774fa9264736f6c634300081c0033",
          "opcodes": "PUSH1 0x80 PUSH1 0x40 MSTORE CALLVALUE DUP1 ISZERO PUSH1 0xF JUMPI PUSH1 0x0 DUP1 REVERT JUMPDEST POP PUSH1 0x0 DUP1 SLOAD PUSH1 0x1 PUSH1 0x1 PUSH1 0xA0 SHL SUB NOT AND CALLER SWAP1 DUP2 OR DUP3 SSTORE DUP2 MSTORE PUSH1 0x1 PUSH1 0x20 DUP2 SWAP1 MSTORE PUSH1 0x40 SWAP1 SWAP2 KECCAK256 DUP1 SLOAD PUSH1 0xFF NOT AND SWAP1 SWAP2 OR SWAP1 SSTORE PUSH2 0x20C3 DUP1 PUSH2 0x4C PUSH1 0x0 CODECOPY PUSH1 0x0 RETURN INVALID PUSH1 0x80 PUSH1 0x40 MSTORE CALLVALUE DUP1 ISZERO PUSH2 0x10 JUMPI PUSH1 0x0 DUP1 REVERT JUMPDEST POP PUSH1 0x4 CALLDATASIZE LT PUSH2 0x100 JUMPI PUSH1 0x0 CALLDATALOAD PUSH1 0xE0 SHR DUP1 PUSH4 0xBAFB3581 GT PUSH2 0x97 JUMPI DUP1 PUSH4 0xD3D1FB48 GT PUSH2 0x66 JUMPI DUP1 PUSH4 0xD3D1FB48 EQ PUSH2 0x26A JUMPI DUP1 PUSH4 0xDD4C97A0 EQ PUSH2 0x28D JUMPI DUP1 PUSH4 0xE243EAF0 EQ PUSH2 0x2A0 JUMPI DUP1 PUSH4 0xF851A440 EQ PUSH2 0x2C1 JUMPI PUSH1 0x0 DUP1 REVERT JUMPDEST DUP1 PUSH4 0xBAFB3581 EQ PUSH2 0x1F4 JUMPI DUP1 PUSH4 0xBB9B342D EQ PUSH2 0x219 JUMPI DUP1 PUSH4 0xC4ADF54B EQ PUSH2 0x22C JUMPI DUP1 PUSH4 0xC4D77090 EQ PUSH2 0x23F JUMPI PUSH1 0x0 DUP1 REVERT JUMPDEST DUP1 PUSH4 0x65814455 GT PUSH2 0xD3 JUMPI DUP1 PUSH4 0x65814455 EQ PUSH2 0x192 JUMPI DUP1 PUSH4 0x6B51E919 EQ PUSH2 0x1A5 JUMPI DUP1 PUSH4 0x70480275 EQ PUSH2 0x1BA JUMPI DUP1 PUSH4 0x9BA446C9 EQ PUSH2 0x1CD JUMPI PUSH1 0x0 DUP1 REVERT JUMPDEST DUP1 PUSH4 0x1785F53C EQ PUSH2 0x105 JUMPI DUP1 PUSH4 0x189A5A17 EQ PUSH2 0x11A JUMPI DUP1 PUSH4 0x24D7806C EQ PUSH2 0x14C JUMPI DUP1 PUSH4 0x429B62E5 EQ PUSH2 0x16F JUMPI JUMPDEST PUSH1 0x0 DUP1 REVERT JUMPDEST PUSH2 0x118 PUSH2 0x113 CALLDATASIZE PUSH1 0x4 PUSH2 0x1ABF JUMP JUMPDEST PUSH2 0x2D4 JUMP JUMPDEST STOP JUMPDEST PUSH2 0x12D PUSH2 0x128 CALLDATASIZE PUSH1 0x4 PUSH2 0x1ABF JUMP JUMPDEST PUSH2 0x416 JUMP JUMPDEST PUSH1 0x40 MLOAD PUSH2 0x143 SWAP11 SWAP10 SWAP9 SWAP8 SWAP7 SWAP6 SWAP5 SWAP4 SWAP3 SWAP2 SWAP1 PUSH2 0x1B27 JUMP JUMPDEST PUSH1 0x40 MLOAD DUP1 SWAP2 SUB SWAP1 RETURN JUMPDEST PUSH2 0x15F PUSH2 0x15A CALLDATASIZE PUSH1 0x4 PUSH2 0x1ABF JUMP JUMPDEST PUSH2 0x4FB JUMP JUMPDEST PUSH1 0x40 MLOAD SWAP1 ISZERO ISZERO DUP2 MSTORE PUSH1 0x20 ADD PUSH2 0x143 JUMP JUMPDEST PUSH2 0x15F PUSH2 0x17D CALLDATASIZE PUSH1 0x4 PUSH2 0x1ABF JUMP JUMPDEST PUSH1 0x1 PUSH1 0x20 MSTORE PUSH1 0x0 SWAP1 DUP2 MSTORE PUSH1 0x40 SWAP1 KECCAK256 SLOAD PUSH1 0xFF AND DUP2 JUMP JUMPDEST PUSH2 0x118 PUSH2 0x1A0 CALLDATASIZE PUSH1 0x4 PUSH2 0x1ABF JUMP JUMPDEST PUSH2 0x536 JUMP JUMPDEST PUSH2 0x1AD PUSH2 0x651 JUMP JUMPDEST PUSH1 0x40 MLOAD PUSH2 0x143 SWAP2 SWAP1 PUSH2 0x1BCF JUMP JUMPDEST PUSH2 0x118 PUSH2 0x1C8 CALLDATASIZE PUSH1 0x4 PUSH2 0x1ABF JUMP JUMPDEST PUSH2 0x889 JUMP JUMPDEST PUSH2 0x1D5 PUSH2 0x9B3 JUMP JUMPDEST PUSH1 0x40 DUP1 MLOAD PUSH1 0x1 PUSH1 0x1 PUSH1 0xA0 SHL SUB SWAP1 SWAP4 AND DUP4 MSTORE PUSH1 0x20 DUP4 ADD SWAP2 SWAP1 SWAP2 MSTORE ADD PUSH2 0x143 JUMP JUMPDEST PUSH2 0x207 PUSH2 0x202 CALLDATASIZE PUSH1 0x4 PUSH2 0x1ABF JUMP JUMPDEST PUSH2 0xB31 JUMP JUMPDEST PUSH1 0x40 MLOAD PUSH2 0x143 SWAP7 SWAP6 SWAP5 SWAP4 SWAP3 SWAP2 SWAP1 PUSH2 0x1BE2 JUMP JUMPDEST PUSH2 0x118 PUSH2 0x227 CALLDATASIZE PUSH1 0x4 PUSH2 0x1C3F JUMP JUMPDEST PUSH2 0xCDE JUMP JUMPDEST PUSH2 0x118 PUSH2 0x23A CALLDATASIZE PUSH1 0x4 PUSH2 0x1D09 JUMP JUMPDEST PUSH2 0xF98 JUMP JUMPDEST PUSH2 0x252 PUSH2 0x24D CALLDATASIZE PUSH1 0x4 PUSH2 0x1D4B JUMP JUMPDEST PUSH2 0x120A JUMP JUMPDEST PUSH1 0x40 MLOAD PUSH1 0x1 PUSH1 0x1 PUSH1 0xA0 SHL SUB SWAP1 SWAP2 AND DUP2 MSTORE PUSH1 0x20 ADD PUSH2 0x143 JUMP JUMPDEST PUSH2 0x15F PUSH2 0x278 CALLDATASIZE PUSH1 0x4 PUSH2 0x1ABF JUMP JUMPDEST PUSH1 0x4 PUSH1 0x20 MSTORE PUSH1 0x0 SWAP1 DUP2 MSTORE PUSH1 0x40 SWAP1 KECCAK256 SLOAD PUSH1 0xFF AND DUP2 JUMP JUMPDEST PUSH2 0x118 PUSH2 0x29B CALLDATASIZE PUSH1 0x4 PUSH2 0x1ABF JUMP JUMPDEST PUSH2 0x1234 JUMP JUMPDEST PUSH2 0x2B3 PUSH2 0x2AE CALLDATASIZE PUSH1 0x4 PUSH2 0x1D4B JUMP JUMPDEST PUSH2 0x130A JUMP JUMPDEST PUSH1 0x40 MLOAD PUSH2 0x143 SWAP3 SWAP2 SWAP1 PUSH2 0x1D64 JUMP JUMPDEST PUSH1 0x0 SLOAD PUSH2 0x252 SWAP1 PUSH1 0x1 PUSH1 0x1 PUSH1 0xA0 SHL SUB AND DUP2 JUMP JUMPDEST PUSH1 0x0 SLOAD PUSH1 0x1 PUSH1 0x1 PUSH1 0xA0 SHL SUB AND CALLER EQ PUSH2 0x307 JUMPI PUSH1 0x40 MLOAD PUSH3 0x461BCD PUSH1 0xE5 SHL DUP2 MSTORE PUSH1 0x4 ADD PUSH2 0x2FE SWAP1 PUSH2 0x1DBE JUMP JUMPDEST PUSH1 0x40 MLOAD DUP1 SWAP2 SUB SWAP1 REVERT JUMPDEST PUSH1 0x0 SLOAD PUSH1 0x1 PUSH1 0x1 PUSH1 0xA0 SHL SUB SWAP1 DUP2 AND SWAP1 DUP3 AND SUB PUSH2 0x365 JUMPI PUSH1 0x40 MLOAD PUSH3 0x461BCD PUSH1 0xE5 SHL DUP2 MSTORE PUSH1 0x20 PUSH1 0x4 DUP3 ADD MSTORE PUSH1 0x19 PUSH1 0x24 DUP3 ADD MSTORE PUSH32 0x43616E6E6F742072656D6F76652073757065722061646D696E00000000000000 PUSH1 0x44 DUP3 ADD MSTORE PUSH1 0x64 ADD PUSH2 0x2FE JUMP JUMPDEST PUSH1 0x1 PUSH1 0x1 PUSH1 0xA0 SHL SUB DUP2 AND PUSH1 0x0 SWAP1 DUP2 MSTORE PUSH1 0x1 PUSH1 0x20 MSTORE PUSH1 0x40 SWAP1 KECCAK256 SLOAD PUSH1 0xFF AND PUSH2 0x3CD JUMPI PUSH1 0x40 MLOAD PUSH3 0x461BCD PUSH1 0xE5 SHL DUP2 MSTORE PUSH1 0x20 PUSH1 0x4 DUP3 ADD MSTORE PUSH1 0x17 PUSH1 0x24 DUP3 ADD MSTORE PUSH32 0x41646472657373206973206E6F7420616E2061646D696E000000000000000000 PUSH1 0x44 DUP3 ADD MSTORE PUSH1 0x64 ADD PUSH2 0x2FE JUMP JUMPDEST PUSH1 0x1 PUSH1 0x1 PUSH1 0xA0 SHL SUB DUP2 AND PUSH1 0x0 DUP2 DUP2 MSTORE PUSH1 0x1 PUSH1 0x20 MSTORE PUSH1 0x40 DUP1 DUP3 KECCAK256 DUP1 SLOAD PUSH1 0xFF NOT AND SWAP1 SSTORE MLOAD PUSH32 0xA3B62BC36326052D97EA62D63C3D60308ED4C3EA8AC079DD8499F1E9C4F80C0F SWAP2 SWAP1 LOG2 POP JUMP JUMPDEST PUSH1 0x2 PUSH1 0x20 MSTORE PUSH1 0x0 SWAP1 DUP2 MSTORE PUSH1 0x40 SWAP1 KECCAK256 DUP1 SLOAD DUP2 SWAP1 PUSH2 0x431 SWAP1 PUSH2 0x1E06 JUMP JUMPDEST DUP1 PUSH1 0x1F ADD PUSH1 0x20 DUP1 SWAP2 DIV MUL PUSH1 0x20 ADD PUSH1 0x40 MLOAD SWAP1 DUP2 ADD PUSH1 0x40 MSTORE DUP1 SWAP3 SWAP2 SWAP1 DUP2 DUP2 MSTORE PUSH1 0x20 ADD DUP3 DUP1 SLOAD PUSH2 0x45D SWAP1 PUSH2 0x1E06 JUMP JUMPDEST DUP1 ISZERO PUSH2 0x4AA JUMPI DUP1 PUSH1 0x1F LT PUSH2 0x47F JUMPI PUSH2 0x100 DUP1 DUP4 SLOAD DIV MUL DUP4 MSTORE SWAP2 PUSH1 0x20 ADD SWAP2 PUSH2 0x4AA JUMP JUMPDEST DUP3 ADD SWAP2 SWAP1 PUSH1 0x0 MSTORE PUSH1 0x20 PUSH1 0x0 KECCAK256 SWAP1 JUMPDEST DUP2 SLOAD DUP2 MSTORE SWAP1 PUSH1 0x1 ADD SWAP1 PUSH1 0x20 ADD DUP1 DUP4 GT PUSH2 0x48D JUMPI DUP3 SWAP1 SUB PUSH1 0x1F AND DUP3 ADD SWAP2 JUMPDEST POP POP POP POP PUSH1 0x1 DUP4 ADD SLOAD PUSH1 0x2 DUP5 ADD SLOAD PUSH1 0x3 DUP6 ADD SLOAD PUSH1 0x4 DUP7 ADD SLOAD PUSH1 0x5 DUP8 ADD SLOAD PUSH1 0x6 DUP9 ADD SLOAD PUSH1 0x7 SWAP1 SWAP9 ADD SLOAD SWAP7 SWAP8 PUSH1 0x1 PUSH1 0x1 PUSH1 0xA0 SHL SUB DUP7 AND SWAP8 PUSH1 0xFF PUSH1 0x1 PUSH1 0xA0 SHL DUP9 DIV DUP2 AND SWAP9 POP PUSH1 0x1 PUSH1 0xA8 SHL SWAP1 SWAP8 DIV SWAP1 SWAP7 AND SWAP6 DUP11 JUMP JUMPDEST PUSH1 0x0 DUP1 SLOAD PUSH1 0x1 PUSH1 0x1 PUSH1 0xA0 SHL SUB DUP4 DUP2 AND SWAP2 AND EQ DUP1 PUSH2 0x530 JUMPI POP PUSH1 0x1 PUSH1 0x1 PUSH1 0xA0 SHL SUB DUP3 AND PUSH1 0x0 SWAP1 DUP2 MSTORE PUSH1 0x1 PUSH1 0x20 MSTORE PUSH1 0x40 SWAP1 KECCAK256 SLOAD PUSH1 0xFF AND JUMPDEST SWAP3 SWAP2 POP POP JUMP JUMPDEST PUSH1 0x1 PUSH1 0x1 PUSH1 0xA0 SHL SUB DUP2 AND PUSH1 0x0 SWAP1 DUP2 MSTORE PUSH1 0x4 PUSH1 0x20 MSTORE PUSH1 0x40 SWAP1 KECCAK256 SLOAD DUP2 SWAP1 PUSH1 0xFF AND PUSH2 0x570 JUMPI PUSH1 0x40 MLOAD PUSH3 0x461BCD PUSH1 0xE5 SHL DUP2 MSTORE PUSH1 0x4 ADD PUSH2 0x2FE SWAP1 PUSH2 0x1E40 JUMP JUMPDEST PUSH1 0x0 SLOAD PUSH1 0x1 PUSH1 0x1 PUSH1 0xA0 SHL SUB AND CALLER EQ DUP1 PUSH2 0x5A5 JUMPI POP PUSH1 0x1 PUSH1 0x1 PUSH1 0xA0 SHL SUB DUP3 DUP2 AND PUSH1 0x0 SWAP1 DUP2 MSTORE PUSH1 0x2 PUSH1 0x20 MSTORE PUSH1 0x40 SWAP1 KECCAK256 PUSH1 0x1 ADD SLOAD AND CALLER EQ JUMPDEST PUSH2 0x601 JUMPI PUSH1 0x40 MLOAD PUSH3 0x461BCD PUSH1 0xE5 SHL DUP2 MSTORE PUSH1 0x20 PUSH1 0x4 DUP3 ADD MSTORE PUSH1 0x27 PUSH1 0x24 DUP3 ADD MSTORE PUSH32 0x4F6E6C792061646D696E206F72206E6F6465206F776E65722063616E20646561 PUSH1 0x44 DUP3 ADD MSTORE PUSH7 0x63746976617465 PUSH1 0xC8 SHL PUSH1 0x64 DUP3 ADD MSTORE PUSH1 0x84 ADD PUSH2 0x2FE JUMP JUMPDEST PUSH1 0x1 PUSH1 0x1 PUSH1 0xA0 SHL SUB DUP3 AND PUSH1 0x0 DUP2 DUP2 MSTORE PUSH1 0x2 PUSH1 0x20 MSTORE PUSH1 0x40 DUP1 DUP3 KECCAK256 PUSH1 0x1 ADD DUP1 SLOAD PUSH1 0xFF PUSH1 0xA8 SHL NOT AND SWAP1 SSTORE MLOAD PUSH32 0xD9957750E6343405C319EB99A4EC67FA11CFD66969318CBC71AA2D45FA53A349 SWAP2 SWAP1 LOG2 POP POP JUMP JUMPDEST PUSH1 0x60 PUSH1 0x0 DUP1 JUMPDEST PUSH1 0x3 SLOAD DUP2 LT ISZERO PUSH2 0x718 JUMPI PUSH1 0x2 PUSH1 0x0 PUSH1 0x3 DUP4 DUP2 SLOAD DUP2 LT PUSH2 0x678 JUMPI PUSH2 0x678 PUSH2 0x1E6D JUMP JUMPDEST PUSH1 0x0 SWAP2 DUP3 MSTORE PUSH1 0x20 DUP1 DUP4 KECCAK256 SWAP1 SWAP2 ADD SLOAD PUSH1 0x1 PUSH1 0x1 PUSH1 0xA0 SHL SUB AND DUP4 MSTORE DUP3 ADD SWAP3 SWAP1 SWAP3 MSTORE PUSH1 0x40 ADD SWAP1 KECCAK256 PUSH1 0x1 ADD SLOAD PUSH1 0xFF PUSH1 0x1 PUSH1 0xA8 SHL SWAP1 SWAP2 DIV AND DUP1 ISZERO PUSH2 0x6FD JUMPI POP PUSH1 0x2 PUSH1 0x0 PUSH1 0x3 DUP4 DUP2 SLOAD DUP2 LT PUSH2 0x6C9 JUMPI PUSH2 0x6C9 PUSH2 0x1E6D JUMP JUMPDEST PUSH1 0x0 SWAP2 DUP3 MSTORE PUSH1 0x20 DUP1 DUP4 KECCAK256 SWAP1 SWAP2 ADD SLOAD PUSH1 0x1 PUSH1 0x1 PUSH1 0xA0 SHL SUB AND DUP4 MSTORE DUP3 ADD SWAP3 SWAP1 SWAP3 MSTORE PUSH1 0x40 ADD SWAP1 KECCAK256 PUSH1 0x1 ADD SLOAD PUSH1 0xFF PUSH1 0x1 PUSH1 0xA0 SHL SWAP1 SWAP2 DIV AND JUMPDEST ISZERO PUSH2 0x710 JUMPI DUP2 PUSH2 0x70C DUP2 PUSH2 0x1E99 JUMP JUMPDEST SWAP3 POP POP JUMPDEST PUSH1 0x1 ADD PUSH2 0x657 JUMP JUMPDEST POP PUSH1 0x0 DUP2 PUSH8 0xFFFFFFFFFFFFFFFF DUP2 GT ISZERO PUSH2 0x734 JUMPI PUSH2 0x734 PUSH2 0x1C29 JUMP JUMPDEST PUSH1 0x40 MLOAD SWAP1 DUP1 DUP3 MSTORE DUP1 PUSH1 0x20 MUL PUSH1 0x20 ADD DUP3 ADD PUSH1 0x40 MSTORE DUP1 ISZERO PUSH2 0x75D JUMPI DUP2 PUSH1 0x20 ADD PUSH1 0x20 DUP3 MUL DUP1 CALLDATASIZE DUP4 CALLDATACOPY ADD SWAP1 POP JUMPDEST POP SWAP1 POP PUSH1 0x0 DUP1 JUMPDEST PUSH1 0x3 SLOAD DUP2 LT ISZERO PUSH2 0x880 JUMPI PUSH1 0x2 PUSH1 0x0 PUSH1 0x3 DUP4 DUP2 SLOAD DUP2 LT PUSH2 0x785 JUMPI PUSH2 0x785 PUSH2 0x1E6D JUMP JUMPDEST PUSH1 0x0 SWAP2 DUP3 MSTORE PUSH1 0x20 DUP1 DUP4 KECCAK256 SWAP1 SWAP2 ADD SLOAD PUSH1 0x1 PUSH1 0x1 PUSH1 0xA0 SHL SUB AND DUP4 MSTORE DUP3 ADD SWAP3 SWAP1 SWAP3 MSTORE PUSH1 0x40 ADD SWAP1 KECCAK256 PUSH1 0x1 ADD SLOAD PUSH1 0xFF PUSH1 0x1 PUSH1 0xA8 SHL SWAP1 SWAP2 DIV AND DUP1 ISZERO PUSH2 0x80A JUMPI POP PUSH1 0x2 PUSH1 0x0 PUSH1 0x3 DUP4 DUP2 SLOAD DUP2 LT PUSH2 0x7D6 JUMPI PUSH2 0x7D6 PUSH2 0x1E6D JUMP JUMPDEST PUSH1 0x0 SWAP2 DUP3 MSTORE PUSH1 0x20 DUP1 DUP4 KECCAK256 SWAP1 SWAP2 ADD SLOAD PUSH1 0x1 PUSH1 0x1 PUSH1 0xA0 SHL SUB AND DUP4 MSTORE DUP3 ADD SWAP3 SWAP1 SWAP3 MSTORE PUSH1 0x40 ADD SWAP1 KECCAK256 PUSH1 0x1 ADD SLOAD PUSH1 0xFF PUSH1 0x1 PUSH1 0xA0 SHL SWAP1 SWAP2 DIV AND JUMPDEST ISZERO PUSH2 0x878 JUMPI PUSH1 0x3 DUP2 DUP2 SLOAD DUP2 LT PUSH2 0x822 JUMPI PUSH2 0x822 PUSH2 0x1E6D JUMP JUMPDEST SWAP1 PUSH1 0x0 MSTORE PUSH1 0x20 PUSH1 0x0 KECCAK256 ADD PUSH1 0x0 SWAP1 SLOAD SWAP1 PUSH2 0x100 EXP SWAP1 DIV PUSH1 0x1 PUSH1 0x1 PUSH1 0xA0 SHL SUB AND DUP4 DUP4 DUP2 MLOAD DUP2 LT PUSH2 0x852 JUMPI PUSH2 0x852 PUSH2 0x1E6D JUMP JUMPDEST PUSH1 0x1 PUSH1 0x1 PUSH1 0xA0 SHL SUB SWAP1 SWAP3 AND PUSH1 0x20 SWAP3 DUP4 MUL SWAP2 SWAP1 SWAP2 ADD SWAP1 SWAP2 ADD MSTORE DUP2 PUSH2 0x874 DUP2 PUSH2 0x1E99 JUMP JUMPDEST SWAP3 POP POP JUMPDEST PUSH1 0x1 ADD PUSH2 0x764 JUMP JUMPDEST POP SWAP1 SWAP4 SWAP3 POP POP POP JUMP JUMPDEST PUSH1 0x0 SLOAD PUSH1 0x1 PUSH1 0x1 PUSH1 0xA0 SHL SUB AND CALLER EQ PUSH2 0x8B3 JUMPI PUSH1 0x40 MLOAD PUSH3 0x461BCD PUSH1 0xE5 SHL DUP2 MSTORE PUSH1 0x4 ADD PUSH2 0x2FE SWAP1 PUSH2 0x1DBE JUMP JUMPDEST PUSH1 0x1 PUSH1 0x1 PUSH1 0xA0 SHL SUB DUP2 AND PUSH2 0x8FB JUMPI PUSH1 0x40 MLOAD PUSH3 0x461BCD PUSH1 0xE5 SHL DUP2 MSTORE PUSH1 0x20 PUSH1 0x4 DUP3 ADD MSTORE PUSH1 0xF PUSH1 0x24 DUP3 ADD MSTORE PUSH15 0x496E76616C69642061646472657373 PUSH1 0x88 SHL PUSH1 0x44 DUP3 ADD MSTORE PUSH1 0x64 ADD PUSH2 0x2FE JUMP JUMPDEST PUSH1 0x1 PUSH1 0x1 PUSH1 0xA0 SHL SUB DUP2 AND PUSH1 0x0 SWAP1 DUP2 MSTORE PUSH1 0x1 PUSH1 0x20 MSTORE PUSH1 0x40 SWAP1 KECCAK256 SLOAD PUSH1 0xFF AND ISZERO PUSH2 0x964 JUMPI PUSH1 0x40 MLOAD PUSH3 0x461BCD PUSH1 0xE5 SHL DUP2 MSTORE PUSH1 0x20 PUSH1 0x4 DUP3 ADD MSTORE PUSH1 0x1B PUSH1 0x24 DUP3 ADD MSTORE PUSH32 0x4164647265737320697320616C726561647920616E2061646D696E0000000000 PUSH1 0x44 DUP3 ADD MSTORE PUSH1 0x64 ADD PUSH2 0x2FE JUMP JUMPDEST PUSH1 0x1 PUSH1 0x1 PUSH1 0xA0 SHL SUB DUP2 AND PUSH1 0x0 DUP2 DUP2 MSTORE PUSH1 0x1 PUSH1 0x20 DUP2 SWAP1 MSTORE PUSH1 0x40 DUP1 DUP4 KECCAK256 DUP1 SLOAD PUSH1 0xFF NOT AND SWAP1 SWAP3 OR SWAP1 SWAP2 SSTORE MLOAD PUSH32 0x44D6D25963F097AD14F29F06854A01F575648A1EF82F30E562CCD3889717E339 SWAP2 SWAP1 LOG2 POP JUMP JUMPDEST PUSH1 0x3 SLOAD PUSH1 0x0 SWAP1 DUP2 SWAP1 PUSH2 0x9FD JUMPI PUSH1 0x40 MLOAD PUSH3 0x461BCD PUSH1 0xE5 SHL DUP2 MSTORE PUSH1 0x20 PUSH1 0x4 DUP3 ADD MSTORE PUSH1 0x13 PUSH1 0x24 DUP3 ADD MSTORE PUSH19 0x139BC81B9BD9195CC81C9959DA5CDD195C9959 PUSH1 0x6A SHL PUSH1 0x44 DUP3 ADD MSTORE PUSH1 0x64 ADD PUSH2 0x2FE JUMP JUMPDEST PUSH1 0x0 DUP1 DUP1 JUMPDEST PUSH1 0x3 SLOAD DUP2 LT ISZERO PUSH2 0xAD9 JUMPI PUSH1 0x0 PUSH1 0x3 DUP3 DUP2 SLOAD DUP2 LT PUSH2 0xA21 JUMPI PUSH2 0xA21 PUSH2 0x1E6D JUMP JUMPDEST PUSH1 0x0 SWAP2 DUP3 MSTORE PUSH1 0x20 DUP1 DUP4 KECCAK256 SWAP1 SWAP2 ADD SLOAD PUSH1 0x1 PUSH1 0x1 PUSH1 0xA0 SHL SUB AND DUP1 DUP4 MSTORE PUSH1 0x2 SWAP1 SWAP2 MSTORE PUSH1 0x40 SWAP1 SWAP2 KECCAK256 PUSH1 0x1 ADD SLOAD SWAP1 SWAP2 POP PUSH1 0xFF PUSH1 0x1 PUSH1 0xA8 SHL SWAP1 SWAP2 DIV AND DUP1 ISZERO PUSH2 0xA85 JUMPI POP PUSH1 0x1 PUSH1 0x1 PUSH1 0xA0 SHL SUB DUP2 AND PUSH1 0x0 SWAP1 DUP2 MSTORE PUSH1 0x2 PUSH1 0x20 MSTORE PUSH1 0x40 SWAP1 KECCAK256 PUSH1 0x1 ADD SLOAD PUSH1 0x1 PUSH1 0xA0 SHL SWAP1 DIV PUSH1 0xFF AND JUMPDEST ISZERO PUSH2 0xAD0 JUMPI PUSH1 0x1 PUSH1 0x1 PUSH1 0xA0 SHL SUB DUP2 AND PUSH1 0x0 SWAP1 DUP2 MSTORE PUSH1 0x2 PUSH1 0x20 MSTORE PUSH1 0x40 SWAP1 KECCAK256 PUSH1 0x7 ADD SLOAD DUP4 LT ISZERO PUSH2 0xAD0 JUMPI PUSH1 0x1 PUSH1 0x1 PUSH1 0xA0 SHL SUB DUP2 AND PUSH1 0x0 SWAP1 DUP2 MSTORE PUSH1 0x2 PUSH1 0x20 MSTORE PUSH1 0x40 SWAP1 KECCAK256 PUSH1 0x7 ADD SLOAD SWAP1 SWAP4 POP SWAP2 POP DUP3 JUMPDEST POP PUSH1 0x1 ADD PUSH2 0xA02 JUMP JUMPDEST POP PUSH1 0x1 PUSH1 0x1 PUSH1 0xA0 SHL SUB DUP3 AND PUSH2 0xB28 JUMPI PUSH1 0x40 MLOAD PUSH3 0x461BCD PUSH1 0xE5 SHL DUP2 MSTORE PUSH1 0x20 PUSH1 0x4 DUP3 ADD MSTORE PUSH1 0x15 PUSH1 0x24 DUP3 ADD MSTORE PUSH21 0x139BC81858DD1A5D99481B9BD9195CC8199BDD5B99 PUSH1 0x5A SHL PUSH1 0x44 DUP3 ADD MSTORE PUSH1 0x64 ADD PUSH2 0x2FE JUMP JUMPDEST SWAP1 SWAP4 SWAP1 SWAP3 POP SWAP1 POP JUMP JUMPDEST PUSH1 0x1 PUSH1 0x1 PUSH1 0xA0 SHL SUB DUP2 AND PUSH1 0x0 SWAP1 DUP2 MSTORE PUSH1 0x4 PUSH1 0x20 MSTORE PUSH1 0x40 DUP2 KECCAK256 SLOAD PUSH1 0x60 SWAP2 SWAP1 DUP2 SWAP1 DUP2 SWAP1 DUP2 SWAP1 DUP2 SWAP1 DUP8 SWAP1 PUSH1 0xFF AND PUSH2 0xB77 JUMPI PUSH1 0x40 MLOAD PUSH3 0x461BCD PUSH1 0xE5 SHL DUP2 MSTORE PUSH1 0x4 ADD PUSH2 0x2FE SWAP1 PUSH2 0x1E40 JUMP JUMPDEST PUSH1 0x1 PUSH1 0x1 PUSH1 0xA0 SHL SUB DUP9 AND PUSH1 0x0 SWAP1 DUP2 MSTORE PUSH1 0x2 PUSH1 0x20 MSTORE PUSH1 0x40 DUP1 DUP3 KECCAK256 DUP2 MLOAD PUSH2 0x140 DUP2 ADD SWAP1 SWAP3 MSTORE DUP1 SLOAD DUP3 SWAP1 DUP3 SWAP1 PUSH2 0xBA9 SWAP1 PUSH2 0x1E06 JUMP JUMPDEST DUP1 PUSH1 0x1F ADD PUSH1 0x20 DUP1 SWAP2 DIV MUL PUSH1 0x20 ADD PUSH1 0x40 MLOAD SWAP1 DUP2 ADD PUSH1 0x40 MSTORE DUP1 SWAP3 SWAP2 SWAP1 DUP2 DUP2 MSTORE PUSH1 0x20 ADD DUP3 DUP1 SLOAD PUSH2 0xBD5 SWAP1 PUSH2 0x1E06 JUMP JUMPDEST DUP1 ISZERO PUSH2 0xC22 JUMPI DUP1 PUSH1 0x1F LT PUSH2 0xBF7 JUMPI PUSH2 0x100 DUP1 DUP4 SLOAD DIV MUL DUP4 MSTORE SWAP2 PUSH1 0x20 ADD SWAP2 PUSH2 0xC22 JUMP JUMPDEST DUP3 ADD SWAP2 SWAP1 PUSH1 0x0 MSTORE PUSH1 0x20 PUSH1 0x0 KECCAK256 SWAP1 JUMPDEST DUP2 SLOAD DUP2 MSTORE SWAP1 PUSH1 0x1 ADD SWAP1 PUSH1 0x20 ADD DUP1 DUP4 GT PUSH2 0xC05 JUMPI DUP3 SWAP1 SUB PUSH1 0x1F AND DUP3 ADD SWAP2 JUMPDEST POP POP POP SWAP2 DUP4 MSTORE POP POP PUSH1 0x1 DUP3 ADD SLOAD PUSH1 0x1 PUSH1 0x1 PUSH1 0xA0 SHL SUB DUP2 AND PUSH1 0x20 DUP1 DUP5 ADD SWAP2 SWAP1 SWAP2 MSTORE PUSH1 0xFF PUSH1 0x1 PUSH1 0xA0 SHL DUP4 DIV DUP2 AND ISZERO ISZERO PUSH1 0x40 DUP1 DUP7 ADD SWAP2 SWAP1 SWAP2 MSTORE PUSH1 0x1 PUSH1 0xA8 SHL SWAP1 SWAP4 DIV AND ISZERO ISZERO PUSH1 0x60 DUP1 DUP6 ADD SWAP2 SWAP1 SWAP2 MSTORE PUSH1 0x2 DUP6 ADD SLOAD PUSH1 0x80 DUP1 DUP7 ADD SWAP2 SWAP1 SWAP2 MSTORE PUSH1 0x3 DUP7 ADD SLOAD PUSH1 0xA0 DUP7 ADD MSTORE PUSH1 0x4 DUP7 ADD SLOAD PUSH1 0xC0 DUP7 ADD MSTORE PUSH1 0x5 DUP7 ADD SLOAD PUSH1 0xE0 DUP7 ADD MSTORE PUSH1 0x6 DUP7 ADD SLOAD PUSH2 0x100 DUP7 ADD MSTORE PUSH1 0x7 SWAP1 SWAP6 ADD SLOAD PUSH2 0x120 SWAP5 DUP6 ADD MSTORE DUP6 MLOAD SWAP2 DUP7 ADD MLOAD SWAP4 DUP7 ADD MLOAD SWAP3 DUP7 ADD MLOAD SWAP1 DUP7 ADD MLOAD SWAP6 SWAP1 SWAP5 ADD MLOAD SWAP1 SWAP15 SWAP3 SWAP14 POP SWAP1 SWAP12 POP SWAP2 SWAP10 POP SWAP2 SWAP8 POP SWAP6 POP SWAP4 POP POP POP POP JUMP JUMPDEST PUSH1 0x1 PUSH1 0x1 PUSH1 0xA0 SHL SUB DUP3 AND PUSH1 0x0 SWAP1 DUP2 MSTORE PUSH1 0x4 PUSH1 0x20 MSTORE PUSH1 0x40 SWAP1 KECCAK256 SLOAD PUSH1 0xFF AND ISZERO PUSH2 0xD47 JUMPI PUSH1 0x40 MLOAD PUSH3 0x461BCD PUSH1 0xE5 SHL DUP2 MSTORE PUSH1 0x20 PUSH1 0x4 DUP3 ADD MSTORE PUSH1 0x17 PUSH1 0x24 DUP3 ADD MSTORE PUSH32 0x4E6F646520616C72656164792072656769737465726564000000000000000000 PUSH1 0x44 DUP3 ADD MSTORE PUSH1 0x64 ADD PUSH2 0x2FE JUMP JUMPDEST PUSH1 0x0 DUP2 MLOAD GT PUSH2 0xD98 JUMPI PUSH1 0x40 MLOAD PUSH3 0x461BCD PUSH1 0xE5 SHL DUP2 MSTORE PUSH1 0x20 PUSH1 0x4 DUP3 ADD MSTORE PUSH1 0x1A PUSH1 0x24 DUP3 ADD MSTORE PUSH32 0x495020616464726573732063616E6E6F7420626520656D707479000000000000 PUSH1 0x44 DUP3 ADD MSTORE PUSH1 0x64 ADD PUSH2 0x2FE JUMP JUMPDEST PUSH2 0xDA1 DUP2 PUSH2 0x193A JUMP JUMPDEST PUSH2 0xDED JUMPI PUSH1 0x40 MLOAD PUSH3 0x461BCD PUSH1 0xE5 SHL DUP2 MSTORE PUSH1 0x20 PUSH1 0x4 DUP3 ADD MSTORE PUSH1 0x19 PUSH1 0x24 DUP3 ADD MSTORE PUSH32 0x496E76616C6964204950206164647265737320666F726D617400000000000000 PUSH1 0x44 DUP3 ADD MSTORE PUSH1 0x64 ADD PUSH2 0x2FE JUMP JUMPDEST PUSH1 0x40 DUP1 MLOAD PUSH2 0x140 DUP2 ADD DUP3 MSTORE DUP3 DUP2 MSTORE CALLER PUSH1 0x20 DUP1 DUP4 ADD SWAP2 SWAP1 SWAP2 MSTORE PUSH1 0x0 DUP3 DUP5 ADD DUP2 SWAP1 MSTORE PUSH1 0x60 DUP4 ADD DUP2 SWAP1 MSTORE TIMESTAMP PUSH1 0x80 DUP5 ADD MSTORE PUSH1 0xA0 DUP4 ADD DUP2 SWAP1 MSTORE PUSH1 0xC0 DUP4 ADD DUP2 SWAP1 MSTORE PUSH1 0x64 PUSH1 0xE0 DUP5 ADD MSTORE PUSH2 0x100 DUP4 ADD DUP2 SWAP1 MSTORE PUSH2 0x120 DUP4 ADD DUP2 SWAP1 MSTORE PUSH1 0x1 PUSH1 0x1 PUSH1 0xA0 SHL SUB DUP7 AND DUP2 MSTORE PUSH1 0x2 SWAP1 SWAP2 MSTORE SWAP2 SWAP1 SWAP2 KECCAK256 DUP2 MLOAD DUP2 SWAP1 PUSH2 0xE62 SWAP1 DUP3 PUSH2 0x1F01 JUMP JUMPDEST POP PUSH1 0x20 DUP3 DUP2 ADD MLOAD PUSH1 0x1 DUP1 DUP5 ADD DUP1 SLOAD PUSH1 0x40 DUP1 DUP9 ADD MLOAD PUSH1 0x60 DUP10 ADD MLOAD ISZERO ISZERO PUSH1 0x1 PUSH1 0xA8 SHL MUL PUSH1 0xFF PUSH1 0xA8 SHL NOT SWAP2 ISZERO ISZERO PUSH1 0x1 PUSH1 0xA0 SHL MUL PUSH1 0x1 PUSH1 0x1 PUSH1 0xA8 SHL SUB NOT SWAP1 SWAP5 AND PUSH1 0x1 PUSH1 0x1 PUSH1 0xA0 SHL SUB SWAP8 DUP9 AND OR SWAP4 SWAP1 SWAP4 OR AND SWAP2 SWAP1 SWAP2 OR SWAP1 SWAP2 SSTORE PUSH1 0x80 DUP7 ADD MLOAD PUSH1 0x2 DUP7 ADD SSTORE PUSH1 0xA0 DUP7 ADD MLOAD PUSH1 0x3 DUP1 DUP8 ADD SWAP2 SWAP1 SWAP2 SSTORE PUSH1 0xC0 DUP8 ADD MLOAD PUSH1 0x4 DUP1 DUP9 ADD SWAP2 SWAP1 SWAP2 SSTORE PUSH1 0xE0 DUP9 ADD MLOAD PUSH1 0x5 DUP9 ADD SSTORE PUSH2 0x100 DUP9 ADD MLOAD PUSH1 0x6 DUP9 ADD SSTORE PUSH2 0x120 SWAP1 SWAP8 ADD MLOAD PUSH1 0x7 SWAP1 SWAP7 ADD SWAP6 SWAP1 SWAP6 SSTORE DUP5 SLOAD DUP1 DUP4 ADD SWAP1 SWAP6 SSTORE PUSH32 0xC2575A0E9E593C00F959F8C92F12DB2869C3395A3B0502D05E2516446F71F85B SWAP1 SWAP5 ADD DUP1 SLOAD SWAP3 DUP9 AND PUSH1 0x1 PUSH1 0x1 PUSH1 0xA0 SHL SUB NOT SWAP4 SWAP1 SWAP4 AND DUP4 OR SWAP1 SSTORE PUSH1 0x0 DUP3 DUP2 MSTORE SWAP5 SWAP1 SWAP3 MSTORE SWAP3 DUP3 SWAP1 KECCAK256 DUP1 SLOAD PUSH1 0xFF NOT AND SWAP1 SWAP2 OR SWAP1 SSTORE MLOAD CALLER SWAP2 SWAP1 PUSH32 0x604FB8F4B294861DB7A506D41733C6D2B284BFC584623F6142EACA0D83A47C02 SWAP1 PUSH2 0xF8C SWAP1 DUP6 SWAP1 PUSH2 0x1FC0 JUMP JUMPDEST PUSH1 0x40 MLOAD DUP1 SWAP2 SUB SWAP1 LOG3 POP POP JUMP JUMPDEST PUSH1 0x0 SLOAD PUSH1 0x1 PUSH1 0x1 PUSH1 0xA0 SHL SUB AND CALLER EQ DUP1 PUSH2 0xFC0 JUMPI POP CALLER PUSH1 0x0 SWAP1 DUP2 MSTORE PUSH1 0x1 PUSH1 0x20 MSTORE PUSH1 0x40 SWAP1 KECCAK256 SLOAD PUSH1 0xFF AND JUMPDEST PUSH2 0xFDC JUMPI PUSH1 0x40 MLOAD PUSH3 0x461BCD PUSH1 0xE5 SHL DUP2 MSTORE PUSH1 0x4 ADD PUSH2 0x2FE SWAP1 PUSH2 0x1FD3 JUMP JUMPDEST PUSH1 0x1 PUSH1 0x1 PUSH1 0xA0 SHL SUB DUP6 AND PUSH1 0x0 SWAP1 DUP2 MSTORE PUSH1 0x4 PUSH1 0x20 MSTORE PUSH1 0x40 SWAP1 KECCAK256 SLOAD DUP6 SWAP1 PUSH1 0xFF AND PUSH2 0x1016 JUMPI PUSH1 0x40 MLOAD PUSH3 0x461BCD PUSH1 0xE5 SHL DUP2 MSTORE PUSH1 0x4 ADD PUSH2 0x2FE SWAP1 PUSH2 0x1E40 JUMP JUMPDEST PUSH1 0x64 DUP4 GT ISZERO PUSH2 0x105F JUMPI PUSH1 0x40 MLOAD PUSH3 0x461BCD PUSH1 0xE5 SHL DUP2 MSTORE PUSH1 0x20 PUSH1 0x4 DUP3 ADD MSTORE PUSH1 0x15 PUSH1 0x24 DUP3 ADD MSTORE PUSH21 0x557074696D65206D757374206265203C3D2031303 PUSH1 0x5C SHL PUSH1 0x44 DUP3 ADD MSTORE PUSH1 0x64 ADD PUSH2 0x2FE JUMP JUMPDEST PUSH1 0x64 DUP3 GT ISZERO PUSH2 0x10B0 JUMPI PUSH1 0x40 MLOAD PUSH3 0x461BCD PUSH1 0xE5 SHL DUP2 MSTORE PUSH1 0x20 PUSH1 0x4 DUP3 ADD MSTORE PUSH1 0x1A PUSH1 0x24 DUP3 ADD MSTORE PUSH32 0x52656C696162696C697479206D757374206265203C3D20313030000000000000 PUSH1 0x44 DUP3 ADD MSTORE PUSH1 0x64 ADD PUSH2 0x2FE JUMP JUMPDEST PUSH1 0x1 PUSH1 0x1 PUSH1 0xA0 SHL SUB DUP7 AND PUSH1 0x0 SWAP1 DUP2 MSTORE PUSH1 0x2 PUSH1 0x20 MSTORE PUSH1 0x40 DUP2 KECCAK256 PUSH1 0x3 DUP2 ADD DUP8 SWAP1 SSTORE PUSH1 0x4 DUP2 ADD DUP7 SWAP1 SSTORE PUSH1 0x5 DUP2 ADD DUP6 SWAP1 SSTORE PUSH1 0x6 DUP2 ADD DUP5 SWAP1 SSTORE SWAP1 PUSH2 0x3E8 DUP8 GT PUSH2 0x1115 JUMPI PUSH2 0x3E8 PUSH2 0x10FB DUP9 DUP3 PUSH2 0x2015 JUMP JUMPDEST PUSH2 0x1106 SWAP1 PUSH1 0x64 PUSH2 0x2028 JUMP JUMPDEST PUSH2 0x1110 SWAP2 SWAP1 PUSH2 0x203F JUMP JUMPDEST PUSH2 0x1118 JUMP JUMPDEST PUSH1 0x0 JUMPDEST SWAP1 POP PUSH1 0x0 PUSH2 0x3E8 DUP8 GT PUSH2 0x1142 JUMPI PUSH2 0x3E8 PUSH2 0x1133 DUP9 PUSH1 0x64 PUSH2 0x2028 JUMP JUMPDEST PUSH2 0x113D SWAP2 SWAP1 PUSH2 0x203F JUMP JUMPDEST PUSH2 0x1145 JUMP JUMPDEST PUSH1 0x64 JUMPDEST SWAP1 POP PUSH1 0x64 PUSH2 0x1154 DUP7 PUSH1 0x14 PUSH2 0x2028 JUMP JUMPDEST PUSH2 0x115F DUP9 PUSH1 0x19 PUSH2 0x2028 JUMP JUMPDEST PUSH2 0x116A DUP5 PUSH1 0x19 PUSH2 0x2028 JUMP JUMPDEST PUSH2 0x1175 DUP7 PUSH1 0x1E PUSH2 0x2028 JUMP JUMPDEST PUSH2 0x117F SWAP2 SWAP1 PUSH2 0x2061 JUMP JUMPDEST PUSH2 0x1189 SWAP2 SWAP1 PUSH2 0x2061 JUMP JUMPDEST PUSH2 0x1193 SWAP2 SWAP1 PUSH2 0x2061 JUMP JUMPDEST PUSH2 0x119D SWAP2 SWAP1 PUSH2 0x203F JUMP JUMPDEST PUSH1 0x7 DUP5 ADD DUP2 SWAP1 SSTORE PUSH1 0x40 DUP1 MLOAD DUP11 DUP2 MSTORE PUSH1 0x20 DUP2 ADD DUP11 SWAP1 MSTORE SWAP1 DUP2 ADD DUP9 SWAP1 MSTORE PUSH1 0x60 DUP2 ADD DUP8 SWAP1 MSTORE PUSH1 0x80 DUP2 ADD SWAP2 SWAP1 SWAP2 MSTORE PUSH1 0x1 PUSH1 0x1 PUSH1 0xA0 SHL SUB DUP11 AND SWAP1 PUSH32 0xD7F22BBFA2524E6E308B151C736E5B453AB2D8FA59FA8D2D46D0F2BF5362899A SWAP1 PUSH1 0xA0 ADD PUSH1 0x40 MLOAD DUP1 SWAP2 SUB SWAP1 LOG2 POP POP POP POP POP POP POP POP POP JUMP JUMPDEST PUSH1 0x3 DUP2 DUP2 SLOAD DUP2 LT PUSH2 0x121A JUMPI PUSH1 0x0 DUP1 REVERT JUMPDEST PUSH1 0x0 SWAP2 DUP3 MSTORE PUSH1 0x20 SWAP1 SWAP2 KECCAK256 ADD SLOAD PUSH1 0x1 PUSH1 0x1 PUSH1 0xA0 SHL SUB AND SWAP1 POP DUP2 JUMP JUMPDEST PUSH1 0x0 SLOAD PUSH1 0x1 PUSH1 0x1 PUSH1 0xA0 SHL SUB AND CALLER EQ DUP1 PUSH2 0x125C JUMPI POP CALLER PUSH1 0x0 SWAP1 DUP2 MSTORE PUSH1 0x1 PUSH1 0x20 MSTORE PUSH1 0x40 SWAP1 KECCAK256 SLOAD PUSH1 0xFF AND JUMPDEST PUSH2 0x1278 JUMPI PUSH1 0x40 MLOAD PUSH3 0x461BCD PUSH1 0xE5 SHL DUP2 MSTORE PUSH1 0x4 ADD PUSH2 0x2FE SWAP1 PUSH2 0x1FD3 JUMP JUMPDEST PUSH1 0x1 PUSH1 0x1 PUSH1 0xA0 SHL SUB DUP2 AND PUSH1 0x0 SWAP1 DUP2 MSTORE PUSH1 0x4 PUSH1 0x20 MSTORE PUSH1 0x40 SWAP1 KECCAK256 SLOAD DUP2 SWAP1 PUSH1 0xFF AND PUSH2 0x12B2 JUMPI PUSH1 0x40 MLOAD PUSH3 0x461BCD PUSH1 0xE5 SHL DUP2 MSTORE PUSH1 0x4 ADD PUSH2 0x2FE SWAP1 PUSH2 0x1E40 JUMP JUMPDEST PUSH1 0x1 PUSH1 0x1 PUSH1 0xA0 SHL SUB DUP3 AND PUSH1 0x0 DUP2 DUP2 MSTORE PUSH1 0x2 PUSH1 0x20 MSTORE PUSH1 0x40 DUP1 DUP3 KECCAK256 PUSH1 0x1 ADD DUP1 SLOAD PUSH2 0xFFFF PUSH1 0xA0 SHL NOT AND PUSH2 0x101 PUSH1 0xA0 SHL OR SWAP1 SSTORE MLOAD PUSH32 0xC3D551EBC292891A4293FA7E08EFE31A4ABB41022DF997ED0025B244902FF5BD SWAP2 SWAP1 LOG2 POP POP JUMP JUMPDEST PUSH1 0x60 DUP1 PUSH1 0x0 DUP4 GT PUSH2 0x135D JUMPI PUSH1 0x40 MLOAD PUSH3 0x461BCD PUSH1 0xE5 SHL DUP2 MSTORE PUSH1 0x20 PUSH1 0x4 DUP3 ADD MSTORE PUSH1 0x1C PUSH1 0x24 DUP3 ADD MSTORE PUSH32 0x436F756E74206D7573742062652067726561746572207468616E203000000000 PUSH1 0x44 DUP3 ADD MSTORE PUSH1 0x64 ADD PUSH2 0x2FE JUMP JUMPDEST PUSH1 0x0 DUP1 JUMPDEST PUSH1 0x3 SLOAD DUP2 LT ISZERO PUSH2 0x1422 JUMPI PUSH1 0x2 PUSH1 0x0 PUSH1 0x3 DUP4 DUP2 SLOAD DUP2 LT PUSH2 0x1382 JUMPI PUSH2 0x1382 PUSH2 0x1E6D JUMP JUMPDEST PUSH1 0x0 SWAP2 DUP3 MSTORE PUSH1 0x20 DUP1 DUP4 KECCAK256 SWAP1 SWAP2 ADD SLOAD PUSH1 0x1 PUSH1 0x1 PUSH1 0xA0 SHL SUB AND DUP4 MSTORE DUP3 ADD SWAP3 SWAP1 SWAP3 MSTORE PUSH1 0x40 ADD SWAP1 KECCAK256 PUSH1 0x1 ADD SLOAD PUSH1 0xFF PUSH1 0x1 PUSH1 0xA8 SHL SWAP1 SWAP2 DIV AND DUP1 ISZERO PUSH2 0x1407 JUMPI POP PUSH1 0x2 PUSH1 0x0 PUSH1 0x3 DUP4 DUP2 SLOAD DUP2 LT PUSH2 0x13D3 JUMPI PUSH2 0x13D3 PUSH2 0x1E6D JUMP JUMPDEST PUSH1 0x0 SWAP2 DUP3 MSTORE PUSH1 0x20 DUP1 DUP4 KECCAK256 SWAP1 SWAP2 ADD SLOAD PUSH1 0x1 PUSH1 0x1 PUSH1 0xA0 SHL SUB AND DUP4 MSTORE DUP3 ADD SWAP3 SWAP1 SWAP3 MSTORE PUSH1 0x40 ADD SWAP1 KECCAK256 PUSH1 0x1 ADD SLOAD PUSH1 0xFF PUSH1 0x1 PUSH1 0xA0 SHL SWAP1 SWAP2 DIV AND JUMPDEST ISZERO PUSH2 0x141A JUMPI DUP2 PUSH2 0x1416 DUP2 PUSH2 0x1E99 JUMP JUMPDEST SWAP3 POP POP JUMPDEST PUSH1 0x1 ADD PUSH2 0x1361 JUMP JUMPDEST POP DUP1 DUP5 GT ISZERO PUSH2 0x142F JUMPI DUP1 SWAP4 POP JUMPDEST PUSH1 0x0 DUP2 PUSH8 0xFFFFFFFFFFFFFFFF DUP2 GT ISZERO PUSH2 0x144A JUMPI PUSH2 0x144A PUSH2 0x1C29 JUMP JUMPDEST PUSH1 0x40 MLOAD SWAP1 DUP1 DUP3 MSTORE DUP1 PUSH1 0x20 MUL PUSH1 0x20 ADD DUP3 ADD PUSH1 0x40 MSTORE DUP1 ISZERO PUSH2 0x1473 JUMPI DUP2 PUSH1 0x20 ADD PUSH1 0x20 DUP3 MUL DUP1 CALLDATASIZE DUP4 CALLDATACOPY ADD SWAP1 POP JUMPDEST POP SWAP1 POP PUSH1 0x0 DUP3 PUSH8 0xFFFFFFFFFFFFFFFF DUP2 GT ISZERO PUSH2 0x1491 JUMPI PUSH2 0x1491 PUSH2 0x1C29 JUMP JUMPDEST PUSH1 0x40 MLOAD SWAP1 DUP1 DUP3 MSTORE DUP1 PUSH1 0x20 MUL PUSH1 0x20 ADD DUP3 ADD PUSH1 0x40 MSTORE DUP1 ISZERO PUSH2 0x14BA JUMPI DUP2 PUSH1 0x20 ADD PUSH1 0x20 DUP3 MUL DUP1 CALLDATASIZE DUP4 CALLDATACOPY ADD SWAP1 POP JUMPDEST POP SWAP1 POP PUSH1 0x0 DUP1 JUMPDEST PUSH1 0x3 SLOAD DUP2 LT ISZERO PUSH2 0x1643 JUMPI PUSH1 0x2 PUSH1 0x0 PUSH1 0x3 DUP4 DUP2 SLOAD DUP2 LT PUSH2 0x14E2 JUMPI PUSH2 0x14E2 PUSH2 0x1E6D JUMP JUMPDEST PUSH1 0x0 SWAP2 DUP3 MSTORE PUSH1 0x20 DUP1 DUP4 KECCAK256 SWAP1 SWAP2 ADD SLOAD PUSH1 0x1 PUSH1 0x1 PUSH1 0xA0 SHL SUB AND DUP4 MSTORE DUP3 ADD SWAP3 SWAP1 SWAP3 MSTORE PUSH1 0x40 ADD SWAP1 KECCAK256 PUSH1 0x1 ADD SLOAD PUSH1 0xFF PUSH1 0x1 PUSH1 0xA8 SHL SWAP1 SWAP2 DIV AND DUP1 ISZERO PUSH2 0x1567 JUMPI POP PUSH1 0x2 PUSH1 0x0 PUSH1 0x3 DUP4 DUP2 SLOAD DUP2 LT PUSH2 0x1533 JUMPI PUSH2 0x1533 PUSH2 0x1E6D JUMP JUMPDEST PUSH1 0x0 SWAP2 DUP3 MSTORE PUSH1 0x20 DUP1 DUP4 KECCAK256 SWAP1 SWAP2 ADD SLOAD PUSH1 0x1 PUSH1 0x1 PUSH1 0xA0 SHL SUB AND DUP4 MSTORE DUP3 ADD SWAP3 SWAP1 SWAP3 MSTORE PUSH1 0x40 ADD SWAP1 KECCAK256 PUSH1 0x1 ADD SLOAD PUSH1 0xFF PUSH1 0x1 PUSH1 0xA0 SHL SWAP1 SWAP2 DIV AND JUMPDEST ISZERO PUSH2 0x163B JUMPI PUSH1 0x3 DUP2 DUP2 SLOAD DUP2 LT PUSH2 0x157F JUMPI PUSH2 0x157F PUSH2 0x1E6D JUMP JUMPDEST SWAP1 PUSH1 0x0 MSTORE PUSH1 0x20 PUSH1 0x0 KECCAK256 ADD PUSH1 0x0 SWAP1 SLOAD SWAP1 PUSH2 0x100 EXP SWAP1 DIV PUSH1 0x1 PUSH1 0x1 PUSH1 0xA0 SHL SUB AND DUP5 DUP4 DUP2 MLOAD DUP2 LT PUSH2 0x15AF JUMPI PUSH2 0x15AF PUSH2 0x1E6D JUMP JUMPDEST PUSH1 0x20 MUL PUSH1 0x20 ADD ADD SWAP1 PUSH1 0x1 PUSH1 0x1 PUSH1 0xA0 SHL SUB AND SWAP1 DUP2 PUSH1 0x1 PUSH1 0x1 PUSH1 0xA0 SHL SUB AND DUP2 MSTORE POP POP PUSH1 0x2 PUSH1 0x0 PUSH1 0x3 DUP4 DUP2 SLOAD DUP2 LT PUSH2 0x15E6 JUMPI PUSH2 0x15E6 PUSH2 0x1E6D JUMP JUMPDEST PUSH1 0x0 SWAP2 DUP3 MSTORE PUSH1 0x20 DUP1 DUP4 KECCAK256 SWAP1 SWAP2 ADD SLOAD PUSH1 0x1 PUSH1 0x1 PUSH1 0xA0 SHL SUB AND DUP4 MSTORE DUP3 ADD SWAP3 SWAP1 SWAP3 MSTORE PUSH1 0x40 ADD SWAP1 KECCAK256 PUSH1 0x7 ADD SLOAD DUP4 MLOAD DUP5 SWAP1 DUP5 SWAP1 DUP2 LT PUSH2 0x1622 JUMPI PUSH2 0x1622 PUSH2 0x1E6D JUMP JUMPDEST PUSH1 0x20 SWAP1 DUP2 MUL SWAP2 SWAP1 SWAP2 ADD ADD MSTORE DUP2 PUSH2 0x1637 DUP2 PUSH2 0x1E99 JUMP JUMPDEST SWAP3 POP POP JUMPDEST PUSH1 0x1 ADD PUSH2 0x14C1 JUMP JUMPDEST POP PUSH1 0x0 JUMPDEST PUSH2 0x1652 PUSH1 0x1 DUP7 PUSH2 0x2015 JUMP JUMPDEST DUP2 LT ISZERO PUSH2 0x1806 JUMPI PUSH1 0x0 JUMPDEST PUSH1 0x1 PUSH2 0x1668 DUP4 DUP9 PUSH2 0x2015 JUMP JUMPDEST PUSH2 0x1672 SWAP2 SWAP1 PUSH2 0x2015 JUMP JUMPDEST DUP2 LT ISZERO PUSH2 0x17FD JUMPI DUP4 PUSH2 0x1685 DUP3 PUSH1 0x1 PUSH2 0x2061 JUMP JUMPDEST DUP2 MLOAD DUP2 LT PUSH2 0x1695 JUMPI PUSH2 0x1695 PUSH2 0x1E6D JUMP JUMPDEST PUSH1 0x20 MUL PUSH1 0x20 ADD ADD MLOAD DUP5 DUP3 DUP2 MLOAD DUP2 LT PUSH2 0x16AF JUMPI PUSH2 0x16AF PUSH2 0x1E6D JUMP JUMPDEST PUSH1 0x20 MUL PUSH1 0x20 ADD ADD MLOAD LT ISZERO PUSH2 0x17F5 JUMPI PUSH1 0x0 DUP5 DUP3 DUP2 MLOAD DUP2 LT PUSH2 0x16D1 JUMPI PUSH2 0x16D1 PUSH2 0x1E6D JUMP JUMPDEST PUSH1 0x20 MUL PUSH1 0x20 ADD ADD MLOAD SWAP1 POP DUP5 DUP3 PUSH1 0x1 PUSH2 0x16E9 SWAP2 SWAP1 PUSH2 0x2061 JUMP JUMPDEST DUP2 MLOAD DUP2 LT PUSH2 0x16F9 JUMPI PUSH2 0x16F9 PUSH2 0x1E6D JUMP JUMPDEST PUSH1 0x20 MUL PUSH1 0x20 ADD ADD MLOAD DUP6 DUP4 DUP2 MLOAD DUP2 LT PUSH2 0x1713 JUMPI PUSH2 0x1713 PUSH2 0x1E6D JUMP JUMPDEST PUSH1 0x20 SWAP1 DUP2 MUL SWAP2 SWAP1 SWAP2 ADD ADD MSTORE DUP1 DUP6 PUSH2 0x172B DUP5 PUSH1 0x1 PUSH2 0x2061 JUMP JUMPDEST DUP2 MLOAD DUP2 LT PUSH2 0x173B JUMPI PUSH2 0x173B PUSH2 0x1E6D JUMP JUMPDEST PUSH1 0x20 MUL PUSH1 0x20 ADD ADD DUP2 DUP2 MSTORE POP POP PUSH1 0x0 DUP7 DUP4 DUP2 MLOAD DUP2 LT PUSH2 0x175B JUMPI PUSH2 0x175B PUSH2 0x1E6D JUMP JUMPDEST PUSH1 0x20 MUL PUSH1 0x20 ADD ADD MLOAD SWAP1 POP DUP7 DUP4 PUSH1 0x1 PUSH2 0x1773 SWAP2 SWAP1 PUSH2 0x2061 JUMP JUMPDEST DUP2 MLOAD DUP2 LT PUSH2 0x1783 JUMPI PUSH2 0x1783 PUSH2 0x1E6D JUMP JUMPDEST PUSH1 0x20 MUL PUSH1 0x20 ADD ADD MLOAD DUP8 DUP5 DUP2 MLOAD DUP2 LT PUSH2 0x179D JUMPI PUSH2 0x179D PUSH2 0x1E6D JUMP JUMPDEST PUSH1 0x1 PUSH1 0x1 PUSH1 0xA0 SHL SUB SWAP1 SWAP3 AND PUSH1 0x20 SWAP3 DUP4 MUL SWAP2 SWAP1 SWAP2 ADD SWAP1 SWAP2 ADD MSTORE DUP1 DUP8 PUSH2 0x17C2 DUP6 PUSH1 0x1 PUSH2 0x2061 JUMP JUMPDEST DUP2 MLOAD DUP2 LT PUSH2 0x17D2 JUMPI PUSH2 0x17D2 PUSH2 0x1E6D JUMP JUMPDEST PUSH1 0x20 MUL PUSH1 0x20 ADD ADD SWAP1 PUSH1 0x1 PUSH1 0x1 PUSH1 0xA0 SHL SUB AND SWAP1 DUP2 PUSH1 0x1 PUSH1 0x1 PUSH1 0xA0 SHL SUB AND DUP2 MSTORE POP POP POP POP JUMPDEST PUSH1 0x1 ADD PUSH2 0x165C JUMP JUMPDEST POP PUSH1 0x1 ADD PUSH2 0x1647 JUMP JUMPDEST POP PUSH1 0x0 DUP8 PUSH8 0xFFFFFFFFFFFFFFFF DUP2 GT ISZERO PUSH2 0x1822 JUMPI PUSH2 0x1822 PUSH2 0x1C29 JUMP JUMPDEST PUSH1 0x40 MLOAD SWAP1 DUP1 DUP3 MSTORE DUP1 PUSH1 0x20 MUL PUSH1 0x20 ADD DUP3 ADD PUSH1 0x40 MSTORE DUP1 ISZERO PUSH2 0x184B JUMPI DUP2 PUSH1 0x20 ADD PUSH1 0x20 DUP3 MUL DUP1 CALLDATASIZE DUP4 CALLDATACOPY ADD SWAP1 POP JUMPDEST POP SWAP1 POP PUSH1 0x0 DUP9 PUSH8 0xFFFFFFFFFFFFFFFF DUP2 GT ISZERO PUSH2 0x1869 JUMPI PUSH2 0x1869 PUSH2 0x1C29 JUMP JUMPDEST PUSH1 0x40 MLOAD SWAP1 DUP1 DUP3 MSTORE DUP1 PUSH1 0x20 MUL PUSH1 0x20 ADD DUP3 ADD PUSH1 0x40 MSTORE DUP1 ISZERO PUSH2 0x1892 JUMPI DUP2 PUSH1 0x20 ADD PUSH1 0x20 DUP3 MUL DUP1 CALLDATASIZE DUP4 CALLDATACOPY ADD SWAP1 POP JUMPDEST POP SWAP1 POP PUSH1 0x0 JUMPDEST DUP10 DUP2 LT ISZERO PUSH2 0x192B JUMPI DUP6 DUP2 DUP2 MLOAD DUP2 LT PUSH2 0x18B2 JUMPI PUSH2 0x18B2 PUSH2 0x1E6D JUMP JUMPDEST PUSH1 0x20 MUL PUSH1 0x20 ADD ADD MLOAD DUP4 DUP3 DUP2 MLOAD DUP2 LT PUSH2 0x18CC JUMPI PUSH2 0x18CC PUSH2 0x1E6D JUMP JUMPDEST PUSH1 0x20 MUL PUSH1 0x20 ADD ADD SWAP1 PUSH1 0x1 PUSH1 0x1 PUSH1 0xA0 SHL SUB AND SWAP1 DUP2 PUSH1 0x1 PUSH1 0x1 PUSH1 0xA0 SHL SUB AND DUP2 MSTORE POP POP DUP5 DUP2 DUP2 MLOAD DUP2 LT PUSH2 0x18FE JUMPI PUSH2 0x18FE PUSH2 0x1E6D JUMP JUMPDEST PUSH1 0x20 MUL PUSH1 0x20 ADD ADD MLOAD DUP3 DUP3 DUP2 MLOAD DUP2 LT PUSH2 0x1918 JUMPI PUSH2 0x1918 PUSH2 0x1E6D JUMP JUMPDEST PUSH1 0x20 SWAP1 DUP2 MUL SWAP2 SWAP1 SWAP2 ADD ADD MSTORE PUSH1 0x1 ADD PUSH2 0x1898 JUMP JUMPDEST POP SWAP1 SWAP9 SWAP1 SWAP8 POP SWAP6 POP POP POP POP POP POP JUMP JUMPDEST PUSH1 0x0 DUP2 DUP2 DUP1 DUP1 DUP1 JUMPDEST DUP5 MLOAD DUP2 LT ISZERO PUSH2 0x1A7E JUMPI DUP5 DUP2 DUP2 MLOAD DUP2 LT PUSH2 0x195D JUMPI PUSH2 0x195D PUSH2 0x1E6D JUMP JUMPDEST ADD PUSH1 0x20 ADD MLOAD PUSH1 0x1 PUSH1 0x1 PUSH1 0xF8 SHL SUB NOT AND PUSH1 0x17 PUSH1 0xF9 SHL SUB PUSH2 0x19CD JUMPI PUSH2 0x1981 DUP3 PUSH1 0x1 PUSH2 0x2061 JUMP JUMPDEST DUP2 EQ DUP1 PUSH2 0x198C JUMPI POP DUP1 ISZERO JUMPDEST ISZERO PUSH2 0x199E JUMPI POP PUSH1 0x0 SWAP7 SWAP6 POP POP POP POP POP POP JUMP JUMPDEST DUP4 PUSH2 0x19A8 DUP2 PUSH2 0x1E99 JUMP JUMPDEST SWAP5 POP POP PUSH1 0x3 DUP5 GT ISZERO PUSH2 0x19C1 JUMPI POP PUSH1 0x0 SWAP7 SWAP6 POP POP POP POP POP POP JUMP JUMPDEST PUSH1 0x0 SWAP3 POP DUP1 SWAP2 POP PUSH2 0x1A76 JUMP JUMPDEST PUSH1 0x30 DUP6 DUP3 DUP2 MLOAD DUP2 LT PUSH2 0x19E1 JUMPI PUSH2 0x19E1 PUSH2 0x1E6D JUMP JUMPDEST ADD PUSH1 0x20 ADD MLOAD PUSH1 0xF8 SHR LT DUP1 PUSH2 0x1A0E JUMPI POP PUSH1 0x39 DUP6 DUP3 DUP2 MLOAD DUP2 LT PUSH2 0x1A04 JUMPI PUSH2 0x1A04 PUSH2 0x1E6D JUMP JUMPDEST ADD PUSH1 0x20 ADD MLOAD PUSH1 0xF8 SHR GT JUMPDEST ISZERO PUSH2 0x1A20 JUMPI POP PUSH1 0x0 SWAP7 SWAP6 POP POP POP POP POP POP JUMP JUMPDEST PUSH1 0x30 DUP6 DUP3 DUP2 MLOAD DUP2 LT PUSH2 0x1A34 JUMPI PUSH2 0x1A34 PUSH2 0x1E6D JUMP JUMPDEST ADD PUSH1 0x20 ADD MLOAD PUSH2 0x1A46 SWAP2 SWAP1 PUSH1 0xF8 SHR PUSH2 0x2074 JUMP JUMPDEST PUSH1 0xFF AND PUSH2 0x1A54 DUP5 PUSH1 0xA PUSH2 0x2028 JUMP JUMPDEST PUSH2 0x1A5E SWAP2 SWAP1 PUSH2 0x2061 JUMP JUMPDEST SWAP3 POP PUSH1 0xFF DUP4 GT ISZERO PUSH2 0x1A76 JUMPI POP PUSH1 0x0 SWAP7 SWAP6 POP POP POP POP POP POP JUMP JUMPDEST PUSH1 0x1 ADD PUSH2 0x1942 JUMP JUMPDEST POP DUP3 PUSH1 0x3 EQ DUP1 ISZERO PUSH2 0x1A99 JUMPI POP PUSH2 0x1A95 DUP2 PUSH1 0x1 PUSH2 0x2061 JUMP JUMPDEST DUP5 MLOAD GT JUMPDEST SWAP7 SWAP6 POP POP POP POP POP POP JUMP JUMPDEST DUP1 CALLDATALOAD PUSH1 0x1 PUSH1 0x1 PUSH1 0xA0 SHL SUB DUP2 AND DUP2 EQ PUSH2 0x1ABA JUMPI PUSH1 0x0 DUP1 REVERT JUMPDEST SWAP2 SWAP1 POP JUMP JUMPDEST PUSH1 0x0 PUSH1 0x20 DUP3 DUP5 SUB SLT ISZERO PUSH2 0x1AD1 JUMPI PUSH1 0x0 DUP1 REVERT JUMPDEST PUSH2 0x1ADA DUP3 PUSH2 0x1AA3 JUMP JUMPDEST SWAP4 SWAP3 POP POP POP JUMP JUMPDEST PUSH1 0x0 DUP2 MLOAD DUP1 DUP5 MSTORE PUSH1 0x0 JUMPDEST DUP2 DUP2 LT ISZERO PUSH2 0x1B07 JUMPI PUSH1 0x20 DUP2 DUP6 ADD DUP2 ADD MLOAD DUP7 DUP4 ADD DUP3 ADD MSTORE ADD PUSH2 0x1AEB JUMP JUMPDEST POP PUSH1 0x0 PUSH1 0x20 DUP3 DUP7 ADD ADD MSTORE PUSH1 0x20 PUSH1 0x1F NOT PUSH1 0x1F DUP4 ADD AND DUP6 ADD ADD SWAP2 POP POP SWAP3 SWAP2 POP POP JUMP JUMPDEST PUSH2 0x140 DUP2 MSTORE PUSH1 0x0 PUSH2 0x1B3C PUSH2 0x140 DUP4 ADD DUP14 PUSH2 0x1AE1 JUMP JUMPDEST PUSH1 0x1 PUSH1 0x1 PUSH1 0xA0 SHL SUB SWAP12 SWAP1 SWAP12 AND PUSH1 0x20 DUP4 ADD MSTORE POP SWAP8 ISZERO ISZERO PUSH1 0x40 DUP10 ADD MSTORE SWAP6 ISZERO ISZERO PUSH1 0x60 DUP9 ADD MSTORE PUSH1 0x80 DUP8 ADD SWAP5 SWAP1 SWAP5 MSTORE PUSH1 0xA0 DUP7 ADD SWAP3 SWAP1 SWAP3 MSTORE PUSH1 0xC0 DUP6 ADD MSTORE PUSH1 0xE0 DUP5 ADD MSTORE PUSH2 0x100 DUP4 ADD MSTORE PUSH2 0x120 SWAP1 SWAP2 ADD MSTORE SWAP2 SWAP1 POP JUMP JUMPDEST PUSH1 0x0 DUP2 MLOAD DUP1 DUP5 MSTORE PUSH1 0x20 DUP5 ADD SWAP4 POP PUSH1 0x20 DUP4 ADD PUSH1 0x0 JUMPDEST DUP3 DUP2 LT ISZERO PUSH2 0x1BC5 JUMPI DUP2 MLOAD PUSH1 0x1 PUSH1 0x1 PUSH1 0xA0 SHL SUB AND DUP7 MSTORE PUSH1 0x20 SWAP6 DUP7 ADD SWAP6 SWAP1 SWAP2 ADD SWAP1 PUSH1 0x1 ADD PUSH2 0x1B9E JUMP JUMPDEST POP SWAP4 SWAP5 SWAP4 POP POP POP POP JUMP JUMPDEST PUSH1 0x20 DUP2 MSTORE PUSH1 0x0 PUSH2 0x1ADA PUSH1 0x20 DUP4 ADD DUP5 PUSH2 0x1B8A JUMP JUMPDEST PUSH1 0xC0 DUP2 MSTORE PUSH1 0x0 PUSH2 0x1BF5 PUSH1 0xC0 DUP4 ADD DUP10 PUSH2 0x1AE1 JUMP JUMPDEST PUSH1 0x1 PUSH1 0x1 PUSH1 0xA0 SHL SUB SWAP8 SWAP1 SWAP8 AND PUSH1 0x20 DUP4 ADD MSTORE POP PUSH1 0x40 DUP2 ADD SWAP5 SWAP1 SWAP5 MSTORE SWAP2 ISZERO ISZERO PUSH1 0x60 DUP5 ADD MSTORE ISZERO ISZERO PUSH1 0x80 DUP4 ADD MSTORE PUSH1 0xA0 SWAP1 SWAP2 ADD MSTORE SWAP2 SWAP1 POP JUMP JUMPDEST PUSH4 0x4E487B71 PUSH1 0xE0 SHL PUSH1 0x0 MSTORE PUSH1 0x41 PUSH1 0x4 MSTORE PUSH1 0x24 PUSH1 0x0 REVERT JUMPDEST PUSH1 0x0 DUP1 PUSH1 0x40 DUP4 DUP6 SUB SLT ISZERO PUSH2 0x1C52 JUMPI PUSH1 0x0 DUP1 REVERT JUMPDEST PUSH2 0x1C5B DUP4 PUSH2 0x1AA3 JUMP JUMPDEST SWAP2 POP PUSH1 0x20 DUP4 ADD CALLDATALOAD PUSH8 0xFFFFFFFFFFFFFFFF DUP2 GT ISZERO PUSH2 0x1C77 JUMPI PUSH1 0x0 DUP1 REVERT JUMPDEST DUP4 ADD PUSH1 0x1F DUP2 ADD DUP6 SGT PUSH2 0x1C88 JUMPI PUSH1 0x0 DUP1 REVERT JUMPDEST DUP1 CALLDATALOAD PUSH8 0xFFFFFFFFFFFFFFFF DUP2 GT ISZERO PUSH2 0x1CA2 JUMPI PUSH2 0x1CA2 PUSH2 0x1C29 JUMP JUMPDEST PUSH1 0x40 MLOAD PUSH1 0x1F DUP3 ADD PUSH1 0x1F NOT SWAP1 DUP2 AND PUSH1 0x3F ADD AND DUP2 ADD PUSH8 0xFFFFFFFFFFFFFFFF DUP2 GT DUP3 DUP3 LT OR ISZERO PUSH2 0x1CD1 JUMPI PUSH2 0x1CD1 PUSH2 0x1C29 JUMP JUMPDEST PUSH1 0x40 MSTORE DUP2 DUP2 MSTORE DUP3 DUP3 ADD PUSH1 0x20 ADD DUP8 LT ISZERO PUSH2 0x1CE9 JUMPI PUSH1 0x0 DUP1 REVERT JUMPDEST DUP2 PUSH1 0x20 DUP5 ADD PUSH1 0x20 DUP4 ADD CALLDATACOPY PUSH1 0x0 PUSH1 0x20 DUP4 DUP4 ADD ADD MSTORE DUP1 SWAP4 POP POP POP POP SWAP3 POP SWAP3 SWAP1 POP JUMP JUMPDEST PUSH1 0x0 DUP1 PUSH1 0x0 DUP1 PUSH1 0x0 PUSH1 0xA0 DUP7 DUP9 SUB SLT ISZERO PUSH2 0x1D21 JUMPI PUSH1 0x0 DUP1 REVERT JUMPDEST PUSH2 0x1D2A DUP7 PUSH2 0x1AA3 JUMP JUMPDEST SWAP8 PUSH1 0x20 DUP8 ADD CALLDATALOAD SWAP8 POP PUSH1 0x40 DUP8 ADD CALLDATALOAD SWAP7 PUSH1 0x60 DUP2 ADD CALLDATALOAD SWAP7 POP PUSH1 0x80 ADD CALLDATALOAD SWAP5 POP SWAP3 POP POP POP JUMP JUMPDEST PUSH1 0x0 PUSH1 0x20 DUP3 DUP5 SUB SLT ISZERO PUSH2 0x1D5D JUMPI PUSH1 0x0 DUP1 REVERT JUMPDEST POP CALLDATALOAD SWAP2 SWAP1 POP JUMP JUMPDEST PUSH1 0x40 DUP2 MSTORE PUSH1 0x0 PUSH2 0x1D77 PUSH1 0x40 DUP4 ADD DUP6 PUSH2 0x1B8A JUMP JUMPDEST DUP3 DUP2 SUB PUSH1 0x20 DUP5 ADD MSTORE DUP1 DUP5 MLOAD DUP1 DUP4 MSTORE PUSH1 0x20 DUP4 ADD SWAP2 POP PUSH1 0x20 DUP7 ADD SWAP3 POP PUSH1 0x0 JUMPDEST DUP2 DUP2 LT ISZERO PUSH2 0x1DB2 JUMPI DUP4 MLOAD DUP4 MSTORE PUSH1 0x20 SWAP4 DUP5 ADD SWAP4 SWAP1 SWAP3 ADD SWAP2 PUSH1 0x1 ADD PUSH2 0x1D94 JUMP JUMPDEST POP SWAP1 SWAP7 SWAP6 POP POP POP POP POP POP JUMP JUMPDEST PUSH1 0x20 DUP1 DUP3 MSTORE PUSH1 0x28 SWAP1 DUP3 ADD MSTORE PUSH32 0x4F6E6C792073757065722061646D696E2063616E20706572666F726D20746869 PUSH1 0x40 DUP3 ADD MSTORE PUSH8 0x399030B1BA34B7B7 PUSH1 0xC1 SHL PUSH1 0x60 DUP3 ADD MSTORE PUSH1 0x80 ADD SWAP1 JUMP JUMPDEST PUSH1 0x1 DUP2 DUP2 SHR SWAP1 DUP3 AND DUP1 PUSH2 0x1E1A JUMPI PUSH1 0x7F DUP3 AND SWAP2 POP JUMPDEST PUSH1 0x20 DUP3 LT DUP2 SUB PUSH2 0x1E3A JUMPI PUSH4 0x4E487B71 PUSH1 0xE0 SHL PUSH1 0x0 MSTORE PUSH1 0x22 PUSH1 0x4 MSTORE PUSH1 0x24 PUSH1 0x0 REVERT JUMPDEST POP SWAP2 SWAP1 POP JUMP JUMPDEST PUSH1 0x20 DUP1 DUP3 MSTORE PUSH1 0x13 SWAP1 DUP3 ADD MSTORE PUSH19 0x139BD91948191BD95CC81B9BDD08195E1A5CDD PUSH1 0x6A SHL PUSH1 0x40 DUP3 ADD MSTORE PUSH1 0x60 ADD SWAP1 JUMP JUMPDEST PUSH4 0x4E487B71 PUSH1 0xE0 SHL PUSH1 0x0 MSTORE PUSH1 0x32 PUSH1 0x4 MSTORE PUSH1 0x24 PUSH1 0x0 REVERT JUMPDEST PUSH4 0x4E487B71 PUSH1 0xE0 SHL PUSH1 0x0 MSTORE PUSH1 0x11 PUSH1 0x4 MSTORE PUSH1 0x24 PUSH1 0x0 REVERT JUMPDEST PUSH1 0x0 PUSH1 0x1 DUP3 ADD PUSH2 0x1EAB JUMPI PUSH2 0x1EAB PUSH2 0x1E83 JUMP JUMPDEST POP PUSH1 0x1 ADD SWAP1 JUMP JUMPDEST PUSH1 0x1F DUP3 GT ISZERO PUSH2 0x1EFC JUMPI DUP1 PUSH1 0x0 MSTORE PUSH1 0x20 PUSH1 0x0 KECCAK256 PUSH1 0x1F DUP5 ADD PUSH1 0x5 SHR DUP2 ADD PUSH1 0x20 DUP6 LT ISZERO PUSH2 0x1ED9 JUMPI POP DUP1 JUMPDEST PUSH1 0x1F DUP5 ADD PUSH1 0x5 SHR DUP3 ADD SWAP2 POP JUMPDEST DUP2 DUP2 LT ISZERO PUSH2 0x1EF9 JUMPI PUSH1 0x0 DUP2 SSTORE PUSH1 0x1 ADD PUSH2 0x1EE5 JUMP JUMPDEST POP POP JUMPDEST POP POP POP JUMP JUMPDEST DUP2 MLOAD PUSH8 0xFFFFFFFFFFFFFFFF DUP2 GT ISZERO PUSH2 0x1F1B JUMPI PUSH2 0x1F1B PUSH2 0x1C29 JUMP JUMPDEST PUSH2 0x1F2F DUP2 PUSH2 0x1F29 DUP5 SLOAD PUSH2 0x1E06 JUMP JUMPDEST DUP5 PUSH2 0x1EB2 JUMP JUMPDEST PUSH1 0x20 PUSH1 0x1F DUP3 GT PUSH1 0x1 DUP2 EQ PUSH2 0x1F63 JUMPI PUSH1 0x0 DUP4 ISZERO PUSH2 0x1F4B JUMPI POP DUP5 DUP3 ADD MLOAD JUMPDEST PUSH1 0x0 NOT PUSH1 0x3 DUP6 SWAP1 SHL SHR NOT AND PUSH1 0x1 DUP5 SWAP1 SHL OR DUP5 SSTORE PUSH2 0x1EF9 JUMP JUMPDEST PUSH1 0x0 DUP5 DUP2 MSTORE PUSH1 0x20 DUP2 KECCAK256 PUSH1 0x1F NOT DUP6 AND SWAP2 JUMPDEST DUP3 DUP2 LT ISZERO PUSH2 0x1F93 JUMPI DUP8 DUP6 ADD MLOAD DUP3 SSTORE PUSH1 0x20 SWAP5 DUP6 ADD SWAP5 PUSH1 0x1 SWAP1 SWAP3 ADD SWAP2 ADD PUSH2 0x1F73 JUMP JUMPDEST POP DUP5 DUP3 LT ISZERO PUSH2 0x1FB1 JUMPI DUP7 DUP5 ADD MLOAD PUSH1 0x0 NOT PUSH1 0x3 DUP8 SWAP1 SHL PUSH1 0xF8 AND SHR NOT AND DUP2 SSTORE JUMPDEST POP POP POP POP PUSH1 0x1 SWAP1 DUP2 SHL ADD SWAP1 SSTORE POP JUMP JUMPDEST PUSH1 0x20 DUP2 MSTORE PUSH1 0x0 PUSH2 0x1ADA PUSH1 0x20 DUP4 ADD DUP5 PUSH2 0x1AE1 JUMP JUMPDEST PUSH1 0x20 DUP1 DUP3 MSTORE PUSH1 0x22 SWAP1 DUP3 ADD MSTORE PUSH32 0x4F6E6C792061646D696E2063616E20706572666F726D20746869732061637469 PUSH1 0x40 DUP3 ADD MSTORE PUSH2 0x37B7 PUSH1 0xF1 SHL PUSH1 0x60 DUP3 ADD MSTORE PUSH1 0x80 ADD SWAP1 JUMP JUMPDEST DUP2 DUP2 SUB DUP2 DUP2 GT ISZERO PUSH2 0x530 JUMPI PUSH2 0x530 PUSH2 0x1E83 JUMP JUMPDEST DUP1 DUP3 MUL DUP2 ISZERO DUP3 DUP3 DIV DUP5 EQ OR PUSH2 0x530 JUMPI PUSH2 0x530 PUSH2 0x1E83 JUMP JUMPDEST PUSH1 0x0 DUP3 PUSH2 0x205C JUMPI PUSH4 0x4E487B71 PUSH1 0xE0 SHL PUSH1 0x0 MSTORE PUSH1 0x12 PUSH1 0x4 MSTORE PUSH1 0x24 PUSH1 0x0 REVERT JUMPDEST POP DIV SWAP1 JUMP JUMPDEST DUP1 DUP3 ADD DUP1 DUP3 GT ISZERO PUSH2 0x530 JUMPI PUSH2 0x530 PUSH2 0x1E83 JUMP JUMPDEST PUSH1 0xFF DUP3 DUP2 AND DUP3 DUP3 AND SUB SWAP1 DUP2 GT ISZERO PUSH2 0x530 JUMPI PUSH2 0x530 PUSH2 0x1E83 JUMP INVALID LOG2 PUSH5 0x6970667358 0x22 SLT KECCAK256 PUSH28 0xC1A0792CD2A44E6B10024555498C79F13454F8CD308CA597CBBDFEA7 PUSH21 0xFA9264736F6C634300081C00330000000000000000 "
        },
        "methodIdentifiers": {
          "addAdmin(address)": "70480275",
          "admin()": "f851a440",
          "admins(address)": "429b62e5",
          "approveNode(address)": "dd4c97a0",
          "deactivateNode(address)": "65814455",
          "getActiveNodes()": "6b51e919",
          "getBestNode()": "9ba446c9",
          "getNodeDetails(address)": "bafb3581",
          "getTopNodes(uint256)": "e243eaf0",
          "isAdmin(address)": "24d7806c",
          "nodeAddresses(uint256)": "c4d77090",
          "nodes(address)": "189a5a17",
          "registerNode(address,string)": "bb9b342d",
          "registeredNodes(address)": "d3d1fb48",
          "removeAdmin(address)": "1785f53c",
          "updateNodeMetrics(address,uint256,uint256,uint256,uint256)": "c4adf54b"
        }
      }
    }
  }
}