{
  "_format": "hh-sol-artifact-1",
  "contractName": "VPNRegistry",
  "sourceName": "contracts/VPNRegistry.sol",
  "abi": [
    {
      "inputs": [
        {
          "internalType": "address",
          "name": "_vpnSubscriptionContract",
          "type": "address"
        }
      ],
      "stateMutability": "nonpayable",
      "type": "constructor"
    },
    {
      "anonymous": false,
      "inputs": [
        {
          "indexed": true,
          "internalType": "address",
          "name": "newAdmin",
          "type": "address"
        }
      ],
      "name": "AdminAdded",
      "type": "event"
    },
    {
      "anonymous": false,
      "inputs": [
        {
          "indexed": true,
          "internalType": "address",
          "name": "removedAdmin",
          "type": "address"
        }
      ],
      "name": "AdminRemoved",
      "type": "event"
    },
    {
      "anonymous": false,
      "inputs": [
        {
          "indexed": true,
          "internalType": "address",
          "name": "nodeAddress",
          "type": "address"
        },
        {
          "indexed": false,
          "internalType": "uint256",
          "name": "latency",
          "type": "uint256"
        },
        {
          "indexed": false,
          "internalType": "uint256",
          "name": "bandwidth",
          "type": "uint256"
        },
        {
          "indexed": false,
          "internalType": "uint256",
          "name": "uptime",
          "type": "uint256"
        },
        {
          "indexed": false,
          "internalType": "uint256",
          "name": "reliability",
          "type": "uint256"
        },
        {
          "indexed": false,
          "internalType": "uint256",
          "name": "totalScore",
          "type": "uint256"
        }
      ],
      "name": "MetricsUpdated",
      "type": "event"
    },
    {
      "anonymous": false,
      "inputs": [
        {
          "indexed": true,
          "internalType": "address",
          "name": "nodeAddress",
          "type": "address"
        }
      ],
      "name": "NodeApproved",
      "type": "event"
    },
    {
      "anonymous": false,
      "inputs": [
        {
          "indexed": true,
          "internalType": "address",
          "name": "nodeAddress",
          "type": "address"
        }
      ],
      "name": "NodeDeactivated",
      "type": "event"
    },
    {
      "anonymous": false,
      "inputs": [
        {
          "indexed": true,
          "internalType": "address",
          "name": "nodeAddress",
          "type": "address"
        },
        {
          "indexed": false,
          "internalType": "string",
          "name": "ipAddress",
          "type": "string"
        },
        {
          "indexed": true,
          "internalType": "address",
          "name": "owner",
          "type": "address"
        }
      ],
      "name": "NodeRegistered",
      "type": "event"
    },
    {
      "inputs": [
        {
          "internalType": "address",
          "name": "newAdmin",
          "type": "address"
        }
      ],
      "name": "addAdmin",
      "outputs": [],
      "stateMutability": "nonpayable",
      "type": "function"
    },
    {
      "inputs": [],
      "name": "admin",
      "outputs": [
        {
          "internalType": "address",
          "name": "",
          "type": "address"
        }
      ],
      "stateMutability": "view",
      "type": "function"
    },
    {
      "inputs": [
        {
          "internalType": "address",
          "name": "",
          "type": "address"
        }
      ],
      "name": "admins",
      "outputs": [
        {
          "internalType": "bool",
          "name": "",
          "type": "bool"
        }
      ],
      "stateMutability": "view",
      "type": "function"
    },
    {
      "inputs": [
        {
          "internalType": "address",
          "name": "nodeAddress",
          "type": "address"
        }
      ],
      "name": "approveNode",
      "outputs": [],
      "stateMutability": "nonpayable",
      "type": "function"
    },
    {
      "inputs": [
        {
          "internalType": "uint256",
          "name": "tokenId",
          "type": "uint256"
        }
      ],
      "name": "canAccessNodes",
      "outputs": [
        {
          "internalType": "bool",
          "name": "",
          "type": "bool"
        }
      ],
      "stateMutability": "view",
      "type": "function"
    },
    {
      "inputs": [
        {
          "internalType": "address",
          "name": "nodeAddress",
          "type": "address"
        }
      ],
      "name": "deactivateNode",
      "outputs": [],
      "stateMutability": "nonpayable",
      "type": "function"
    },
    {
      "inputs": [],
      "name": "getActiveNodes",
      "outputs": [
        {
          "internalType": "address[]",
          "name": "",
          "type": "address[]"
        }
      ],
      "stateMutability": "view",
      "type": "function"
    },
    {
      "inputs": [],
      "name": "getBestNode",
      "outputs": [
        {
          "internalType": "address",
          "name": "",
          "type": "address"
        },
        {
          "internalType": "uint256",
          "name": "",
          "type": "uint256"
        }
      ],
      "stateMutability": "view",
      "type": "function"
    },
    {
      "inputs": [
        {
          "internalType": "address",
          "name": "nodeAddress",
          "type": "address"
        }
      ],
      "name": "getNodeDetails",
      "outputs": [
        {
          "internalType": "string",
          "name": "",
          "type": "string"
        },
        {
          "internalType": "address",
          "name": "",
          "type": "address"
        },
        {
          "internalType": "uint256",
          "name": "",
          "type": "uint256"
        },
        {
          "internalType": "bool",
          "name": "",
          "type": "bool"
        },
        {
          "internalType": "bool",
          "name": "",
          "type": "bool"
        },
        {
          "internalType": "uint256",
          "name": "",
          "type": "uint256"
        }
      ],
      "stateMutability": "view",
      "type": "function"
    },
    {
      "inputs": [
        {
          "internalType": "uint256",
          "name": "count",
          "type": "uint256"
        }
      ],
      "name": "getTopNodes",
      "outputs": [
        {
          "internalType": "address[]",
          "name": "",
          "type": "address[]"
        },
        {
          "internalType": "uint256[]",
          "name": "",
          "type": "uint256[]"
        }
      ],
      "stateMutability": "view",
      "type": "function"
    },
    {
      "inputs": [
        {
          "internalType": "address",
          "name": "account",
          "type": "address"
        }
      ],
      "name": "isAdmin",
      "outputs": [
        {
          "internalType": "bool",
          "name": "",
          "type": "bool"
        }
      ],
      "stateMutability": "view",
      "type": "function"
    },
    {
      "inputs": [
        {
          "internalType": "uint256",
          "name": "",
          "type": "uint256"
        }
      ],
      "name": "nodeAddresses",
      "outputs": [
        {
          "internalType": "address",
          "name": "",
          "type": "address"
        }
      ],
      "stateMutability": "view",
      "type": "function"
    },
    {
      "inputs": [
        {
          "internalType": "address",
          "name": "",
          "type": "address"
        }
      ],
      "name": "nodes",
      "outputs": [
        {
          "internalType": "string",
          "name": "ipAddress",
          "type": "string"
        },
        {
          "internalType": "address",
          "name": "owner",
          "type": "address"
        },
        {
          "internalType": "bool",
          "name": "isApproved",
          "type": "bool"
        },
        {
          "internalType": "bool",
          "name": "isActive",
          "type": "bool"
        },
        {
          "internalType": "uint256",
          "name": "timestamp",
          "type": "uint256"
        },
        {
          "internalType": "uint256",
          "name": "latency",
          "type": "uint256"
        },
        {
          "internalType": "uint256",
          "name": "bandwidth",
          "type": "uint256"
        },
        {
          "internalType": "uint256",
          "name": "uptime",
          "type": "uint256"
        },
        {
          "internalType": "uint256",
          "name": "reliability",
          "type": "uint256"
        },
        {
          "internalType": "uint256",
          "name": "totalScore",
          "type": "uint256"
        }
      ],
      "stateMutability": "view",
      "type": "function"
    },
    {
      "inputs": [
        {
          "internalType": "address",
          "name": "nodeAddress",
          "type": "address"
        },
        {
          "internalType": "string",
          "name": "ipAddress",
          "type": "string"
        }
      ],
      "name": "registerNode",
      "outputs": [],
      "stateMutability": "nonpayable",
      "type": "function"
    },
    {
      "inputs": [
        {
          "internalType": "address",
          "name": "",
          "type": "address"
        }
      ],
      "name": "registeredNodes",
      "outputs": [
        {
          "internalType": "bool",
          "name": "",
          "type": "bool"
        }
      ],
      "stateMutability": "view",
      "type": "function"
    },
    {
      "inputs": [
        {
          "internalType": "address",
          "name": "adminToRemove",
          "type": "address"
        }
      ],
      "name": "removeAdmin",
      "outputs": [],
      "stateMutability": "nonpayable",
      "type": "function"
    },
    {
      "inputs": [
        {
          "internalType": "address",
          "name": "nodeAddress",
          "type": "address"
        },
        {
          "internalType": "uint256",
          "name": "_latency",
          "type": "uint256"
        },
        {
          "internalType": "uint256",
          "name": "_bandwidth",
          "type": "uint256"
        },
        {
          "internalType": "uint256",
          "name": "_uptime",
          "type": "uint256"
        },
        {
          "internalType": "uint256",
          "name": "_reliability",
          "type": "uint256"
        }
      ],
      "name": "updateNodeMetrics",
      "outputs": [],
      "stateMutability": "nonpayable",
      "type": "function"
    },
    {
      "inputs": [],
      "name": "vpnSubscriptionContract",
      "outputs": [
        {
          "internalType": "address",
          "name": "",
          "type": "address"
        }
      ],
      "stateMutability": "view",
      "type": "function"
    }
  ],
  "bytecode": "0x608060405234801561001057600080fd5b506040516122a23803806122a283398101604081905261002f916100d4565b6001600160a01b0381166100895760405162461bcd60e51b815260206004820152601d60248201527f496e76616c696420737562736372697074696f6e20636f6e7472616374000000604482015260640160405180910390fd5b60008054336001600160a01b031991821681178355825260026020526040909120805460ff1916600190811790915580549091166001600160a01b0392909216919091179055610104565b6000602082840312156100e657600080fd5b81516001600160a01b03811681146100fd57600080fd5b9392505050565b61218f806101136000396000f3fe608060405234801561001057600080fd5b50600436106101165760003560e01c80639ba446c9116100a2578063c4d7709011610071578063c4d7709014610293578063d3d1fb48146102a6578063dd4c97a0146102c9578063e243eaf0146102dc578063f851a440146102fd57600080fd5b80639ba446c914610221578063bafb358114610248578063bb9b342d1461026d578063c4adf54b1461028057600080fd5b806365814455116100e957806365814455146101a85780636b51e919146101bb57806370480275146101d057806389ec3845146101e35780639652dea41461020e57600080fd5b80631785f53c1461011b578063189a5a171461013057806324d7806c14610162578063429b62e514610185575b600080fd5b61012e610129366004611b70565b610310565b005b61014361013e366004611b70565b610452565b6040516101599a99989796959493929190611bd1565b60405180910390f35b610175610170366004611b70565b610537565b6040519015158152602001610159565b610175610193366004611b70565b60026020526000908152604090205460ff1681565b61012e6101b6366004611b70565b610572565b6101c361068d565b6040516101599190611c79565b61012e6101de366004611b70565b6108c5565b6001546101f6906001600160a01b031681565b6040516001600160a01b039091168152602001610159565b61017561021c366004611c8c565b6109ec565b610229610a63565b604080516001600160a01b039093168352602083019190915201610159565b61025b610256366004611b70565b610be1565b60405161015996959493929190611ca5565b61012e61027b366004611d02565b610d8e565b61012e61028e366004611dcc565b611048565b6101f66102a1366004611c8c565b6112bb565b6101756102b4366004611b70565b60056020526000908152604090205460ff1681565b61012e6102d7366004611b70565b6112e5565b6102ef6102ea366004611c8c565b6113bb565b604051610159929190611e0e565b6000546101f6906001600160a01b031681565b6000546001600160a01b031633146103435760405162461bcd60e51b815260040161033a90611e68565b60405180910390fd5b6000546001600160a01b03908116908216036103a15760405162461bcd60e51b815260206004820152601960248201527f43616e6e6f742072656d6f76652073757065722061646d696e00000000000000604482015260640161033a565b6001600160a01b03811660009081526002602052604090205460ff166104095760405162461bcd60e51b815260206004820152601760248201527f41646472657373206973206e6f7420616e2061646d696e000000000000000000604482015260640161033a565b6001600160a01b038116600081815260026020526040808220805460ff19169055517fa3b62bc36326052d97ea62d63c3d60308ed4c3ea8ac079dd8499f1e9c4f80c0f9190a250565b60036020526000908152604090208054819061046d90611eb0565b80601f016020809104026020016040519081016040528092919081815260200182805461049990611eb0565b80156104e65780601f106104bb576101008083540402835291602001916104e6565b820191906000526020600020905b8154815290600101906020018083116104c957829003601f168201915b5050505060018301546002840154600385015460048601546005870154600688015460079098015496976001600160a01b0386169760ff600160a01b880481169850600160a81b909704909616958a565b600080546001600160a01b038381169116148061056c57506001600160a01b03821660009081526002602052604090205460ff165b92915050565b6001600160a01b038116600090815260056020526040902054819060ff166105ac5760405162461bcd60e51b815260040161033a90611eea565b6000546001600160a01b03163314806105e157506001600160a01b038281166000908152600360205260409020600101541633145b61063d5760405162461bcd60e51b815260206004820152602760248201527f4f6e6c792061646d696e206f72206e6f6465206f776e65722063616e206465616044820152666374697661746560c81b606482015260840161033a565b6001600160a01b038216600081815260036020526040808220600101805460ff60a81b19169055517fd9957750e6343405c319eb99a4ec67fa11cfd66969318cbc71aa2d45fa53a3499190a25050565b60606000805b6004548110156107545760036000600483815481106106b4576106b4611f17565b60009182526020808320909101546001600160a01b0316835282019290925260400190206001015460ff600160a81b9091041680156107395750600360006004838154811061070557610705611f17565b60009182526020808320909101546001600160a01b0316835282019290925260400190206001015460ff600160a01b909104165b1561074c578161074881611f43565b9250505b600101610693565b5060008167ffffffffffffffff81111561077057610770611cec565b604051908082528060200260200182016040528015610799578160200160208202803683370190505b5090506000805b6004548110156108bc5760036000600483815481106107c1576107c1611f17565b60009182526020808320909101546001600160a01b0316835282019290925260400190206001015460ff600160a81b9091041680156108465750600360006004838154811061081257610812611f17565b60009182526020808320909101546001600160a01b0316835282019290925260400190206001015460ff600160a01b909104165b156108b4576004818154811061085e5761085e611f17565b9060005260206000200160009054906101000a90046001600160a01b031683838151811061088e5761088e611f17565b6001600160a01b0390921660209283029190910190910152816108b081611f43565b9250505b6001016107a0565b50909392505050565b6000546001600160a01b031633146108ef5760405162461bcd60e51b815260040161033a90611e68565b6001600160a01b0381166109375760405162461bcd60e51b815260206004820152600f60248201526e496e76616c6964206164647265737360881b604482015260640161033a565b6001600160a01b03811660009081526002602052604090205460ff16156109a05760405162461bcd60e51b815260206004820152601b60248201527f4164647265737320697320616c726561647920616e2061646d696e0000000000604482015260640161033a565b6001600160a01b038116600081815260026020526040808220805460ff19166001179055517f44d6d25963f097ad14f29f06854a01f575648a1ef82f30e562ccd3889717e3399190a250565b6001546040516357e2c0f560e01b8152600481018390526000916001600160a01b03169081906357e2c0f590602401602060405180830381865afa158015610a38573d6000803e3d6000fd5b505050506040513d601f19601f82011682018060405250810190610a5c9190611f5c565b9392505050565b6004546000908190610aad5760405162461bcd60e51b8152602060048201526013602482015272139bc81b9bd9195cc81c9959da5cdd195c9959606a1b604482015260640161033a565b600080805b600454811015610b8957600060048281548110610ad157610ad1611f17565b60009182526020808320909101546001600160a01b0316808352600390915260409091206001015490915060ff600160a81b909104168015610b3557506001600160a01b038116600090815260036020526040902060010154600160a01b900460ff165b15610b80576001600160a01b038116600090815260036020526040902060070154831015610b80576001600160a01b0381166000908152600360205260409020600701549093509150825b50600101610ab2565b506001600160a01b038216610bd85760405162461bcd60e51b8152602060048201526015602482015274139bc81858dd1a5d99481b9bd9195cc8199bdd5b99605a1b604482015260640161033a565b90939092509050565b6001600160a01b038116600090815260056020526040812054606091908190819081908190879060ff16610c275760405162461bcd60e51b815260040161033a90611eea565b6001600160a01b03881660009081526003602052604080822081516101408101909252805482908290610c5990611eb0565b80601f0160208091040260200160405190810160405280929190818152602001828054610c8590611eb0565b8015610cd25780601f10610ca757610100808354040283529160200191610cd2565b820191906000526020600020905b815481529060010190602001808311610cb557829003601f168201915b505050918352505060018201546001600160a01b03811660208084019190915260ff600160a01b830481161515604080860191909152600160a81b9093041615156060808501919091526002850154608080860191909152600386015460a0860152600486015460c0860152600586015460e08601526006860154610100860152600790950154610120948501528551918601519386015192860151908601519590940151909e929d50909b5091995091975095509350505050565b6001600160a01b03821660009081526005602052604090205460ff1615610df75760405162461bcd60e51b815260206004820152601760248201527f4e6f646520616c72656164792072656769737465726564000000000000000000604482015260640161033a565b6000815111610e485760405162461bcd60e51b815260206004820152601a60248201527f495020616464726573732063616e6e6f7420626520656d707479000000000000604482015260640161033a565b610e51816119eb565b610e9d5760405162461bcd60e51b815260206004820152601960248201527f496e76616c6964204950206164647265737320666f726d617400000000000000604482015260640161033a565b60408051610140810182528281523360208083019190915260008284018190526060830181905242608084015260a0830181905260c08301819052606460e0840152610100830181905261012083018190526001600160a01b038616815260039091529190912081518190610f129082611fcd565b506020828101516001808401805460408088015160608901511515600160a81b0260ff60a81b19911515600160a01b026001600160a81b03199094166001600160a01b03978816179390931716919091179091556080860151600286015560a0860151600386015560c086015160048087019190915560e087015160058088019190915561010088015160068801556101209097015160079096019590955584548083019095557f8a35acfbc15ff81a39ae7d344fd709f28e8600b4aa8c65c6b64bfe7fe36bd19b90940180549288166001600160a01b0319939093168317905560008281529490925292829020805460ff19169091179055513391907f604fb8f4b294861db7a506d41733c6d2b284bfc584623f6142eaca0d83a47c029061103c90859061208c565b60405180910390a35050565b6000546001600160a01b031633148061107057503360009081526002602052604090205460ff165b61108c5760405162461bcd60e51b815260040161033a9061209f565b6001600160a01b038516600090815260056020526040902054859060ff166110c65760405162461bcd60e51b815260040161033a90611eea565b606483111561110f5760405162461bcd60e51b81526020600482015260156024820152740557074696d65206d757374206265203c3d2031303605c1b604482015260640161033a565b60648211156111605760405162461bcd60e51b815260206004820152601a60248201527f52656c696162696c697479206d757374206265203c3d20313030000000000000604482015260640161033a565b6001600160a01b03861660009081526003602081905260408220908101879055600481018690556005810185905560068101849055906103e887116111c6576103e86111ac88826120e1565b6111b79060646120f4565b6111c1919061210b565b6111c9565b60005b905060006103e887116111f3576103e86111e48860646120f4565b6111ee919061210b565b6111f6565b60645b905060646112058660146120f4565b6112108860196120f4565b61121b8460196120f4565b61122686601e6120f4565b611230919061212d565b61123a919061212d565b611244919061212d565b61124e919061210b565b60078401819055604080518a8152602081018a90529081018890526060810187905260808101919091526001600160a01b038a16907fd7f22bbfa2524e6e308b151c736e5b453ab2d8fa59fa8d2d46d0f2bf5362899a9060a00160405180910390a2505050505050505050565b600481815481106112cb57600080fd5b6000918252602090912001546001600160a01b0316905081565b6000546001600160a01b031633148061130d57503360009081526002602052604090205460ff165b6113295760405162461bcd60e51b815260040161033a9061209f565b6001600160a01b038116600090815260056020526040902054819060ff166113635760405162461bcd60e51b815260040161033a90611eea565b6001600160a01b038216600081815260036020526040808220600101805461ffff60a01b191661010160a01b179055517fc3d551ebc292891a4293fa7e08efe31a4abb41022df997ed0025b244902ff5bd9190a25050565b6060806000831161140e5760405162461bcd60e51b815260206004820152601c60248201527f436f756e74206d7573742062652067726561746572207468616e203000000000604482015260640161033a565b6000805b6004548110156114d357600360006004838154811061143357611433611f17565b60009182526020808320909101546001600160a01b0316835282019290925260400190206001015460ff600160a81b9091041680156114b85750600360006004838154811061148457611484611f17565b60009182526020808320909101546001600160a01b0316835282019290925260400190206001015460ff600160a01b909104165b156114cb57816114c781611f43565b9250505b600101611412565b50808411156114e0578093505b60008167ffffffffffffffff8111156114fb576114fb611cec565b604051908082528060200260200182016040528015611524578160200160208202803683370190505b50905060008267ffffffffffffffff81111561154257611542611cec565b60405190808252806020026020018201604052801561156b578160200160208202803683370190505b5090506000805b6004548110156116f457600360006004838154811061159357611593611f17565b60009182526020808320909101546001600160a01b0316835282019290925260400190206001015460ff600160a81b909104168015611618575060036000600483815481106115e4576115e4611f17565b60009182526020808320909101546001600160a01b0316835282019290925260400190206001015460ff600160a01b909104165b156116ec576004818154811061163057611630611f17565b9060005260206000200160009054906101000a90046001600160a01b031684838151811061166057611660611f17565b60200260200101906001600160a01b031690816001600160a01b031681525050600360006004838154811061169757611697611f17565b60009182526020808320909101546001600160a01b0316835282019290925260400190206007015483518490849081106116d3576116d3611f17565b6020908102919091010152816116e881611f43565b9250505b600101611572565b5060005b6117036001866120e1565b8110156118b75760005b600161171983886120e1565b61172391906120e1565b8110156118ae578361173682600161212d565b8151811061174657611746611f17565b602002602001015184828151811061176057611760611f17565b602002602001015110156118a657600084828151811061178257611782611f17565b602002602001015190508482600161179a919061212d565b815181106117aa576117aa611f17565b60200260200101518583815181106117c4576117c4611f17565b602090810291909101015280856117dc84600161212d565b815181106117ec576117ec611f17565b602002602001018181525050600086838151811061180c5761180c611f17565b6020026020010151905086836001611824919061212d565b8151811061183457611834611f17565b602002602001015187848151811061184e5761184e611f17565b6001600160a01b0390921660209283029190910190910152808761187385600161212d565b8151811061188357611883611f17565b60200260200101906001600160a01b031690816001600160a01b03168152505050505b60010161170d565b506001016116f8565b5060008767ffffffffffffffff8111156118d3576118d3611cec565b6040519080825280602002602001820160405280156118fc578160200160208202803683370190505b50905060008867ffffffffffffffff81111561191a5761191a611cec565b604051908082528060200260200182016040528015611943578160200160208202803683370190505b50905060005b898110156119dc5785818151811061196357611963611f17565b602002602001015183828151811061197d5761197d611f17565b60200260200101906001600160a01b031690816001600160a01b0316815250508481815181106119af576119af611f17565b60200260200101518282815181106119c9576119c9611f17565b6020908102919091010152600101611949565b50909890975095505050505050565b600081818080805b8451811015611b2f57848181518110611a0e57611a0e611f17565b01602001516001600160f81b031916601760f91b03611a7e57611a3282600161212d565b811480611a3d575080155b15611a4f575060009695505050505050565b83611a5981611f43565b9450506003841115611a72575060009695505050505050565b60009250809150611b27565b6030858281518110611a9257611a92611f17565b016020015160f81c1080611abf57506039858281518110611ab557611ab5611f17565b016020015160f81c115b15611ad1575060009695505050505050565b6030858281518110611ae557611ae5611f17565b0160200151611af7919060f81c612140565b60ff16611b0584600a6120f4565b611b0f919061212d565b925060ff831115611b27575060009695505050505050565b6001016119f3565b50826003148015611b4a5750611b4681600161212d565b8451115b9695505050505050565b80356001600160a01b0381168114611b6b57600080fd5b919050565b600060208284031215611b8257600080fd5b610a5c82611b54565b6000815180845260005b81811015611bb157602081850181015186830182015201611b95565b506000602082860101526020601f19601f83011685010191505092915050565b61014081526000611be661014083018d611b8b565b6001600160a01b039b909b1660208301525097151560408901529515156060880152608087019490945260a086019290925260c085015260e084015261010083015261012090910152919050565b600081518084526020840193506020830160005b82811015611c6f5781516001600160a01b0316865260209586019590910190600101611c48565b5093949350505050565b602081526000610a5c6020830184611c34565b600060208284031215611c9e57600080fd5b5035919050565b60c081526000611cb860c0830189611b8b565b6001600160a01b0397909716602083015250604081019490945291151560608401521515608083015260a090910152919050565b634e487b7160e01b600052604160045260246000fd5b60008060408385031215611d1557600080fd5b611d1e83611b54565b9150602083013567ffffffffffffffff811115611d3a57600080fd5b8301601f81018513611d4b57600080fd5b803567ffffffffffffffff811115611d6557611d65611cec565b604051601f8201601f19908116603f0116810167ffffffffffffffff81118282101715611d9457611d94611cec565b604052818152828201602001871015611dac57600080fd5b816020840160208301376000602083830101528093505050509250929050565b600080600080600060a08688031215611de457600080fd5b611ded86611b54565b97602087013597506040870135966060810135965060800135945092505050565b604081526000611e216040830185611c34565b828103602084015280845180835260208301915060208601925060005b81811015611e5c578351835260209384019390920191600101611e3e565b50909695505050505050565b60208082526028908201527f4f6e6c792073757065722061646d696e2063616e20706572666f726d20746869604082015267399030b1ba34b7b760c11b606082015260800190565b600181811c90821680611ec457607f821691505b602082108103611ee457634e487b7160e01b600052602260045260246000fd5b50919050565b602080825260139082015272139bd91948191bd95cc81b9bdd08195e1a5cdd606a1b604082015260600190565b634e487b7160e01b600052603260045260246000fd5b634e487b7160e01b600052601160045260246000fd5b600060018201611f5557611f55611f2d565b5060010190565b600060208284031215611f6e57600080fd5b81518015158114610a5c57600080fd5b601f821115611fc857806000526020600020601f840160051c81016020851015611fa55750805b601f840160051c820191505b81811015611fc55760008155600101611fb1565b50505b505050565b815167ffffffffffffffff811115611fe757611fe7611cec565b611ffb81611ff58454611eb0565b84611f7e565b6020601f82116001811461202f57600083156120175750848201515b600019600385901b1c1916600184901b178455611fc5565b600084815260208120601f198516915b8281101561205f578785015182556020948501946001909201910161203f565b508482101561207d5786840151600019600387901b60f8161c191681555b50505050600190811b01905550565b602081526000610a5c6020830184611b8b565b60208082526022908201527f4f6e6c792061646d696e2063616e20706572666f726d2074686973206163746960408201526137b760f11b606082015260800190565b8181038181111561056c5761056c611f2d565b808202811582820484141761056c5761056c611f2d565b60008261212857634e487b7160e01b600052601260045260246000fd5b500490565b8082018082111561056c5761056c611f2d565b60ff828116828216039081111561056c5761056c611f2d56fea2646970667358221220bf39baaa39a8f603b8723d3f9f184e835622c512f213c51b3180e90c7833ff5364736f6c634300081c0033",
  "linkReferences": {},
  "deployedLinkReferences": {}
}