{
  "_format": "hh-sol-artifact-1",
  "contractName": "VPNSubscription",
  "sourceName": "contracts/VPNSubscription.sol",
  "abi": [
    {
      "inputs": [],
      "stateMutability": "nonpayable",
      "type": "constructor"
    },
    {
      "anonymous": false,
      "inputs": [
        {
          "indexed": true,
          "internalType": "address",
          "name": "owner",
          "type": "address"
        },
        {
          "indexed": true,
          "internalType": "address",
          "name": "approved",
          "type": "address"
        },
        {
          "indexed": true,
          "internalType": "uint256",
          "name": "tokenId",
          "type": "uint256"
        }
      ],
      "name": "Approval",
      "type": "event"
    },
    {
      "anonymous": false,
      "inputs": [
        {
          "indexed": true,
          "internalType": "address",
          "name": "owner",
          "type": "address"
        },
        {
          "indexed": true,
          "internalType": "address",
          "name": "operator",
          "type": "address"
        },
        {
          "indexed": false,
          "internalType": "bool",
          "name": "approved",
          "type": "bool"
        }
      ],
      "name": "ApprovalForAll",
      "type": "event"
    },
    {
      "anonymous": false,
      "inputs": [
        {
          "indexed": true,
          "internalType": "address",
          "name": "previousOwner",
          "type": "address"
        },
        {
          "indexed": true,
          "internalType": "address",
          "name": "newOwner",
          "type": "address"
        }
      ],
      "name": "OwnershipTransferred",
      "type": "event"
    },
    {
      "anonymous": false,
      "inputs": [
        {
          "indexed": true,
          "internalType": "address",
          "name": "from",
          "type": "address"
        },
        {
          "indexed": true,
          "internalType": "address",
          "name": "to",
          "type": "address"
        },
        {
          "indexed": true,
          "internalType": "uint256",
          "name": "tokenId",
          "type": "uint256"
        }
      ],
      "name": "Transfer",
      "type": "event"
    },
    {
      "inputs": [],
      "name": "SUBSCRIPTION_DURATION",
      "outputs": [
        {
          "internalType": "uint256",
          "name": "",
          "type": "uint256"
        }
      ],
      "stateMutability": "view",
      "type": "function"
    },
    {
      "inputs": [],
      "name": "SUBSCRIPTION_PRICE",
      "outputs": [
        {
          "internalType": "uint256",
          "name": "",
          "type": "uint256"
        }
      ],
      "stateMutability": "view",
      "type": "function"
    },
    {
      "inputs": [
        {
          "internalType": "address",
          "name": "to",
          "type": "address"
        },
        {
          "internalType": "uint256",
          "name": "tokenId",
          "type": "uint256"
        }
      ],
      "name": "approve",
      "outputs": [],
      "stateMutability": "nonpayable",
      "type": "function"
    },
    {
      "inputs": [
        {
          "internalType": "address",
          "name": "owner",
          "type": "address"
        }
      ],
      "name": "balanceOf",
      "outputs": [
        {
          "internalType": "uint256",
          "name": "",
          "type": "uint256"
        }
      ],
      "stateMutability": "view",
      "type": "function"
    },
    {
      "inputs": [],
      "name": "cancelSubscription",
      "outputs": [],
      "stateMutability": "nonpayable",
      "type": "function"
    },
    {
      "inputs": [
        {
          "internalType": "uint256",
          "name": "tokenId",
          "type": "uint256"
        }
      ],
      "name": "getApproved",
      "outputs": [
        {
          "internalType": "address",
          "name": "",
          "type": "address"
        }
      ],
      "stateMutability": "view",
      "type": "function"
    },
    {
      "inputs": [
        {
          "internalType": "address",
          "name": "user",
          "type": "address"
        }
      ],
      "name": "getRemainingTime",
      "outputs": [
        {
          "internalType": "uint256",
          "name": "",
          "type": "uint256"
        }
      ],
      "stateMutability": "view",
      "type": "function"
    },
    {
      "inputs": [
        {
          "internalType": "uint256",
          "name": "tokenId",
          "type": "uint256"
        }
      ],
      "name": "getSubscriptionExpiry",
      "outputs": [
        {
          "internalType": "uint256",
          "name": "",
          "type": "uint256"
        }
      ],
      "stateMutability": "view",
      "type": "function"
    },
    {
      "inputs": [
        {
          "internalType": "address",
          "name": "user",
          "type": "address"
        }
      ],
      "name": "hasActiveSubscription",
      "outputs": [
        {
          "internalType": "bool",
          "name": "",
          "type": "bool"
        }
      ],
      "stateMutability": "view",
      "type": "function"
    },
    {
      "inputs": [
        {
          "internalType": "address",
          "name": "owner",
          "type": "address"
        },
        {
          "internalType": "address",
          "name": "operator",
          "type": "address"
        }
      ],
      "name": "isApprovedForAll",
      "outputs": [
        {
          "internalType": "bool",
          "name": "",
          "type": "bool"
        }
      ],
      "stateMutability": "view",
      "type": "function"
    },
    {
      "inputs": [
        {
          "internalType": "uint256",
          "name": "tokenId",
          "type": "uint256"
        }
      ],
      "name": "isSubscriptionActive",
      "outputs": [
        {
          "internalType": "bool",
          "name": "",
          "type": "bool"
        }
      ],
      "stateMutability": "view",
      "type": "function"
    },
    {
      "inputs": [],
      "name": "name",
      "outputs": [
        {
          "internalType": "string",
          "name": "",
          "type": "string"
        }
      ],
      "stateMutability": "view",
      "type": "function"
    },
    {
      "inputs": [],
      "name": "owner",
      "outputs": [
        {
          "internalType": "address",
          "name": "",
          "type": "address"
        }
      ],
      "stateMutability": "view",
      "type": "function"
    },
    {
      "inputs": [
        {
          "internalType": "uint256",
          "name": "tokenId",
          "type": "uint256"
        }
      ],
      "name": "ownerOf",
      "outputs": [
        {
          "internalType": "address",
          "name": "",
          "type": "address"
        }
      ],
      "stateMutability": "view",
      "type": "function"
    },
    {
      "inputs": [
        {
          "internalType": "uint256",
          "name": "tokenId",
          "type": "uint256"
        }
      ],
      "name": "renewSubscription",
      "outputs": [],
      "stateMutability": "payable",
      "type": "function"
    },
    {
      "inputs": [],
      "name": "renounceOwnership",
      "outputs": [],
      "stateMutability": "nonpayable",
      "type": "function"
    },
    {
      "inputs": [
        {
          "internalType": "address",
          "name": "from",
          "type": "address"
        },
        {
          "internalType": "address",
          "name": "to",
          "type": "address"
        },
        {
          "internalType": "uint256",
          "name": "tokenId",
          "type": "uint256"
        }
      ],
      "name": "safeTransferFrom",
      "outputs": [],
      "stateMutability": "nonpayable",
      "type": "function"
    },
    {
      "inputs": [
        {
          "internalType": "address",
          "name": "from",
          "type": "address"
        },
        {
          "internalType": "address",
          "name": "to",
          "type": "address"
        },
        {
          "internalType": "uint256",
          "name": "tokenId",
          "type": "uint256"
        },
        {
          "internalType": "bytes",
          "name": "data",
          "type": "bytes"
        }
      ],
      "name": "safeTransferFrom",
      "outputs": [],
      "stateMutability": "nonpayable",
      "type": "function"
    },
    {
      "inputs": [
        {
          "internalType": "address",
          "name": "operator",
          "type": "address"
        },
        {
          "internalType": "bool",
          "name": "approved",
          "type": "bool"
        }
      ],
      "name": "setApprovalForAll",
      "outputs": [],
      "stateMutability": "nonpayable",
      "type": "function"
    },
    {
      "inputs": [],
      "name": "subscribe",
      "outputs": [
        {
          "internalType": "uint256",
          "name": "",
          "type": "uint256"
        }
      ],
      "stateMutability": "payable",
      "type": "function"
    },
    {
      "inputs": [
        {
          "internalType": "uint256",
          "name": "",
          "type": "uint256"
        }
      ],
      "name": "subscriptionExpiry",
      "outputs": [
        {
          "internalType": "uint256",
          "name": "",
          "type": "uint256"
        }
      ],
      "stateMutability": "view",
      "type": "function"
    },
    {
      "inputs": [
        {
          "internalType": "bytes4",
          "name": "interfaceId",
          "type": "bytes4"
        }
      ],
      "name": "supportsInterface",
      "outputs": [
        {
          "internalType": "bool",
          "name": "",
          "type": "bool"
        }
      ],
      "stateMutability": "view",
      "type": "function"
    },
    {
      "inputs": [],
      "name": "symbol",
      "outputs": [
        {
          "internalType": "string",
          "name": "",
          "type": "string"
        }
      ],
      "stateMutability": "view",
      "type": "function"
    },
    {
      "inputs": [
        {
          "internalType": "uint256",
          "name": "tokenId",
          "type": "uint256"
        }
      ],
      "name": "tokenURI",
      "outputs": [
        {
          "internalType": "string",
          "name": "",
          "type": "string"
        }
      ],
      "stateMutability": "view",
      "type": "function"
    },
    {
      "inputs": [
        {
          "internalType": "address",
          "name": "from",
          "type": "address"
        },
        {
          "internalType": "address",
          "name": "to",
          "type": "address"
        },
        {
          "internalType": "uint256",
          "name": "tokenId",
          "type": "uint256"
        }
      ],
      "name": "transferFrom",
      "outputs": [],
      "stateMutability": "nonpayable",
      "type": "function"
    },
    {
      "inputs": [
        {
          "internalType": "address",
          "name": "newOwner",
          "type": "address"
        }
      ],
      "name": "transferOwnership",
      "outputs": [],
      "stateMutability": "nonpayable",
      "type": "function"
    },
    {
      "inputs": [
        {
          "internalType": "address",
          "name": "",
          "type": "address"
        }
      ],
      "name": "userLatestToken",
      "outputs": [
        {
          "internalType": "uint256",
          "name": "",
          "type": "uint256"
        }
      ],
      "stateMutability": "view",
      "type": "function"
    },
    {
      "inputs": [],
      "name": "withdrawFunds",
      "outputs": [],
      "stateMutability": "nonpayable",
      "type": "function"
    }
  ],
  "bytecode": "0x608060405234801561001057600080fd5b506040518060400160405280601081526020016f2b28271029bab139b1b934b83a34b7b760811b8152506040518060400160405280600481526020016356504e5360e01b81525081600090816100669190610186565b5060016100738282610186565b50505061008c61008761009160201b60201c565b610095565b610244565b3390565b600680546001600160a01b038381166001600160a01b0319831681179093556040519116919082907f8be0079c531659141344cd1fd0a4f28419497f9722a3daafe3b4186f6b6457e090600090a35050565b634e487b7160e01b600052604160045260246000fd5b600181811c9082168061011157607f821691505b60208210810361013157634e487b7160e01b600052602260045260246000fd5b50919050565b601f82111561018157806000526020600020601f840160051c8101602085101561015e5750805b601f840160051c820191505b8181101561017e576000815560010161016a565b50505b505050565b81516001600160401b0381111561019f5761019f6100e7565b6101b3816101ad84546100fd565b84610137565b6020601f8211600181146101e757600083156101cf5750848201515b600019600385901b1c1916600184901b17845561017e565b600084815260208120601f198516915b8281101561021757878501518255602094850194600190920191016101f7565b50848210156102355786840151600019600387901b60f8161c191681555b50505050600190811b01905550565b611db6806102536000396000f3fe6080604052600436106101b75760003560e01c80638da5cb5b116100ec578063b88d4fde1161008a578063d71bb37b11610064578063d71bb37b146104c9578063e985e9c5146104dc578063f2fde38b146104fc578063f6847c821461051c57600080fd5b8063b88d4fde14610469578063bebe4a5714610489578063c87b56dd146104a957600080fd5b8063a0e26db9116100c6578063a0e26db9146103cf578063a0f3b876146103ef578063a22cb4651461041c578063aa1ae44e1461043c57600080fd5b80638da5cb5b146103945780638f449a05146103b257806395d89b41146103ba57600080fd5b806324e9edb0116101595780636352211e116101335780636352211e146103255780636a890cb21461034557806370a082311461035f578063715018a61461037f57600080fd5b806324e9edb0146102d057806342842e0e146102e557806357e2c0f51461030557600080fd5b8063095ea7b311610195578063095ea7b31461024b5780630e85117a1461026d57806323b872dd1461029b57806324600fc3146102bb57600080fd5b806301ffc9a7146101bc57806306fdde03146101f1578063081812fc14610213575b600080fd5b3480156101c857600080fd5b506101dc6101d73660046118c6565b610533565b60405190151581526020015b60405180910390f35b3480156101fd57600080fd5b50610206610585565b6040516101e89190611933565b34801561021f57600080fd5b5061023361022e366004611946565b610617565b6040516001600160a01b0390911681526020016101e8565b34801561025757600080fd5b5061026b61026636600461197b565b61063e565b005b34801561027957600080fd5b5061028d6102883660046119a5565b610758565b6040519081526020016101e8565b3480156102a757600080fd5b5061026b6102b63660046119c0565b61080d565b3480156102c757600080fd5b5061026b61083e565b3480156102dc57600080fd5b5061026b6108ef565b3480156102f157600080fd5b5061026b6103003660046119c0565b610b00565b34801561031157600080fd5b506101dc610320366004611946565b610b1b565b34801561033157600080fd5b50610233610340366004611946565b610b58565b34801561035157600080fd5b5061028d6509184e72a00081565b34801561036b57600080fd5b5061028d61037a3660046119a5565b610bb8565b34801561038b57600080fd5b5061026b610c3e565b3480156103a057600080fd5b506006546001600160a01b0316610233565b61028d610c52565b3480156103c657600080fd5b50610206610cf8565b3480156103db57600080fd5b5061028d6103ea366004611946565b610d07565b3480156103fb57600080fd5b5061028d61040a366004611946565b60086020526000908152604090205481565b34801561042857600080fd5b5061026b6104373660046119fd565b610d41565b34801561044857600080fd5b5061028d6104573660046119a5565b60096020526000908152604090205481565b34801561047557600080fd5b5061026b610484366004611a4f565b610d50565b34801561049557600080fd5b506101dc6104a43660046119a5565b610d88565b3480156104b557600080fd5b506102066104c4366004611946565b610dc1565b61026b6104d7366004611946565b610e34565b3480156104e857600080fd5b506101dc6104f7366004611b33565b610f3d565b34801561050857600080fd5b5061026b6105173660046119a5565b610f6b565b34801561052857600080fd5b5061028d62278d0081565b60006001600160e01b031982166380ac58cd60e01b148061056457506001600160e01b03198216635b5e139f60e01b145b8061057f57506301ffc9a760e01b6001600160e01b03198316145b92915050565b60606000805461059490611b66565b80601f01602080910402602001604051908101604052809291908181526020018280546105c090611b66565b801561060d5780601f106105e25761010080835404028352916020019161060d565b820191906000526020600020905b8154815290600101906020018083116105f057829003601f168201915b5050505050905090565b600061062282610fe1565b506000908152600460205260409020546001600160a01b031690565b600061064982610b58565b9050806001600160a01b0316836001600160a01b0316036106bb5760405162461bcd60e51b815260206004820152602160248201527f4552433732313a20617070726f76616c20746f2063757272656e74206f776e656044820152603960f91b60648201526084015b60405180910390fd5b336001600160a01b03821614806106d757506106d78133610f3d565b6107495760405162461bcd60e51b815260206004820152603d60248201527f4552433732313a20617070726f76652063616c6c6572206973206e6f7420746f60448201527f6b656e206f776e6572206f7220617070726f76656420666f7220616c6c00000060648201526084016106b2565b6107538383611031565b505050565b6001600160a01b038116600090815260096020526040812054806107b65760405162461bcd60e51b8152602060048201526015602482015274139bc81cdd589cd8dc9a5c1d1a5bdb88199bdd5b99605a1b60448201526064016106b2565b6107bf8161109f565b6107db5760405162461bcd60e51b81526004016106b290611ba0565b6000818152600860205260409020544281116107fb575060009392505050565b6108054282611bed565b949350505050565b61081733826110bc565b6108335760405162461bcd60e51b81526004016106b290611c00565b61075383838361111a565b61084661127e565b600061085a6006546001600160a01b031690565b6001600160a01b03164760405160006040518083038185875af1925050503d80600081146108a4576040519150601f19603f3d011682016040523d82523d6000602084013e6108a9565b606091505b50509050806108ec5760405162461bcd60e51b815260206004820152600f60248201526e151c985b9cd9995c8819985a5b1959608a1b60448201526064016106b2565b50565b33600090815260096020526040902054806109445760405162461bcd60e51b8152602060048201526015602482015274139bc81cdd589cd8dc9a5c1d1a5bdb88199bdd5b99605a1b60448201526064016106b2565b61094d8161109f565b6109695760405162461bcd60e51b81526004016106b290611ba0565b3361097382610b58565b6001600160a01b0316146109c25760405162461bcd60e51b81526020600482015260166024820152752737ba1039bab139b1b934b83a34b7b71037bbb732b960511b60448201526064016106b2565b6000818152600860205260408120546109df9062278d0090611bed565b90506109ee8162015180611c4d565b421115610a3d5760405162461bcd60e51b815260206004820152601b60248201527f43616e63656c6c6174696f6e20706572696f642065787069726564000000000060448201526064016106b2565b60405160009033906509184e72a000908381818185875af1925050503d8060008114610a85576040519150601f19603f3d011682016040523d82523d6000602084013e610a8a565b606091505b5050905080610ad45760405162461bcd60e51b81526020600482015260166024820152751499599d5b99081d1c985b9cd9995c8819985a5b195960521b60448201526064016106b2565b610add836112d8565b505060009081526008602090815260408083208390553383526009909152812055565b61075383838360405180602001604052806000815250610d50565b6000610b268261109f565b610b425760405162461bcd60e51b81526004016106b290611ba0565b5060009081526008602052604090205442111590565b6000818152600260205260408120546001600160a01b03168061057f5760405162461bcd60e51b8152602060048201526018602482015277115490cdcc8c4e881a5b9d985b1a59081d1bdad95b88125160421b60448201526064016106b2565b60006001600160a01b038216610c225760405162461bcd60e51b815260206004820152602960248201527f4552433732313a2061646472657373207a65726f206973206e6f7420612076616044820152683634b21037bbb732b960b91b60648201526084016106b2565b506001600160a01b031660009081526003602052604090205490565b610c4661127e565b610c50600061136d565b565b60006509184e72a000341015610ca15760405162461bcd60e51b8152602060048201526014602482015273125b9cdd59999a58da595b9d081c185e5b595b9d60621b60448201526064016106b2565b610caf600780546001019055565b6000610cba60075490565b9050610cc633826113bf565b610cd362278d0042611c4d565b6000828152600860209081526040808320939093553382526009905220819055919050565b60606001805461059490611b66565b6000610d128261109f565b610d2e5760405162461bcd60e51b81526004016106b290611ba0565b5060009081526008602052604090205490565b610d4c33838361152c565b5050565b610d5a33836110bc565b610d765760405162461bcd60e51b81526004016106b290611c00565b610d82848484846115fa565b50505050565b6001600160a01b038116600090815260096020526040812054808203610db15750600092915050565b610dba81610b1b565b9392505050565b6060610dcc82610fe1565b6000610de360408051602081019091526000815290565b90506000815111610e035760405180602001604052806000815250610dba565b80610e0d8461162d565b604051602001610e1e929190611c60565b6040516020818303038152906040529392505050565b610e3d8161109f565b610e595760405162461bcd60e51b81526004016106b290611ba0565b33610e6382610b58565b6001600160a01b031614610eb25760405162461bcd60e51b81526020600482015260166024820152752737ba1039bab139b1b934b83a34b7b71037bbb732b960511b60448201526064016106b2565b6509184e72a000341015610eff5760405162461bcd60e51b8152602060048201526014602482015273125b9cdd59999a58da595b9d081c185e5b595b9d60621b60448201526064016106b2565b60008181526008602052604081205462278d0090610f1d90426116c0565b610f279190611c4d565b6000928352600860205260409092209190915550565b6001600160a01b03918216600090815260056020908152604080832093909416825291909152205460ff1690565b610f7361127e565b6001600160a01b038116610fd85760405162461bcd60e51b815260206004820152602660248201527f4f776e61626c653a206e6577206f776e657220697320746865207a65726f206160448201526564647265737360d01b60648201526084016106b2565b6108ec8161136d565b610fea8161109f565b6108ec5760405162461bcd60e51b8152602060048201526018602482015277115490cdcc8c4e881a5b9d985b1a59081d1bdad95b88125160421b60448201526064016106b2565b600081815260046020526040902080546001600160a01b0319166001600160a01b038416908117909155819061106682610b58565b6001600160a01b03167f8c5be1e5ebec7d5bd14f71427d1e84f3dd0314c0f7b2291e5b200ac8c7c3b92560405160405180910390a45050565b6000908152600260205260409020546001600160a01b0316151590565b6000806110c883610b58565b9050806001600160a01b0316846001600160a01b031614806110ef57506110ef8185610f3d565b806108055750836001600160a01b031661110884610617565b6001600160a01b031614949350505050565b826001600160a01b031661112d82610b58565b6001600160a01b0316146111535760405162461bcd60e51b81526004016106b290611c8f565b6001600160a01b0382166111b55760405162461bcd60e51b8152602060048201526024808201527f4552433732313a207472616e7366657220746f20746865207a65726f206164646044820152637265737360e01b60648201526084016106b2565b826001600160a01b03166111c882610b58565b6001600160a01b0316146111ee5760405162461bcd60e51b81526004016106b290611c8f565b600081815260046020908152604080832080546001600160a01b03199081169091556001600160a01b0387811680865260038552838620805460001901905590871680865283862080546001019055868652600290945282852080549092168417909155905184937fddf252ad1be2c89b69c2b068fc378daa952ba7f163c4a11628f55a4df523b3ef91a4505050565b6006546001600160a01b03163314610c505760405162461bcd60e51b815260206004820181905260248201527f4f776e61626c653a2063616c6c6572206973206e6f7420746865206f776e657260448201526064016106b2565b60006112e382610b58565b90506112ee82610b58565b600083815260046020908152604080832080546001600160a01b03199081169091556001600160a01b0385168085526003845282852080546000190190558785526002909352818420805490911690555192935084927fddf252ad1be2c89b69c2b068fc378daa952ba7f163c4a11628f55a4df523b3ef908390a45050565b600680546001600160a01b038381166001600160a01b0319831681179093556040519116919082907f8be0079c531659141344cd1fd0a4f28419497f9722a3daafe3b4186f6b6457e090600090a35050565b6001600160a01b0382166114155760405162461bcd60e51b815260206004820181905260248201527f4552433732313a206d696e7420746f20746865207a65726f206164647265737360448201526064016106b2565b61141e8161109f565b1561146b5760405162461bcd60e51b815260206004820152601c60248201527f4552433732313a20746f6b656e20616c7265616479206d696e7465640000000060448201526064016106b2565b6114748161109f565b156114c15760405162461bcd60e51b815260206004820152601c60248201527f4552433732313a20746f6b656e20616c7265616479206d696e7465640000000060448201526064016106b2565b6001600160a01b038216600081815260036020908152604080832080546001019055848352600290915280822080546001600160a01b0319168417905551839291907fddf252ad1be2c89b69c2b068fc378daa952ba7f163c4a11628f55a4df523b3ef908290a45050565b816001600160a01b0316836001600160a01b03160361158d5760405162461bcd60e51b815260206004820152601960248201527f4552433732313a20617070726f766520746f2063616c6c65720000000000000060448201526064016106b2565b6001600160a01b03838116600081815260056020908152604080832094871680845294825291829020805460ff191686151590811790915591519182527f17307eab39ab6107e8899845ad3d59bd9653f200f220920489ca2b5937696c31910160405180910390a3505050565b61160584848461111a565b611611848484846116d7565b610d825760405162461bcd60e51b81526004016106b290611cd4565b6060600061163a836117d8565b600101905060008167ffffffffffffffff81111561165a5761165a611a39565b6040519080825280601f01601f191660200182016040528015611684576020820181803683370190505b5090508181016020015b600019016f181899199a1a9b1b9c1cb0b131b232b360811b600a86061a8153600a850494508461168e57509392505050565b6000818310156116d05781610dba565b5090919050565b60006001600160a01b0384163b156117cd57604051630a85bd0160e11b81526001600160a01b0385169063150b7a029061171b903390899088908890600401611d26565b6020604051808303816000875af1925050508015611756575060408051601f3d908101601f1916820190925261175391810190611d63565b60015b6117b3573d808015611784576040519150601f19603f3d011682016040523d82523d6000602084013e611789565b606091505b5080516000036117ab5760405162461bcd60e51b81526004016106b290611cd4565b805181602001fd5b6001600160e01b031916630a85bd0160e11b149050610805565b506001949350505050565b60008072184f03e93ff9f4daa797ed6e38ed64bf6a1f0160401b83106118175772184f03e93ff9f4daa797ed6e38ed64bf6a1f0160401b830492506040015b6d04ee2d6d415b85acef81000000008310611843576d04ee2d6d415b85acef8100000000830492506020015b662386f26fc10000831061186157662386f26fc10000830492506010015b6305f5e1008310611879576305f5e100830492506008015b612710831061188d57612710830492506004015b6064831061189f576064830492506002015b600a831061057f5760010192915050565b6001600160e01b0319811681146108ec57600080fd5b6000602082840312156118d857600080fd5b8135610dba816118b0565b60005b838110156118fe5781810151838201526020016118e6565b50506000910152565b6000815180845261191f8160208601602086016118e3565b601f01601f19169290920160200192915050565b602081526000610dba6020830184611907565b60006020828403121561195857600080fd5b5035919050565b80356001600160a01b038116811461197657600080fd5b919050565b6000806040838503121561198e57600080fd5b6119978361195f565b946020939093013593505050565b6000602082840312156119b757600080fd5b610dba8261195f565b6000806000606084860312156119d557600080fd5b6119de8461195f565b92506119ec6020850161195f565b929592945050506040919091013590565b60008060408385031215611a1057600080fd5b611a198361195f565b915060208301358015158114611a2e57600080fd5b809150509250929050565b634e487b7160e01b600052604160045260246000fd5b60008060008060808587031215611a6557600080fd5b611a6e8561195f565b9350611a7c6020860161195f565b925060408501359150606085013567ffffffffffffffff811115611a9f57600080fd5b8501601f81018713611ab057600080fd5b803567ffffffffffffffff811115611aca57611aca611a39565b604051601f8201601f19908116603f0116810167ffffffffffffffff81118282101715611af957611af9611a39565b604052818152828201602001891015611b1157600080fd5b8160208401602083013760006020838301015280935050505092959194509250565b60008060408385031215611b4657600080fd5b611b4f8361195f565b9150611b5d6020840161195f565b90509250929050565b600181811c90821680611b7a57607f821691505b602082108103611b9a57634e487b7160e01b600052602260045260246000fd5b50919050565b6020808252601b908201527f537562736372697074696f6e20646f6573206e6f742065786973740000000000604082015260600190565b634e487b7160e01b600052601160045260246000fd5b8181038181111561057f5761057f611bd7565b6020808252602d908201527f4552433732313a2063616c6c6572206973206e6f7420746f6b656e206f776e6560408201526c1c881bdc88185c1c1c9bdd9959609a1b606082015260800190565b8082018082111561057f5761057f611bd7565b60008351611c728184602088016118e3565b835190830190611c868183602088016118e3565b01949350505050565b60208082526025908201527f4552433732313a207472616e736665722066726f6d20696e636f72726563742060408201526437bbb732b960d91b606082015260800190565b60208082526032908201527f4552433732313a207472616e7366657220746f206e6f6e20455243373231526560408201527131b2b4bb32b91034b6b83632b6b2b73a32b960711b606082015260800190565b6001600160a01b0385811682528416602082015260408101839052608060608201819052600090611d5990830184611907565b9695505050505050565b600060208284031215611d7557600080fd5b8151610dba816118b056fea2646970667358221220192f27ee56252a05f5509e3771fb0dffb821e97010d891f26a55d06d00acfa3464736f6c634300081c0033",
  "linkReferences": {},
  "deployedLinkReferences": {}
}