{
  "_format": "hh-sol-artifact-1",
  "contractName": "VPNSubscription",
  "sourceName": "contracts/VPNSubscription.sol",
  "abi": [
    {
      "inputs": [],
      "stateMutability": "nonpayable",
      "type": "constructor"
    },
    {
      "anonymous": false,
      "inputs": [
        {
          "indexed": true,
          "internalType": "address",
          "name": "owner",
          "type": "address"
        },
        {
          "indexed": true,
          "internalType": "address",
          "name": "approved",
          "type": "address"
        },
        {
          "indexed": true,
          "internalType": "uint256",
          "name": "tokenId",
          "type": "uint256"
        }
      ],
      "name": "Approval",
      "type": "event"
    },
    {
      "anonymous": false,
      "inputs": [
        {
          "indexed": true,
          "internalType": "address",
          "name": "owner",
          "type": "address"
        },
        {
          "indexed": true,
          "internalType": "address",
          "name": "operator",
          "type": "address"
        },
        {
          "indexed": false,
          "internalType": "bool",
          "name": "approved",
          "type": "bool"
        }
      ],
      "name": "ApprovalForAll",
      "type": "event"
    },
    {
      "anonymous": false,
      "inputs": [
        {
          "indexed": true,
          "internalType": "address",
          "name": "previousOwner",
          "type": "address"
        },
        {
          "indexed": true,
          "internalType": "address",
          "name": "newOwner",
          "type": "address"
        }
      ],
      "name": "OwnershipTransferred",
      "type": "event"
    },
    {
      "anonymous": false,
      "inputs": [
        {
          "indexed": true,
          "internalType": "address",
          "name": "from",
          "type": "address"
        },
        {
          "indexed": true,
          "internalType": "address",
          "name": "to",
          "type": "address"
        },
        {
          "indexed": true,
          "internalType": "uint256",
          "name": "tokenId",
          "type": "uint256"
        }
      ],
      "name": "Transfer",
      "type": "event"
    },
    {
      "inputs": [],
      "name": "SUBSCRIPTION_DURATION",
      "outputs": [
        {
          "internalType": "uint256",
          "name": "",
          "type": "uint256"
        }
      ],
      "stateMutability": "view",
      "type": "function"
    },
    {
      "inputs": [],
      "name": "SUBSCRIPTION_PRICE",
      "outputs": [
        {
          "internalType": "uint256",
          "name": "",
          "type": "uint256"
        }
      ],
      "stateMutability": "view",
      "type": "function"
    },
    {
      "inputs": [
        {
          "internalType": "address",
          "name": "to",
          "type": "address"
        },
        {
          "internalType": "uint256",
          "name": "tokenId",
          "type": "uint256"
        }
      ],
      "name": "approve",
      "outputs": [],
      "stateMutability": "nonpayable",
      "type": "function"
    },
    {
      "inputs": [
        {
          "internalType": "address",
          "name": "owner",
          "type": "address"
        }
      ],
      "name": "balanceOf",
      "outputs": [
        {
          "internalType": "uint256",
          "name": "",
          "type": "uint256"
        }
      ],
      "stateMutability": "view",
      "type": "function"
    },
    {
      "inputs": [
        {
          "internalType": "uint256",
          "name": "tokenId",
          "type": "uint256"
        }
      ],
      "name": "getApproved",
      "outputs": [
        {
          "internalType": "address",
          "name": "",
          "type": "address"
        }
      ],
      "stateMutability": "view",
      "type": "function"
    },
    {
      "inputs": [
        {
          "internalType": "address",
          "name": "user",
          "type": "address"
        }
      ],
      "name": "getRemainingTime",
      "outputs": [
        {
          "internalType": "uint256",
          "name": "",
          "type": "uint256"
        }
      ],
      "stateMutability": "view",
      "type": "function"
    },
    {
      "inputs": [
        {
          "internalType": "uint256",
          "name": "tokenId",
          "type": "uint256"
        }
      ],
      "name": "getSubscriptionExpiry",
      "outputs": [
        {
          "internalType": "uint256",
          "name": "",
          "type": "uint256"
        }
      ],
      "stateMutability": "view",
      "type": "function"
    },
    {
      "inputs": [
        {
          "internalType": "address",
          "name": "user",
          "type": "address"
        }
      ],
      "name": "hasActiveSubscription",
      "outputs": [
        {
          "internalType": "bool",
          "name": "",
          "type": "bool"
        }
      ],
      "stateMutability": "view",
      "type": "function"
    },
    {
      "inputs": [
        {
          "internalType": "address",
          "name": "owner",
          "type": "address"
        },
        {
          "internalType": "address",
          "name": "operator",
          "type": "address"
        }
      ],
      "name": "isApprovedForAll",
      "outputs": [
        {
          "internalType": "bool",
          "name": "",
          "type": "bool"
        }
      ],
      "stateMutability": "view",
      "type": "function"
    },
    {
      "inputs": [
        {
          "internalType": "uint256",
          "name": "tokenId",
          "type": "uint256"
        }
      ],
      "name": "isSubscriptionActive",
      "outputs": [
        {
          "internalType": "bool",
          "name": "",
          "type": "bool"
        }
      ],
      "stateMutability": "view",
      "type": "function"
    },
    {
      "inputs": [],
      "name": "name",
      "outputs": [
        {
          "internalType": "string",
          "name": "",
          "type": "string"
        }
      ],
      "stateMutability": "view",
      "type": "function"
    },
    {
      "inputs": [],
      "name": "owner",
      "outputs": [
        {
          "internalType": "address",
          "name": "",
          "type": "address"
        }
      ],
      "stateMutability": "view",
      "type": "function"
    },
    {
      "inputs": [
        {
          "internalType": "uint256",
          "name": "tokenId",
          "type": "uint256"
        }
      ],
      "name": "ownerOf",
      "outputs": [
        {
          "internalType": "address",
          "name": "",
          "type": "address"
        }
      ],
      "stateMutability": "view",
      "type": "function"
    },
    {
      "inputs": [
        {
          "internalType": "uint256",
          "name": "tokenId",
          "type": "uint256"
        }
      ],
      "name": "renewSubscription",
      "outputs": [],
      "stateMutability": "payable",
      "type": "function"
    },
    {
      "inputs": [],
      "name": "renounceOwnership",
      "outputs": [],
      "stateMutability": "nonpayable",
      "type": "function"
    },
    {
      "inputs": [
        {
          "internalType": "address",
          "name": "from",
          "type": "address"
        },
        {
          "internalType": "address",
          "name": "to",
          "type": "address"
        },
        {
          "internalType": "uint256",
          "name": "tokenId",
          "type": "uint256"
        }
      ],
      "name": "safeTransferFrom",
      "outputs": [],
      "stateMutability": "nonpayable",
      "type": "function"
    },
    {
      "inputs": [
        {
          "internalType": "address",
          "name": "from",
          "type": "address"
        },
        {
          "internalType": "address",
          "name": "to",
          "type": "address"
        },
        {
          "internalType": "uint256",
          "name": "tokenId",
          "type": "uint256"
        },
        {
          "internalType": "bytes",
          "name": "data",
          "type": "bytes"
        }
      ],
      "name": "safeTransferFrom",
      "outputs": [],
      "stateMutability": "nonpayable",
      "type": "function"
    },
    {
      "inputs": [
        {
          "internalType": "address",
          "name": "operator",
          "type": "address"
        },
        {
          "internalType": "bool",
          "name": "approved",
          "type": "bool"
        }
      ],
      "name": "setApprovalForAll",
      "outputs": [],
      "stateMutability": "nonpayable",
      "type": "function"
    },
    {
      "inputs": [],
      "name": "subscribe",
      "outputs": [
        {
          "internalType": "uint256",
          "name": "",
          "type": "uint256"
        }
      ],
      "stateMutability": "payable",
      "type": "function"
    },
    {
      "inputs": [
        {
          "internalType": "uint256",
          "name": "",
          "type": "uint256"
        }
      ],
      "name": "subscriptionExpiry",
      "outputs": [
        {
          "internalType": "uint256",
          "name": "",
          "type": "uint256"
        }
      ],
      "stateMutability": "view",
      "type": "function"
    },
    {
      "inputs": [
        {
          "internalType": "bytes4",
          "name": "interfaceId",
          "type": "bytes4"
        }
      ],
      "name": "supportsInterface",
      "outputs": [
        {
          "internalType": "bool",
          "name": "",
          "type": "bool"
        }
      ],
      "stateMutability": "view",
      "type": "function"
    },
    {
      "inputs": [],
      "name": "symbol",
      "outputs": [
        {
          "internalType": "string",
          "name": "",
          "type": "string"
        }
      ],
      "stateMutability": "view",
      "type": "function"
    },
    {
      "inputs": [
        {
          "internalType": "uint256",
          "name": "tokenId",
          "type": "uint256"
        }
      ],
      "name": "tokenURI",
      "outputs": [
        {
          "internalType": "string",
          "name": "",
          "type": "string"
        }
      ],
      "stateMutability": "view",
      "type": "function"
    },
    {
      "inputs": [
        {
          "internalType": "address",
          "name": "from",
          "type": "address"
        },
        {
          "internalType": "address",
          "name": "to",
          "type": "address"
        },
        {
          "internalType": "uint256",
          "name": "tokenId",
          "type": "uint256"
        }
      ],
      "name": "transferFrom",
      "outputs": [],
      "stateMutability": "nonpayable",
      "type": "function"
    },
    {
      "inputs": [
        {
          "internalType": "address",
          "name": "newOwner",
          "type": "address"
        }
      ],
      "name": "transferOwnership",
      "outputs": [],
      "stateMutability": "nonpayable",
      "type": "function"
    },
    {
      "inputs": [
        {
          "internalType": "address",
          "name": "",
          "type": "address"
        }
      ],
      "name": "userLatestToken",
      "outputs": [
        {
          "internalType": "uint256",
          "name": "",
          "type": "uint256"
        }
      ],
      "stateMutability": "view",
      "type": "function"
    },
    {
      "inputs": [],
      "name": "withdrawFunds",
      "outputs": [],
      "stateMutability": "nonpayable",
      "type": "function"
    }
  ],
  "bytecode": "0x608060405234801561001057600080fd5b506040518060400160405280601081526020016f2b28271029bab139b1b934b83a34b7b760811b8152506040518060400160405280600481526020016356504e5360e01b81525081600090816100669190610186565b5060016100738282610186565b50505061008c61008761009160201b60201c565b610095565b610244565b3390565b600680546001600160a01b038381166001600160a01b0319831681179093556040519116919082907f8be0079c531659141344cd1fd0a4f28419497f9722a3daafe3b4186f6b6457e090600090a35050565b634e487b7160e01b600052604160045260246000fd5b600181811c9082168061011157607f821691505b60208210810361013157634e487b7160e01b600052602260045260246000fd5b50919050565b601f82111561018157806000526020600020601f840160051c8101602085101561015e5750805b601f840160051c820191505b8181101561017e576000815560010161016a565b50505b505050565b81516001600160401b0381111561019f5761019f6100e7565b6101b3816101ad84546100fd565b84610137565b6020601f8211600181146101e757600083156101cf5750848201515b600019600385901b1c1916600184901b17845561017e565b600084815260208120601f198516915b8281101561021757878501518255602094850194600190920191016101f7565b50848210156102355786840151600019600387901b60f8161c191681555b50505050600190811b01905550565b611ae0806102536000396000f3fe60806040526004361061019c5760003560e01c80638da5cb5b116100ec578063b88d4fde1161008a578063d71bb37b11610064578063d71bb37b14610499578063e985e9c5146104ac578063f2fde38b146104cc578063f6847c82146104ec57600080fd5b8063b88d4fde14610439578063bebe4a5714610459578063c87b56dd1461047957600080fd5b8063a0e26db9116100c6578063a0e26db91461039f578063a0f3b876146103bf578063a22cb465146103ec578063aa1ae44e1461040c57600080fd5b80638da5cb5b146103645780638f449a051461038257806395d89b411461038a57600080fd5b806324600fc3116101595780636352211e116101335780636352211e146102f55780636a890cb21461031557806370a082311461032f578063715018a61461034f57600080fd5b806324600fc3146102a057806342842e0e146102b557806357e2c0f5146102d557600080fd5b806301ffc9a7146101a157806306fdde03146101d6578063081812fc146101f8578063095ea7b3146102305780630e85117a1461025257806323b872dd14610280575b600080fd5b3480156101ad57600080fd5b506101c16101bc3660046115f0565b610503565b60405190151581526020015b60405180910390f35b3480156101e257600080fd5b506101eb610555565b6040516101cd919061165d565b34801561020457600080fd5b50610218610213366004611670565b6105e7565b6040516001600160a01b0390911681526020016101cd565b34801561023c57600080fd5b5061025061024b3660046116a5565b61060e565b005b34801561025e57600080fd5b5061027261026d3660046116cf565b610728565b6040519081526020016101cd565b34801561028c57600080fd5b5061025061029b3660046116ea565b6107dd565b3480156102ac57600080fd5b5061025061080e565b3480156102c157600080fd5b506102506102d03660046116ea565b6108bf565b3480156102e157600080fd5b506101c16102f0366004611670565b6108da565b34801561030157600080fd5b50610218610310366004611670565b610917565b34801561032157600080fd5b506102726509184e72a00081565b34801561033b57600080fd5b5061027261034a3660046116cf565b610977565b34801561035b57600080fd5b506102506109fd565b34801561037057600080fd5b506006546001600160a01b0316610218565b610272610a11565b34801561039657600080fd5b506101eb610ab7565b3480156103ab57600080fd5b506102726103ba366004611670565b610ac6565b3480156103cb57600080fd5b506102726103da366004611670565b60086020526000908152604090205481565b3480156103f857600080fd5b50610250610407366004611727565b610b00565b34801561041857600080fd5b506102726104273660046116cf565b60096020526000908152604090205481565b34801561044557600080fd5b50610250610454366004611779565b610b0f565b34801561046557600080fd5b506101c16104743660046116cf565b610b47565b34801561048557600080fd5b506101eb610494366004611670565b610b80565b6102506104a7366004611670565b610bf3565b3480156104b857600080fd5b506101c16104c736600461185d565b610cfc565b3480156104d857600080fd5b506102506104e73660046116cf565b610d2a565b3480156104f857600080fd5b5061027262278d0081565b60006001600160e01b031982166380ac58cd60e01b148061053457506001600160e01b03198216635b5e139f60e01b145b8061054f57506301ffc9a760e01b6001600160e01b03198316145b92915050565b60606000805461056490611890565b80601f016020809104026020016040519081016040528092919081815260200182805461059090611890565b80156105dd5780601f106105b2576101008083540402835291602001916105dd565b820191906000526020600020905b8154815290600101906020018083116105c057829003601f168201915b5050505050905090565b60006105f282610da0565b506000908152600460205260409020546001600160a01b031690565b600061061982610917565b9050806001600160a01b0316836001600160a01b03160361068b5760405162461bcd60e51b815260206004820152602160248201527f4552433732313a20617070726f76616c20746f2063757272656e74206f776e656044820152603960f91b60648201526084015b60405180910390fd5b336001600160a01b03821614806106a757506106a78133610cfc565b6107195760405162461bcd60e51b815260206004820152603d60248201527f4552433732313a20617070726f76652063616c6c6572206973206e6f7420746f60448201527f6b656e206f776e6572206f7220617070726f76656420666f7220616c6c0000006064820152608401610682565b6107238383610df0565b505050565b6001600160a01b038116600090815260096020526040812054806107865760405162461bcd60e51b8152602060048201526015602482015274139bc81cdd589cd8dc9a5c1d1a5bdb88199bdd5b99605a1b6044820152606401610682565b61078f81610e5e565b6107ab5760405162461bcd60e51b8152600401610682906118ca565b6000818152600860205260409020544281116107cb575060009392505050565b6107d54282611917565b949350505050565b6107e73382610e7b565b6108035760405162461bcd60e51b81526004016106829061192a565b610723838383610ed9565b61081661103d565b600061082a6006546001600160a01b031690565b6001600160a01b03164760405160006040518083038185875af1925050503d8060008114610874576040519150601f19603f3d011682016040523d82523d6000602084013e610879565b606091505b50509050806108bc5760405162461bcd60e51b815260206004820152600f60248201526e151c985b9cd9995c8819985a5b1959608a1b6044820152606401610682565b50565b61072383838360405180602001604052806000815250610b0f565b60006108e582610e5e565b6109015760405162461bcd60e51b8152600401610682906118ca565b5060009081526008602052604090205442111590565b6000818152600260205260408120546001600160a01b03168061054f5760405162461bcd60e51b8152602060048201526018602482015277115490cdcc8c4e881a5b9d985b1a59081d1bdad95b88125160421b6044820152606401610682565b60006001600160a01b0382166109e15760405162461bcd60e51b815260206004820152602960248201527f4552433732313a2061646472657373207a65726f206973206e6f7420612076616044820152683634b21037bbb732b960b91b6064820152608401610682565b506001600160a01b031660009081526003602052604090205490565b610a0561103d565b610a0f6000611097565b565b60006509184e72a000341015610a605760405162461bcd60e51b8152602060048201526014602482015273125b9cdd59999a58da595b9d081c185e5b595b9d60621b6044820152606401610682565b610a6e600780546001019055565b6000610a7960075490565b9050610a8533826110e9565b610a9262278d0042611977565b6000828152600860209081526040808320939093553382526009905220819055919050565b60606001805461056490611890565b6000610ad182610e5e565b610aed5760405162461bcd60e51b8152600401610682906118ca565b5060009081526008602052604090205490565b610b0b338383611256565b5050565b610b193383610e7b565b610b355760405162461bcd60e51b81526004016106829061192a565b610b4184848484611324565b50505050565b6001600160a01b038116600090815260096020526040812054808203610b705750600092915050565b610b79816108da565b9392505050565b6060610b8b82610da0565b6000610ba260408051602081019091526000815290565b90506000815111610bc25760405180602001604052806000815250610b79565b80610bcc84611357565b604051602001610bdd92919061198a565b6040516020818303038152906040529392505050565b610bfc81610e5e565b610c185760405162461bcd60e51b8152600401610682906118ca565b33610c2282610917565b6001600160a01b031614610c715760405162461bcd60e51b81526020600482015260166024820152752737ba1039bab139b1b934b83a34b7b71037bbb732b960511b6044820152606401610682565b6509184e72a000341015610cbe5760405162461bcd60e51b8152602060048201526014602482015273125b9cdd59999a58da595b9d081c185e5b595b9d60621b6044820152606401610682565b60008181526008602052604081205462278d0090610cdc90426113ea565b610ce69190611977565b6000928352600860205260409092209190915550565b6001600160a01b03918216600090815260056020908152604080832093909416825291909152205460ff1690565b610d3261103d565b6001600160a01b038116610d975760405162461bcd60e51b815260206004820152602660248201527f4f776e61626c653a206e6577206f776e657220697320746865207a65726f206160448201526564647265737360d01b6064820152608401610682565b6108bc81611097565b610da981610e5e565b6108bc5760405162461bcd60e51b8152602060048201526018602482015277115490cdcc8c4e881a5b9d985b1a59081d1bdad95b88125160421b6044820152606401610682565b600081815260046020526040902080546001600160a01b0319166001600160a01b0384169081179091558190610e2582610917565b6001600160a01b03167f8c5be1e5ebec7d5bd14f71427d1e84f3dd0314c0f7b2291e5b200ac8c7c3b92560405160405180910390a45050565b6000908152600260205260409020546001600160a01b0316151590565b600080610e8783610917565b9050806001600160a01b0316846001600160a01b03161480610eae5750610eae8185610cfc565b806107d55750836001600160a01b0316610ec7846105e7565b6001600160a01b031614949350505050565b826001600160a01b0316610eec82610917565b6001600160a01b031614610f125760405162461bcd60e51b8152600401610682906119b9565b6001600160a01b038216610f745760405162461bcd60e51b8152602060048201526024808201527f4552433732313a207472616e7366657220746f20746865207a65726f206164646044820152637265737360e01b6064820152608401610682565b826001600160a01b0316610f8782610917565b6001600160a01b031614610fad5760405162461bcd60e51b8152600401610682906119b9565b600081815260046020908152604080832080546001600160a01b03199081169091556001600160a01b0387811680865260038552838620805460001901905590871680865283862080546001019055868652600290945282852080549092168417909155905184937fddf252ad1be2c89b69c2b068fc378daa952ba7f163c4a11628f55a4df523b3ef91a4505050565b6006546001600160a01b03163314610a0f5760405162461bcd60e51b815260206004820181905260248201527f4f776e61626c653a2063616c6c6572206973206e6f7420746865206f776e65726044820152606401610682565b600680546001600160a01b038381166001600160a01b0319831681179093556040519116919082907f8be0079c531659141344cd1fd0a4f28419497f9722a3daafe3b4186f6b6457e090600090a35050565b6001600160a01b03821661113f5760405162461bcd60e51b815260206004820181905260248201527f4552433732313a206d696e7420746f20746865207a65726f20616464726573736044820152606401610682565b61114881610e5e565b156111955760405162461bcd60e51b815260206004820152601c60248201527f4552433732313a20746f6b656e20616c7265616479206d696e746564000000006044820152606401610682565b61119e81610e5e565b156111eb5760405162461bcd60e51b815260206004820152601c60248201527f4552433732313a20746f6b656e20616c7265616479206d696e746564000000006044820152606401610682565b6001600160a01b038216600081815260036020908152604080832080546001019055848352600290915280822080546001600160a01b0319168417905551839291907fddf252ad1be2c89b69c2b068fc378daa952ba7f163c4a11628f55a4df523b3ef908290a45050565b816001600160a01b0316836001600160a01b0316036112b75760405162461bcd60e51b815260206004820152601960248201527f4552433732313a20617070726f766520746f2063616c6c6572000000000000006044820152606401610682565b6001600160a01b03838116600081815260056020908152604080832094871680845294825291829020805460ff191686151590811790915591519182527f17307eab39ab6107e8899845ad3d59bd9653f200f220920489ca2b5937696c31910160405180910390a3505050565b61132f848484610ed9565b61133b84848484611401565b610b415760405162461bcd60e51b8152600401610682906119fe565b6060600061136483611502565b600101905060008167ffffffffffffffff81111561138457611384611763565b6040519080825280601f01601f1916602001820160405280156113ae576020820181803683370190505b5090508181016020015b600019016f181899199a1a9b1b9c1cb0b131b232b360811b600a86061a8153600a85049450846113b857509392505050565b6000818310156113fa5781610b79565b5090919050565b60006001600160a01b0384163b156114f757604051630a85bd0160e11b81526001600160a01b0385169063150b7a0290611445903390899088908890600401611a50565b6020604051808303816000875af1925050508015611480575060408051601f3d908101601f1916820190925261147d91810190611a8d565b60015b6114dd573d8080156114ae576040519150601f19603f3d011682016040523d82523d6000602084013e6114b3565b606091505b5080516000036114d55760405162461bcd60e51b8152600401610682906119fe565b805181602001fd5b6001600160e01b031916630a85bd0160e11b1490506107d5565b506001949350505050565b60008072184f03e93ff9f4daa797ed6e38ed64bf6a1f0160401b83106115415772184f03e93ff9f4daa797ed6e38ed64bf6a1f0160401b830492506040015b6d04ee2d6d415b85acef8100000000831061156d576d04ee2d6d415b85acef8100000000830492506020015b662386f26fc10000831061158b57662386f26fc10000830492506010015b6305f5e10083106115a3576305f5e100830492506008015b61271083106115b757612710830492506004015b606483106115c9576064830492506002015b600a831061054f5760010192915050565b6001600160e01b0319811681146108bc57600080fd5b60006020828403121561160257600080fd5b8135610b79816115da565b60005b83811015611628578181015183820152602001611610565b50506000910152565b6000815180845261164981602086016020860161160d565b601f01601f19169290920160200192915050565b602081526000610b796020830184611631565b60006020828403121561168257600080fd5b5035919050565b80356001600160a01b03811681146116a057600080fd5b919050565b600080604083850312156116b857600080fd5b6116c183611689565b946020939093013593505050565b6000602082840312156116e157600080fd5b610b7982611689565b6000806000606084860312156116ff57600080fd5b61170884611689565b925061171660208501611689565b929592945050506040919091013590565b6000806040838503121561173a57600080fd5b61174383611689565b91506020830135801515811461175857600080fd5b809150509250929050565b634e487b7160e01b600052604160045260246000fd5b6000806000806080858703121561178f57600080fd5b61179885611689565b93506117a660208601611689565b925060408501359150606085013567ffffffffffffffff8111156117c957600080fd5b8501601f810187136117da57600080fd5b803567ffffffffffffffff8111156117f4576117f4611763565b604051601f8201601f19908116603f0116810167ffffffffffffffff8111828210171561182357611823611763565b60405281815282820160200189101561183b57600080fd5b8160208401602083013760006020838301015280935050505092959194509250565b6000806040838503121561187057600080fd5b61187983611689565b915061188760208401611689565b90509250929050565b600181811c908216806118a457607f821691505b6020821081036118c457634e487b7160e01b600052602260045260246000fd5b50919050565b6020808252601b908201527f537562736372697074696f6e20646f6573206e6f742065786973740000000000604082015260600190565b634e487b7160e01b600052601160045260246000fd5b8181038181111561054f5761054f611901565b6020808252602d908201527f4552433732313a2063616c6c6572206973206e6f7420746f6b656e206f776e6560408201526c1c881bdc88185c1c1c9bdd9959609a1b606082015260800190565b8082018082111561054f5761054f611901565b6000835161199c81846020880161160d565b8351908301906119b081836020880161160d565b01949350505050565b60208082526025908201527f4552433732313a207472616e736665722066726f6d20696e636f72726563742060408201526437bbb732b960d91b606082015260800190565b60208082526032908201527f4552433732313a207472616e7366657220746f206e6f6e20455243373231526560408201527131b2b4bb32b91034b6b83632b6b2b73a32b960711b606082015260800190565b6001600160a01b0385811682528416602082015260408101839052608060608201819052600090611a8390830184611631565b9695505050505050565b600060208284031215611a9f57600080fd5b8151610b79816115da56fea2646970667358221220fcfaa255e56fcd3fa6722efd87859d9d78d27c61a92ca9dd7aaec58ce63a363064736f6c634300081c0033",
  "linkReferences": {},
  "deployedLinkReferences": {}
}