{
  "_format": "hh-sol-artifact-1",
  "contractName": "VPNSubscription",
  "sourceName": "contracts/VPNSubscription.sol",
  "abi": [
    {
      "inputs": [],
      "stateMutability": "nonpayable",
      "type": "constructor"
    },
    {
      "anonymous": false,
      "inputs": [
        {
          "indexed": true,
          "internalType": "address",
          "name": "owner",
          "type": "address"
        },
        {
          "indexed": true,
          "internalType": "address",
          "name": "approved",
          "type": "address"
        },
        {
          "indexed": true,
          "internalType": "uint256",
          "name": "tokenId",
          "type": "uint256"
        }
      ],
      "name": "Approval",
      "type": "event"
    },
    {
      "anonymous": false,
      "inputs": [
        {
          "indexed": true,
          "internalType": "address",
          "name": "owner",
          "type": "address"
        },
        {
          "indexed": true,
          "internalType": "address",
          "name": "operator",
          "type": "address"
        },
        {
          "indexed": false,
          "internalType": "bool",
          "name": "approved",
          "type": "bool"
        }
      ],
      "name": "ApprovalForAll",
      "type": "event"
    },
    {
      "anonymous": false,
      "inputs": [
        {
          "indexed": true,
          "internalType": "address",
          "name": "previousOwner",
          "type": "address"
        },
        {
          "indexed": true,
          "internalType": "address",
          "name": "newOwner",
          "type": "address"
        }
      ],
      "name": "OwnershipTransferred",
      "type": "event"
    },
    {
      "anonymous": false,
      "inputs": [
        {
          "indexed": true,
          "internalType": "address",
          "name": "from",
          "type": "address"
        },
        {
          "indexed": true,
          "internalType": "address",
          "name": "to",
          "type": "address"
        },
        {
          "indexed": true,
          "internalType": "uint256",
          "name": "tokenId",
          "type": "uint256"
        }
      ],
      "name": "Transfer",
      "type": "event"
    },
    {
      "inputs": [],
      "name": "SUBSCRIPTION_DURATION",
      "outputs": [
        {
          "internalType": "uint256",
          "name": "",
          "type": "uint256"
        }
      ],
      "stateMutability": "view",
      "type": "function"
    },
    {
      "inputs": [],
      "name": "SUBSCRIPTION_PRICE",
      "outputs": [
        {
          "internalType": "uint256",
          "name": "",
          "type": "uint256"
        }
      ],
      "stateMutability": "view",
      "type": "function"
    },
    {
      "inputs": [
        {
          "internalType": "address",
          "name": "to",
          "type": "address"
        },
        {
          "internalType": "uint256",
          "name": "tokenId",
          "type": "uint256"
        }
      ],
      "name": "approve",
      "outputs": [],
      "stateMutability": "nonpayable",
      "type": "function"
    },
    {
      "inputs": [
        {
          "internalType": "address",
          "name": "owner",
          "type": "address"
        }
      ],
      "name": "balanceOf",
      "outputs": [
        {
          "internalType": "uint256",
          "name": "",
          "type": "uint256"
        }
      ],
      "stateMutability": "view",
      "type": "function"
    },
    {
      "inputs": [
        {
          "internalType": "uint256",
          "name": "tokenId",
          "type": "uint256"
        }
      ],
      "name": "getApproved",
      "outputs": [
        {
          "internalType": "address",
          "name": "",
          "type": "address"
        }
      ],
      "stateMutability": "view",
      "type": "function"
    },
    {
      "inputs": [
        {
          "internalType": "uint256",
          "name": "tokenId",
          "type": "uint256"
        }
      ],
      "name": "getSubscriptionExpiry",
      "outputs": [
        {
          "internalType": "uint256",
          "name": "",
          "type": "uint256"
        }
      ],
      "stateMutability": "view",
      "type": "function"
    },
    {
      "inputs": [
        {
          "internalType": "address",
          "name": "owner",
          "type": "address"
        },
        {
          "internalType": "address",
          "name": "operator",
          "type": "address"
        }
      ],
      "name": "isApprovedForAll",
      "outputs": [
        {
          "internalType": "bool",
          "name": "",
          "type": "bool"
        }
      ],
      "stateMutability": "view",
      "type": "function"
    },
    {
      "inputs": [
        {
          "internalType": "uint256",
          "name": "tokenId",
          "type": "uint256"
        }
      ],
      "name": "isSubscriptionActive",
      "outputs": [
        {
          "internalType": "bool",
          "name": "",
          "type": "bool"
        }
      ],
      "stateMutability": "view",
      "type": "function"
    },
    {
      "inputs": [],
      "name": "name",
      "outputs": [
        {
          "internalType": "string",
          "name": "",
          "type": "string"
        }
      ],
      "stateMutability": "view",
      "type": "function"
    },
    {
      "inputs": [],
      "name": "owner",
      "outputs": [
        {
          "internalType": "address",
          "name": "",
          "type": "address"
        }
      ],
      "stateMutability": "view",
      "type": "function"
    },
    {
      "inputs": [
        {
          "internalType": "uint256",
          "name": "tokenId",
          "type": "uint256"
        }
      ],
      "name": "ownerOf",
      "outputs": [
        {
          "internalType": "address",
          "name": "",
          "type": "address"
        }
      ],
      "stateMutability": "view",
      "type": "function"
    },
    {
      "inputs": [
        {
          "internalType": "uint256",
          "name": "tokenId",
          "type": "uint256"
        }
      ],
      "name": "renewSubscription",
      "outputs": [],
      "stateMutability": "payable",
      "type": "function"
    },
    {
      "inputs": [],
      "name": "renounceOwnership",
      "outputs": [],
      "stateMutability": "nonpayable",
      "type": "function"
    },
    {
      "inputs": [
        {
          "internalType": "address",
          "name": "from",
          "type": "address"
        },
        {
          "internalType": "address",
          "name": "to",
          "type": "address"
        },
        {
          "internalType": "uint256",
          "name": "tokenId",
          "type": "uint256"
        }
      ],
      "name": "safeTransferFrom",
      "outputs": [],
      "stateMutability": "nonpayable",
      "type": "function"
    },
    {
      "inputs": [
        {
          "internalType": "address",
          "name": "from",
          "type": "address"
        },
        {
          "internalType": "address",
          "name": "to",
          "type": "address"
        },
        {
          "internalType": "uint256",
          "name": "tokenId",
          "type": "uint256"
        },
        {
          "internalType": "bytes",
          "name": "data",
          "type": "bytes"
        }
      ],
      "name": "safeTransferFrom",
      "outputs": [],
      "stateMutability": "nonpayable",
      "type": "function"
    },
    {
      "inputs": [
        {
          "internalType": "address",
          "name": "operator",
          "type": "address"
        },
        {
          "internalType": "bool",
          "name": "approved",
          "type": "bool"
        }
      ],
      "name": "setApprovalForAll",
      "outputs": [],
      "stateMutability": "nonpayable",
      "type": "function"
    },
    {
      "inputs": [],
      "name": "subscribe",
      "outputs": [
        {
          "internalType": "uint256",
          "name": "",
          "type": "uint256"
        }
      ],
      "stateMutability": "payable",
      "type": "function"
    },
    {
      "inputs": [
        {
          "internalType": "uint256",
          "name": "",
          "type": "uint256"
        }
      ],
      "name": "subscriptionExpiry",
      "outputs": [
        {
          "internalType": "uint256",
          "name": "",
          "type": "uint256"
        }
      ],
      "stateMutability": "view",
      "type": "function"
    },
    {
      "inputs": [
        {
          "internalType": "bytes4",
          "name": "interfaceId",
          "type": "bytes4"
        }
      ],
      "name": "supportsInterface",
      "outputs": [
        {
          "internalType": "bool",
          "name": "",
          "type": "bool"
        }
      ],
      "stateMutability": "view",
      "type": "function"
    },
    {
      "inputs": [],
      "name": "symbol",
      "outputs": [
        {
          "internalType": "string",
          "name": "",
          "type": "string"
        }
      ],
      "stateMutability": "view",
      "type": "function"
    },
    {
      "inputs": [
        {
          "internalType": "uint256",
          "name": "tokenId",
          "type": "uint256"
        }
      ],
      "name": "tokenURI",
      "outputs": [
        {
          "internalType": "string",
          "name": "",
          "type": "string"
        }
      ],
      "stateMutability": "view",
      "type": "function"
    },
    {
      "inputs": [
        {
          "internalType": "address",
          "name": "from",
          "type": "address"
        },
        {
          "internalType": "address",
          "name": "to",
          "type": "address"
        },
        {
          "internalType": "uint256",
          "name": "tokenId",
          "type": "uint256"
        }
      ],
      "name": "transferFrom",
      "outputs": [],
      "stateMutability": "nonpayable",
      "type": "function"
    },
    {
      "inputs": [
        {
          "internalType": "address",
          "name": "newOwner",
          "type": "address"
        }
      ],
      "name": "transferOwnership",
      "outputs": [],
      "stateMutability": "nonpayable",
      "type": "function"
    },
    {
      "inputs": [],
      "name": "withdrawFunds",
      "outputs": [],
      "stateMutability": "nonpayable",
      "type": "function"
    }
  ],
  "bytecode": "0x608060405234801561001057600080fd5b506040518060400160405280601081526020016f2b28271029bab139b1b934b83a34b7b760811b8152506040518060400160405280600481526020016356504e5360e01b81525081600090816100669190610186565b5060016100738282610186565b50505061008c61008761009160201b60201c565b610095565b610244565b3390565b600680546001600160a01b038381166001600160a01b0319831681179093556040519116919082907f8be0079c531659141344cd1fd0a4f28419497f9722a3daafe3b4186f6b6457e090600090a35050565b634e487b7160e01b600052604160045260246000fd5b600181811c9082168061011157607f821691505b60208210810361013157634e487b7160e01b600052602260045260246000fd5b50919050565b601f82111561018157806000526020600020601f840160051c8101602085101561015e5750805b601f840160051c820191505b8181101561017e576000815560010161016a565b50505b505050565b81516001600160401b0381111561019f5761019f6100e7565b6101b3816101ad84546100fd565b84610137565b6020601f8211600181146101e757600083156101cf5750848201515b600019600385901b1c1916600184901b17845561017e565b600084815260208120601f198516915b8281101561021757878501518255602094850194600190920191016101f7565b50848210156102355786840151600019600387901b60f8161c191681555b50505050600190811b01905550565b61190a806102536000396000f3fe60806040526004361061014b5760003560e01c80638da5cb5b116100b6578063b88d4fde1161006f578063b88d4fde1461039b578063c87b56dd146103bb578063d71bb37b146103db578063e985e9c5146103ee578063f2fde38b1461040e578063f6847c821461042e57600080fd5b80638da5cb5b146102f35780638f449a051461031157806395d89b4114610319578063a0e26db91461032e578063a0f3b8761461034e578063a22cb4651461037b57600080fd5b806342842e0e1161010857806342842e0e1461023657806357e2c0f5146102565780636352211e146102765780636a890cb21461029657806370a08231146102be578063715018a6146102de57600080fd5b806301ffc9a71461015057806306fdde0314610185578063081812fc146101a7578063095ea7b3146101df57806323b872dd1461020157806324600fc314610221575b600080fd5b34801561015c57600080fd5b5061017061016b366004611435565b610445565b60405190151581526020015b60405180910390f35b34801561019157600080fd5b5061019a610497565b60405161017c91906114a2565b3480156101b357600080fd5b506101c76101c23660046114b5565b610529565b6040516001600160a01b03909116815260200161017c565b3480156101eb57600080fd5b506101ff6101fa3660046114ea565b610550565b005b34801561020d57600080fd5b506101ff61021c366004611514565b61066a565b34801561022d57600080fd5b506101ff61069b565b34801561024257600080fd5b506101ff610251366004611514565b61074c565b34801561026257600080fd5b506101706102713660046114b5565b610767565b34801561028257600080fd5b506101c76102913660046114b5565b6107a4565b3480156102a257600080fd5b506102b06509184e72a00081565b60405190815260200161017c565b3480156102ca57600080fd5b506102b06102d9366004611551565b610804565b3480156102ea57600080fd5b506101ff61088a565b3480156102ff57600080fd5b506006546001600160a01b03166101c7565b6102b061089e565b34801561032557600080fd5b5061019a610933565b34801561033a57600080fd5b506102b06103493660046114b5565b610942565b34801561035a57600080fd5b506102b06103693660046114b5565b60086020526000908152604090205481565b34801561038757600080fd5b506101ff61039636600461156c565b61097c565b3480156103a757600080fd5b506101ff6103b63660046115be565b61098b565b3480156103c757600080fd5b5061019a6103d63660046114b5565b6109c3565b6101ff6103e93660046114b5565b610a37565b3480156103fa57600080fd5b506101706104093660046116a2565b610b40565b34801561041a57600080fd5b506101ff610429366004611551565b610b6e565b34801561043a57600080fd5b506102b062278d0081565b60006001600160e01b031982166380ac58cd60e01b148061047657506001600160e01b03198216635b5e139f60e01b145b8061049157506301ffc9a760e01b6001600160e01b03198316145b92915050565b6060600080546104a6906116d5565b80601f01602080910402602001604051908101604052809291908181526020018280546104d2906116d5565b801561051f5780601f106104f45761010080835404028352916020019161051f565b820191906000526020600020905b81548152906001019060200180831161050257829003601f168201915b5050505050905090565b600061053482610be4565b506000908152600460205260409020546001600160a01b031690565b600061055b826107a4565b9050806001600160a01b0316836001600160a01b0316036105cd5760405162461bcd60e51b815260206004820152602160248201527f4552433732313a20617070726f76616c20746f2063757272656e74206f776e656044820152603960f91b60648201526084015b60405180910390fd5b336001600160a01b03821614806105e957506105e98133610b40565b61065b5760405162461bcd60e51b815260206004820152603d60248201527f4552433732313a20617070726f76652063616c6c6572206973206e6f7420746f60448201527f6b656e206f776e6572206f7220617070726f76656420666f7220616c6c00000060648201526084016105c4565b6106658383610c34565b505050565b6106743382610ca2565b6106905760405162461bcd60e51b81526004016105c49061170f565b610665838383610d01565b6106a3610e65565b60006106b76006546001600160a01b031690565b6001600160a01b03164760405160006040518083038185875af1925050503d8060008114610701576040519150601f19603f3d011682016040523d82523d6000602084013e610706565b606091505b50509050806107495760405162461bcd60e51b815260206004820152600f60248201526e151c985b9cd9995c8819985a5b1959608a1b60448201526064016105c4565b50565b6106658383836040518060200160405280600081525061098b565b600061077282610ebf565b61078e5760405162461bcd60e51b81526004016105c49061175c565b5060009081526008602052604090205442111590565b6000818152600260205260408120546001600160a01b0316806104915760405162461bcd60e51b8152602060048201526018602482015277115490cdcc8c4e881a5b9d985b1a59081d1bdad95b88125160421b60448201526064016105c4565b60006001600160a01b03821661086e5760405162461bcd60e51b815260206004820152602960248201527f4552433732313a2061646472657373207a65726f206973206e6f7420612076616044820152683634b21037bbb732b960b91b60648201526084016105c4565b506001600160a01b031660009081526003602052604090205490565b610892610e65565b61089c6000610edc565b565b60006509184e72a0003410156108ed5760405162461bcd60e51b8152602060048201526014602482015273125b9cdd59999a58da595b9d081c185e5b595b9d60621b60448201526064016105c4565b6108fb600780546001019055565b600061090660075490565b90506109123382610f2e565b61091f62278d0042611793565b600082815260086020526040902055919050565b6060600180546104a6906116d5565b600061094d82610ebf565b6109695760405162461bcd60e51b81526004016105c49061175c565b5060009081526008602052604090205490565b61098733838361109b565b5050565b6109953383610ca2565b6109b15760405162461bcd60e51b81526004016105c49061170f565b6109bd84848484611169565b50505050565b60606109ce82610be4565b60006109e560408051602081019091526000815290565b90506000815111610a055760405180602001604052806000815250610a30565b80610a0f8461119c565b604051602001610a209291906117b4565b6040516020818303038152906040525b9392505050565b610a4081610ebf565b610a5c5760405162461bcd60e51b81526004016105c49061175c565b33610a66826107a4565b6001600160a01b031614610ab55760405162461bcd60e51b81526020600482015260166024820152752737ba1039bab139b1b934b83a34b7b71037bbb732b960511b60448201526064016105c4565b6509184e72a000341015610b025760405162461bcd60e51b8152602060048201526014602482015273125b9cdd59999a58da595b9d081c185e5b595b9d60621b60448201526064016105c4565b60008181526008602052604081205462278d0090610b20904261122f565b610b2a9190611793565b6000928352600860205260409092209190915550565b6001600160a01b03918216600090815260056020908152604080832093909416825291909152205460ff1690565b610b76610e65565b6001600160a01b038116610bdb5760405162461bcd60e51b815260206004820152602660248201527f4f776e61626c653a206e6577206f776e657220697320746865207a65726f206160448201526564647265737360d01b60648201526084016105c4565b61074981610edc565b610bed81610ebf565b6107495760405162461bcd60e51b8152602060048201526018602482015277115490cdcc8c4e881a5b9d985b1a59081d1bdad95b88125160421b60448201526064016105c4565b600081815260046020526040902080546001600160a01b0319166001600160a01b0384169081179091558190610c69826107a4565b6001600160a01b03167f8c5be1e5ebec7d5bd14f71427d1e84f3dd0314c0f7b2291e5b200ac8c7c3b92560405160405180910390a45050565b600080610cae836107a4565b9050806001600160a01b0316846001600160a01b03161480610cd55750610cd58185610b40565b80610cf95750836001600160a01b0316610cee84610529565b6001600160a01b0316145b949350505050565b826001600160a01b0316610d14826107a4565b6001600160a01b031614610d3a5760405162461bcd60e51b81526004016105c4906117e3565b6001600160a01b038216610d9c5760405162461bcd60e51b8152602060048201526024808201527f4552433732313a207472616e7366657220746f20746865207a65726f206164646044820152637265737360e01b60648201526084016105c4565b826001600160a01b0316610daf826107a4565b6001600160a01b031614610dd55760405162461bcd60e51b81526004016105c4906117e3565b600081815260046020908152604080832080546001600160a01b03199081169091556001600160a01b0387811680865260038552838620805460001901905590871680865283862080546001019055868652600290945282852080549092168417909155905184937fddf252ad1be2c89b69c2b068fc378daa952ba7f163c4a11628f55a4df523b3ef91a4505050565b6006546001600160a01b0316331461089c5760405162461bcd60e51b815260206004820181905260248201527f4f776e61626c653a2063616c6c6572206973206e6f7420746865206f776e657260448201526064016105c4565b6000908152600260205260409020546001600160a01b0316151590565b600680546001600160a01b038381166001600160a01b0319831681179093556040519116919082907f8be0079c531659141344cd1fd0a4f28419497f9722a3daafe3b4186f6b6457e090600090a35050565b6001600160a01b038216610f845760405162461bcd60e51b815260206004820181905260248201527f4552433732313a206d696e7420746f20746865207a65726f206164647265737360448201526064016105c4565b610f8d81610ebf565b15610fda5760405162461bcd60e51b815260206004820152601c60248201527f4552433732313a20746f6b656e20616c7265616479206d696e7465640000000060448201526064016105c4565b610fe381610ebf565b156110305760405162461bcd60e51b815260206004820152601c60248201527f4552433732313a20746f6b656e20616c7265616479206d696e7465640000000060448201526064016105c4565b6001600160a01b038216600081815260036020908152604080832080546001019055848352600290915280822080546001600160a01b0319168417905551839291907fddf252ad1be2c89b69c2b068fc378daa952ba7f163c4a11628f55a4df523b3ef908290a45050565b816001600160a01b0316836001600160a01b0316036110fc5760405162461bcd60e51b815260206004820152601960248201527f4552433732313a20617070726f766520746f2063616c6c65720000000000000060448201526064016105c4565b6001600160a01b03838116600081815260056020908152604080832094871680845294825291829020805460ff191686151590811790915591519182527f17307eab39ab6107e8899845ad3d59bd9653f200f220920489ca2b5937696c31910160405180910390a3505050565b611174848484610d01565b61118084848484611246565b6109bd5760405162461bcd60e51b81526004016105c490611828565b606060006111a983611347565b600101905060008167ffffffffffffffff8111156111c9576111c96115a8565b6040519080825280601f01601f1916602001820160405280156111f3576020820181803683370190505b5090508181016020015b600019016f181899199a1a9b1b9c1cb0b131b232b360811b600a86061a8153600a85049450846111fd57509392505050565b60008183101561123f5781610a30565b5090919050565b60006001600160a01b0384163b1561133c57604051630a85bd0160e11b81526001600160a01b0385169063150b7a029061128a90339089908890889060040161187a565b6020604051808303816000875af19250505080156112c5575060408051601f3d908101601f191682019092526112c2918101906118b7565b60015b611322573d8080156112f3576040519150601f19603f3d011682016040523d82523d6000602084013e6112f8565b606091505b50805160000361131a5760405162461bcd60e51b81526004016105c490611828565b805181602001fd5b6001600160e01b031916630a85bd0160e11b149050610cf9565b506001949350505050565b60008072184f03e93ff9f4daa797ed6e38ed64bf6a1f0160401b83106113865772184f03e93ff9f4daa797ed6e38ed64bf6a1f0160401b830492506040015b6d04ee2d6d415b85acef810000000083106113b2576d04ee2d6d415b85acef8100000000830492506020015b662386f26fc1000083106113d057662386f26fc10000830492506010015b6305f5e10083106113e8576305f5e100830492506008015b61271083106113fc57612710830492506004015b6064831061140e576064830492506002015b600a83106104915760010192915050565b6001600160e01b03198116811461074957600080fd5b60006020828403121561144757600080fd5b8135610a308161141f565b60005b8381101561146d578181015183820152602001611455565b50506000910152565b6000815180845261148e816020860160208601611452565b601f01601f19169290920160200192915050565b602081526000610a306020830184611476565b6000602082840312156114c757600080fd5b5035919050565b80356001600160a01b03811681146114e557600080fd5b919050565b600080604083850312156114fd57600080fd5b611506836114ce565b946020939093013593505050565b60008060006060848603121561152957600080fd5b611532846114ce565b9250611540602085016114ce565b929592945050506040919091013590565b60006020828403121561156357600080fd5b610a30826114ce565b6000806040838503121561157f57600080fd5b611588836114ce565b91506020830135801515811461159d57600080fd5b809150509250929050565b634e487b7160e01b600052604160045260246000fd5b600080600080608085870312156115d457600080fd5b6115dd856114ce565b93506115eb602086016114ce565b925060408501359150606085013567ffffffffffffffff81111561160e57600080fd5b8501601f8101871361161f57600080fd5b803567ffffffffffffffff811115611639576116396115a8565b604051601f8201601f19908116603f0116810167ffffffffffffffff81118282101715611668576116686115a8565b60405281815282820160200189101561168057600080fd5b8160208401602083013760006020838301015280935050505092959194509250565b600080604083850312156116b557600080fd5b6116be836114ce565b91506116cc602084016114ce565b90509250929050565b600181811c908216806116e957607f821691505b60208210810361170957634e487b7160e01b600052602260045260246000fd5b50919050565b6020808252602d908201527f4552433732313a2063616c6c6572206973206e6f7420746f6b656e206f776e6560408201526c1c881bdc88185c1c1c9bdd9959609a1b606082015260800190565b6020808252601b908201527f537562736372697074696f6e20646f6573206e6f742065786973740000000000604082015260600190565b8082018082111561049157634e487b7160e01b600052601160045260246000fd5b600083516117c6818460208801611452565b8351908301906117da818360208801611452565b01949350505050565b60208082526025908201527f4552433732313a207472616e736665722066726f6d20696e636f72726563742060408201526437bbb732b960d91b606082015260800190565b60208082526032908201527f4552433732313a207472616e7366657220746f206e6f6e20455243373231526560408201527131b2b4bb32b91034b6b83632b6b2b73a32b960711b606082015260800190565b6001600160a01b03858116825284166020820152604081018390526080606082018190526000906118ad90830184611476565b9695505050505050565b6000602082840312156118c957600080fd5b8151610a308161141f56fea264697066735822122021296730fffd74a16c227ad2f24e29ef6ff5db10237c1bc05527c4295e2da96b64736f6c634300081c0033",
  "linkReferences": {},
  "deployedLinkReferences": {}
}