{
  "_format": "hh-sol-artifact-1",
  "contractName": "VPNRegistry",
  "sourceName": "contracts/VPNRegistry.sol",
  "abi": [
    {
      "inputs": [],
      "stateMutability": "nonpayable",
      "type": "constructor"
    },
    {
      "anonymous": false,
      "inputs": [
        {
          "indexed": true,
          "internalType": "address",
          "name": "nodeAddress",
          "type": "address"
        },
        {
          "indexed": false,
          "internalType": "uint256",
          "name": "latency",
          "type": "uint256"
        },
        {
          "indexed": false,
          "internalType": "uint256",
          "name": "bandwidth",
          "type": "uint256"
        },
        {
          "indexed": false,
          "internalType": "uint256",
          "name": "uptime",
          "type": "uint256"
        },
        {
          "indexed": false,
          "internalType": "uint256",
          "name": "reliability",
          "type": "uint256"
        },
        {
          "indexed": false,
          "internalType": "uint256",
          "name": "totalScore",
          "type": "uint256"
        }
      ],
      "name": "MetricsUpdated",
      "type": "event"
    },
    {
      "anonymous": false,
      "inputs": [
        {
          "indexed": true,
          "internalType": "address",
          "name": "nodeAddress",
          "type": "address"
        }
      ],
      "name": "NodeApproved",
      "type": "event"
    },
    {
      "anonymous": false,
      "inputs": [
        {
          "indexed": true,
          "internalType": "address",
          "name": "nodeAddress",
          "type": "address"
        }
      ],
      "name": "NodeDeactivated",
      "type": "event"
    },
    {
      "anonymous": false,
      "inputs": [
        {
          "indexed": true,
          "internalType": "address",
          "name": "nodeAddress",
          "type": "address"
        },
        {
          "indexed": false,
          "internalType": "string",
          "name": "ipAddress",
          "type": "string"
        },
        {
          "indexed": true,
          "internalType": "address",
          "name": "owner",
          "type": "address"
        }
      ],
      "name": "NodeRegistered",
      "type": "event"
    },
    {
      "inputs": [],
      "name": "admin",
      "outputs": [
        {
          "internalType": "address",
          "name": "",
          "type": "address"
        }
      ],
      "stateMutability": "view",
      "type": "function"
    },
    {
      "inputs": [
        {
          "internalType": "address",
          "name": "nodeAddress",
          "type": "address"
        }
      ],
      "name": "approveNode",
      "outputs": [],
      "stateMutability": "nonpayable",
      "type": "function"
    },
    {
      "inputs": [
        {
          "internalType": "address",
          "name": "nodeAddress",
          "type": "address"
        }
      ],
      "name": "deactivateNode",
      "outputs": [],
      "stateMutability": "nonpayable",
      "type": "function"
    },
    {
      "inputs": [],
      "name": "getActiveNodes",
      "outputs": [
        {
          "internalType": "address[]",
          "name": "",
          "type": "address[]"
        }
      ],
      "stateMutability": "view",
      "type": "function"
    },
    {
      "inputs": [],
      "name": "getBestNode",
      "outputs": [
        {
          "internalType": "address",
          "name": "",
          "type": "address"
        },
        {
          "internalType": "uint256",
          "name": "",
          "type": "uint256"
        }
      ],
      "stateMutability": "view",
      "type": "function"
    },
    {
      "inputs": [
        {
          "internalType": "address",
          "name": "nodeAddress",
          "type": "address"
        }
      ],
      "name": "getNodeDetails",
      "outputs": [
        {
          "internalType": "string",
          "name": "",
          "type": "string"
        },
        {
          "internalType": "address",
          "name": "",
          "type": "address"
        },
        {
          "internalType": "uint256",
          "name": "",
          "type": "uint256"
        },
        {
          "internalType": "bool",
          "name": "",
          "type": "bool"
        },
        {
          "internalType": "bool",
          "name": "",
          "type": "bool"
        },
        {
          "internalType": "uint256",
          "name": "",
          "type": "uint256"
        }
      ],
      "stateMutability": "view",
      "type": "function"
    },
    {
      "inputs": [
        {
          "internalType": "uint256",
          "name": "count",
          "type": "uint256"
        }
      ],
      "name": "getTopNodes",
      "outputs": [
        {
          "internalType": "address[]",
          "name": "",
          "type": "address[]"
        },
        {
          "internalType": "uint256[]",
          "name": "",
          "type": "uint256[]"
        }
      ],
      "stateMutability": "view",
      "type": "function"
    },
    {
      "inputs": [
        {
          "internalType": "uint256",
          "name": "",
          "type": "uint256"
        }
      ],
      "name": "nodeAddresses",
      "outputs": [
        {
          "internalType": "address",
          "name": "",
          "type": "address"
        }
      ],
      "stateMutability": "view",
      "type": "function"
    },
    {
      "inputs": [
        {
          "internalType": "address",
          "name": "",
          "type": "address"
        }
      ],
      "name": "nodes",
      "outputs": [
        {
          "internalType": "string",
          "name": "ipAddress",
          "type": "string"
        },
        {
          "internalType": "address",
          "name": "owner",
          "type": "address"
        },
        {
          "internalType": "bool",
          "name": "isApproved",
          "type": "bool"
        },
        {
          "internalType": "bool",
          "name": "isActive",
          "type": "bool"
        },
        {
          "internalType": "uint256",
          "name": "timestamp",
          "type": "uint256"
        },
        {
          "internalType": "uint256",
          "name": "latency",
          "type": "uint256"
        },
        {
          "internalType": "uint256",
          "name": "bandwidth",
          "type": "uint256"
        },
        {
          "internalType": "uint256",
          "name": "uptime",
          "type": "uint256"
        },
        {
          "internalType": "uint256",
          "name": "reliability",
          "type": "uint256"
        },
        {
          "internalType": "uint256",
          "name": "totalScore",
          "type": "uint256"
        }
      ],
      "stateMutability": "view",
      "type": "function"
    },
    {
      "inputs": [
        {
          "internalType": "address",
          "name": "nodeAddress",
          "type": "address"
        },
        {
          "internalType": "string",
          "name": "ipAddress",
          "type": "string"
        }
      ],
      "name": "registerNode",
      "outputs": [],
      "stateMutability": "nonpayable",
      "type": "function"
    },
    {
      "inputs": [
        {
          "internalType": "address",
          "name": "",
          "type": "address"
        }
      ],
      "name": "registeredNodes",
      "outputs": [
        {
          "internalType": "bool",
          "name": "",
          "type": "bool"
        }
      ],
      "stateMutability": "view",
      "type": "function"
    },
    {
      "inputs": [
        {
          "internalType": "address",
          "name": "nodeAddress",
          "type": "address"
        },
        {
          "internalType": "uint256",
          "name": "_latency",
          "type": "uint256"
        },
        {
          "internalType": "uint256",
          "name": "_bandwidth",
          "type": "uint256"
        },
        {
          "internalType": "uint256",
          "name": "_uptime",
          "type": "uint256"
        },
        {
          "internalType": "uint256",
          "name": "_reliability",
          "type": "uint256"
        }
      ],
      "name": "updateNodeMetrics",
      "outputs": [],
      "stateMutability": "nonpayable",
      "type": "function"
    }
  ],
  "bytecode": "0x6080604052348015600f57600080fd5b50600080546001600160a01b03191633179055611d0c806100316000396000f3fe608060405234801561001057600080fd5b50600436106100b45760003560e01c8063c4adf54b11610071578063c4adf54b14610174578063c4d7709014610187578063d3d1fb48146101b2578063dd4c97a0146101e5578063e243eaf0146101f8578063f851a4401461021957600080fd5b8063189a5a17146100b957806365814455146100eb5780636b51e919146101005780639ba446c914610115578063bafb35811461013c578063bb9b342d14610161575b600080fd5b6100cc6100c736600461174a565b61022c565b6040516100e29a999897969594939291906117b2565b60405180910390f35b6100fe6100f936600461174a565b610311565b005b610108610438565b6040516100e2919061185a565b61011d610670565b604080516001600160a01b0390931683526020830191909152016100e2565b61014f61014a36600461174a565b6107ee565b6040516100e29695949392919061186d565b6100fe61016f3660046118ca565b61099b565b6100fe610182366004611994565b610c55565b61019a6101953660046119d6565b610ead565b6040516001600160a01b0390911681526020016100e2565b6101d56101c036600461174a565b60036020526000908152604090205460ff1681565b60405190151581526020016100e2565b6100fe6101f336600461174a565b610ed7565b61020b6102063660046119d6565b610f95565b6040516100e29291906119ef565b60005461019a906001600160a01b031681565b60016020526000908152604090208054819061024790611a49565b80601f016020809104026020016040519081016040528092919081815260200182805461027390611a49565b80156102c05780601f10610295576101008083540402835291602001916102c0565b820191906000526020600020905b8154815290600101906020018083116102a357829003601f168201915b5050505060018301546002840154600385015460048601546005870154600688015460079098015496976001600160a01b0386169760ff600160a01b880481169850600160a81b909704909616958a565b6001600160a01b038116600090815260036020526040902054819060ff166103545760405162461bcd60e51b815260040161034b90611a83565b60405180910390fd5b6000546001600160a01b031633148061038a57506001600160a01b03828116600090815260016020819052604090912001541633145b6103e65760405162461bcd60e51b815260206004820152602760248201527f4f6e6c792061646d696e206f72206e6f6465206f776e65722063616e206465616044820152666374697661746560c81b606482015260840161034b565b6001600160a01b0382166000818152600160208190526040808320909101805460ff60a81b19169055517fd9957750e6343405c319eb99a4ec67fa11cfd66969318cbc71aa2d45fa53a3499190a25050565b60606000805b6002548110156104ff57600160006002838154811061045f5761045f611ab0565b60009182526020808320909101546001600160a01b0316835282019290925260400190206001015460ff600160a81b9091041680156104e4575060016000600283815481106104b0576104b0611ab0565b60009182526020808320909101546001600160a01b0316835282019290925260400190206001015460ff600160a01b909104165b156104f757816104f381611adc565b9250505b60010161043e565b5060008167ffffffffffffffff81111561051b5761051b6118b4565b604051908082528060200260200182016040528015610544578160200160208202803683370190505b5090506000805b60025481101561066757600160006002838154811061056c5761056c611ab0565b60009182526020808320909101546001600160a01b0316835282019290925260400190206001015460ff600160a81b9091041680156105f1575060016000600283815481106105bd576105bd611ab0565b60009182526020808320909101546001600160a01b0316835282019290925260400190206001015460ff600160a01b909104165b1561065f576002818154811061060957610609611ab0565b9060005260206000200160009054906101000a90046001600160a01b031683838151811061063957610639611ab0565b6001600160a01b03909216602092830291909101909101528161065b81611adc565b9250505b60010161054b565b50909392505050565b60025460009081906106ba5760405162461bcd60e51b8152602060048201526013602482015272139bc81b9bd9195cc81c9959da5cdd195c9959606a1b604482015260640161034b565b600080805b600254811015610796576000600282815481106106de576106de611ab0565b60009182526020808320909101546001600160a01b03168083526001918290526040909220015490915060ff600160a81b90910416801561074257506001600160a01b03811660009081526001602081905260409091200154600160a01b900460ff165b1561078d576001600160a01b03811660009081526001602052604090206007015483101561078d576001600160a01b0381166000908152600160205260409020600701549093509150825b506001016106bf565b506001600160a01b0382166107e55760405162461bcd60e51b8152602060048201526015602482015274139bc81858dd1a5d99481b9bd9195cc8199bdd5b99605a1b604482015260640161034b565b90939092509050565b6001600160a01b038116600090815260036020526040812054606091908190819081908190879060ff166108345760405162461bcd60e51b815260040161034b90611a83565b6001600160a01b0388166000908152600160205260408082208151610140810190925280548290829061086690611a49565b80601f016020809104026020016040519081016040528092919081815260200182805461089290611a49565b80156108df5780601f106108b4576101008083540402835291602001916108df565b820191906000526020600020905b8154815290600101906020018083116108c257829003601f168201915b505050918352505060018201546001600160a01b03811660208084019190915260ff600160a01b830481161515604080860191909152600160a81b9093041615156060808501919091526002850154608080860191909152600386015460a0860152600486015460c0860152600586015460e08601526006860154610100860152600790950154610120948501528551918601519386015192860151908601519590940151909e929d50909b5091995091975095509350505050565b6001600160a01b03821660009081526003602052604090205460ff1615610a045760405162461bcd60e51b815260206004820152601760248201527f4e6f646520616c72656164792072656769737465726564000000000000000000604482015260640161034b565b6000815111610a555760405162461bcd60e51b815260206004820152601a60248201527f495020616464726573732063616e6e6f7420626520656d707479000000000000604482015260640161034b565b610a5e816115c5565b610aaa5760405162461bcd60e51b815260206004820152601960248201527f496e76616c6964204950206164647265737320666f726d617400000000000000604482015260640161034b565b60408051610140810182528281523360208083019190915260008284018190526060830181905242608084015260a0830181905260c08301819052606460e0840152610100830181905261012083018190526001600160a01b038616815260019091529190912081518190610b1f9082611b44565b506020828101516001808401805460408088015160608901511515600160a81b0260ff60a81b19911515600160a01b026001600160a81b03199094166001600160a01b0397881617939093171691909117909155608086015160028087019190915560a087015160038088019190915560c0880151600488015560e0880151600588015561010088015160068801556101209097015160079096019590955584548083019095557f405787fa12a823e0f2b7631cc41b3ba8828b3321ca811111fa75cd3aa3bb5ace90940180549288166001600160a01b0319939093168317905560008281529490925292829020805460ff19169091179055513391907f604fb8f4b294861db7a506d41733c6d2b284bfc584623f6142eaca0d83a47c0290610c49908590611c03565b60405180910390a35050565b6000546001600160a01b03163314610c7f5760405162461bcd60e51b815260040161034b90611c16565b6001600160a01b038516600090815260036020526040902054859060ff16610cb95760405162461bcd60e51b815260040161034b90611a83565b6064831115610d025760405162461bcd60e51b81526020600482015260156024820152740557074696d65206d757374206265203c3d2031303605c1b604482015260640161034b565b6064821115610d535760405162461bcd60e51b815260206004820152601a60248201527f52656c696162696c697479206d757374206265203c3d20313030000000000000604482015260640161034b565b6001600160a01b038616600090815260016020526040812060038101879055600481018690556005810185905560068101849055906103e88711610db8576103e8610d9e8882611c58565b610da9906064611c71565b610db39190611c88565b610dbb565b60005b905060006103e88711610de5576103e8610dd6886064611c71565b610de09190611c88565b610de8565b60645b90506064610df7866014611c71565b610e02886019611c71565b610e0d846019611c71565b610e1886601e611c71565b610e229190611caa565b610e2c9190611caa565b610e369190611caa565b610e409190611c88565b60078401819055604080518a8152602081018a90529081018890526060810187905260808101919091526001600160a01b038a16907fd7f22bbfa2524e6e308b151c736e5b453ab2d8fa59fa8d2d46d0f2bf5362899a9060a00160405180910390a2505050505050505050565b60028181548110610ebd57600080fd5b6000918252602090912001546001600160a01b0316905081565b6000546001600160a01b03163314610f015760405162461bcd60e51b815260040161034b90611c16565b6001600160a01b038116600090815260036020526040902054819060ff16610f3b5760405162461bcd60e51b815260040161034b90611a83565b6001600160a01b0382166000818152600160208190526040808320909101805461ffff60a01b191661010160a01b179055517fc3d551ebc292891a4293fa7e08efe31a4abb41022df997ed0025b244902ff5bd9190a25050565b60608060008311610fe85760405162461bcd60e51b815260206004820152601c60248201527f436f756e74206d7573742062652067726561746572207468616e203000000000604482015260640161034b565b6000805b6002548110156110ad57600160006002838154811061100d5761100d611ab0565b60009182526020808320909101546001600160a01b0316835282019290925260400190206001015460ff600160a81b9091041680156110925750600160006002838154811061105e5761105e611ab0565b60009182526020808320909101546001600160a01b0316835282019290925260400190206001015460ff600160a01b909104165b156110a557816110a181611adc565b9250505b600101610fec565b50808411156110ba578093505b60008167ffffffffffffffff8111156110d5576110d56118b4565b6040519080825280602002602001820160405280156110fe578160200160208202803683370190505b50905060008267ffffffffffffffff81111561111c5761111c6118b4565b604051908082528060200260200182016040528015611145578160200160208202803683370190505b5090506000805b6002548110156112ce57600160006002838154811061116d5761116d611ab0565b60009182526020808320909101546001600160a01b0316835282019290925260400190206001015460ff600160a81b9091041680156111f2575060016000600283815481106111be576111be611ab0565b60009182526020808320909101546001600160a01b0316835282019290925260400190206001015460ff600160a01b909104165b156112c6576002818154811061120a5761120a611ab0565b9060005260206000200160009054906101000a90046001600160a01b031684838151811061123a5761123a611ab0565b60200260200101906001600160a01b031690816001600160a01b031681525050600160006002838154811061127157611271611ab0565b60009182526020808320909101546001600160a01b0316835282019290925260400190206007015483518490849081106112ad576112ad611ab0565b6020908102919091010152816112c281611adc565b9250505b60010161114c565b5060005b6112dd600186611c58565b8110156114915760005b60016112f38388611c58565b6112fd9190611c58565b8110156114885783611310826001611caa565b8151811061132057611320611ab0565b602002602001015184828151811061133a5761133a611ab0565b6020026020010151101561148057600084828151811061135c5761135c611ab0565b60200260200101519050848260016113749190611caa565b8151811061138457611384611ab0565b602002602001015185838151811061139e5761139e611ab0565b602090810291909101015280856113b6846001611caa565b815181106113c6576113c6611ab0565b60200260200101818152505060008683815181106113e6576113e6611ab0565b60200260200101519050868360016113fe9190611caa565b8151811061140e5761140e611ab0565b602002602001015187848151811061142857611428611ab0565b6001600160a01b0390921660209283029190910190910152808761144d856001611caa565b8151811061145d5761145d611ab0565b60200260200101906001600160a01b031690816001600160a01b03168152505050505b6001016112e7565b506001016112d2565b5060008767ffffffffffffffff8111156114ad576114ad6118b4565b6040519080825280602002602001820160405280156114d6578160200160208202803683370190505b50905060008867ffffffffffffffff8111156114f4576114f46118b4565b60405190808252806020026020018201604052801561151d578160200160208202803683370190505b50905060005b898110156115b65785818151811061153d5761153d611ab0565b602002602001015183828151811061155757611557611ab0565b60200260200101906001600160a01b031690816001600160a01b03168152505084818151811061158957611589611ab0565b60200260200101518282815181106115a3576115a3611ab0565b6020908102919091010152600101611523565b50909890975095505050505050565b600081818080805b8451811015611709578481815181106115e8576115e8611ab0565b01602001516001600160f81b031916601760f91b036116585761160c826001611caa565b811480611617575080155b15611629575060009695505050505050565b8361163381611adc565b945050600384111561164c575060009695505050505050565b60009250809150611701565b603085828151811061166c5761166c611ab0565b016020015160f81c10806116995750603985828151811061168f5761168f611ab0565b016020015160f81c115b156116ab575060009695505050505050565b60308582815181106116bf576116bf611ab0565b01602001516116d1919060f81c611cbd565b60ff166116df84600a611c71565b6116e99190611caa565b925060ff831115611701575060009695505050505050565b6001016115cd565b508260031480156117245750611720816001611caa565b8451115b9695505050505050565b80356001600160a01b038116811461174557600080fd5b919050565b60006020828403121561175c57600080fd5b6117658261172e565b9392505050565b6000815180845260005b8181101561179257602081850181015186830182015201611776565b506000602082860101526020601f19601f83011685010191505092915050565b610140815260006117c761014083018d61176c565b6001600160a01b039b909b1660208301525097151560408901529515156060880152608087019490945260a086019290925260c085015260e084015261010083015261012090910152919050565b600081518084526020840193506020830160005b828110156118505781516001600160a01b0316865260209586019590910190600101611829565b5093949350505050565b6020815260006117656020830184611815565b60c08152600061188060c083018961176c565b6001600160a01b0397909716602083015250604081019490945291151560608401521515608083015260a090910152919050565b634e487b7160e01b600052604160045260246000fd5b600080604083850312156118dd57600080fd5b6118e68361172e565b9150602083013567ffffffffffffffff81111561190257600080fd5b8301601f8101851361191357600080fd5b803567ffffffffffffffff81111561192d5761192d6118b4565b604051601f8201601f19908116603f0116810167ffffffffffffffff8111828210171561195c5761195c6118b4565b60405281815282820160200187101561197457600080fd5b816020840160208301376000602083830101528093505050509250929050565b600080600080600060a086880312156119ac57600080fd5b6119b58661172e565b97602087013597506040870135966060810135965060800135945092505050565b6000602082840312156119e857600080fd5b5035919050565b604081526000611a026040830185611815565b828103602084015280845180835260208301915060208601925060005b81811015611a3d578351835260209384019390920191600101611a1f565b50909695505050505050565b600181811c90821680611a5d57607f821691505b602082108103611a7d57634e487b7160e01b600052602260045260246000fd5b50919050565b602080825260139082015272139bd91948191bd95cc81b9bdd08195e1a5cdd606a1b604082015260600190565b634e487b7160e01b600052603260045260246000fd5b634e487b7160e01b600052601160045260246000fd5b600060018201611aee57611aee611ac6565b5060010190565b601f821115611b3f57806000526020600020601f840160051c81016020851015611b1c5750805b601f840160051c820191505b81811015611b3c5760008155600101611b28565b50505b505050565b815167ffffffffffffffff811115611b5e57611b5e6118b4565b611b7281611b6c8454611a49565b84611af5565b6020601f821160018114611ba65760008315611b8e5750848201515b600019600385901b1c1916600184901b178455611b3c565b600084815260208120601f198516915b82811015611bd65787850151825560209485019460019092019101611bb6565b5084821015611bf45786840151600019600387901b60f8161c191681555b50505050600190811b01905550565b602081526000611765602083018461176c565b60208082526022908201527f4f6e6c792061646d696e2063616e20706572666f726d2074686973206163746960408201526137b760f11b606082015260800190565b81810381811115611c6b57611c6b611ac6565b92915050565b8082028115828204841417611c6b57611c6b611ac6565b600082611ca557634e487b7160e01b600052601260045260246000fd5b500490565b80820180821115611c6b57611c6b611ac6565b60ff8281168282160390811115611c6b57611c6b611ac656fea26469706673582212200455e3b1059a9b96ab395263dd2f27d179e0a4f927f81f1e4270a02daf1c078264736f6c634300081c0033",
  "linkReferences": {},
  "deployedLinkReferences": {}
}