{
  "_format": "hh-sol-artifact-1",
  "contractName": "VPNRegistry",
  "sourceName": "contracts/VPNRegistry.sol",
  "abi": [
    {
      "inputs": [],
      "stateMutability": "nonpayable",
      "type": "constructor"
    },
    {
      "anonymous": false,
      "inputs": [
        {
          "indexed": true,
          "internalType": "address",
          "name": "newAdmin",
          "type": "address"
        }
      ],
      "name": "AdminAdded",
      "type": "event"
    },
    {
      "anonymous": false,
      "inputs": [
        {
          "indexed": true,
          "internalType": "address",
          "name": "removedAdmin",
          "type": "address"
        }
      ],
      "name": "AdminRemoved",
      "type": "event"
    },
    {
      "anonymous": false,
      "inputs": [
        {
          "indexed": true,
          "internalType": "address",
          "name": "nodeAddress",
          "type": "address"
        },
        {
          "indexed": false,
          "internalType": "uint256",
          "name": "latency",
          "type": "uint256"
        },
        {
          "indexed": false,
          "internalType": "uint256",
          "name": "bandwidth",
          "type": "uint256"
        },
        {
          "indexed": false,
          "internalType": "uint256",
          "name": "uptime",
          "type": "uint256"
        },
        {
          "indexed": false,
          "internalType": "uint256",
          "name": "reliability",
          "type": "uint256"
        },
        {
          "indexed": false,
          "internalType": "uint256",
          "name": "totalScore",
          "type": "uint256"
        }
      ],
      "name": "MetricsUpdated",
      "type": "event"
    },
    {
      "anonymous": false,
      "inputs": [
        {
          "indexed": true,
          "internalType": "address",
          "name": "nodeAddress",
          "type": "address"
        }
      ],
      "name": "NodeApproved",
      "type": "event"
    },
    {
      "anonymous": false,
      "inputs": [
        {
          "indexed": true,
          "internalType": "address",
          "name": "nodeAddress",
          "type": "address"
        }
      ],
      "name": "NodeDeactivated",
      "type": "event"
    },
    {
      "anonymous": false,
      "inputs": [
        {
          "indexed": true,
          "internalType": "address",
          "name": "nodeAddress",
          "type": "address"
        },
        {
          "indexed": false,
          "internalType": "string",
          "name": "ipAddress",
          "type": "string"
        },
        {
          "indexed": true,
          "internalType": "address",
          "name": "owner",
          "type": "address"
        }
      ],
      "name": "NodeRegistered",
      "type": "event"
    },
    {
      "inputs": [
        {
          "internalType": "address",
          "name": "newAdmin",
          "type": "address"
        }
      ],
      "name": "addAdmin",
      "outputs": [],
      "stateMutability": "nonpayable",
      "type": "function"
    },
    {
      "inputs": [],
      "name": "admin",
      "outputs": [
        {
          "internalType": "address",
          "name": "",
          "type": "address"
        }
      ],
      "stateMutability": "view",
      "type": "function"
    },
    {
      "inputs": [
        {
          "internalType": "address",
          "name": "",
          "type": "address"
        }
      ],
      "name": "admins",
      "outputs": [
        {
          "internalType": "bool",
          "name": "",
          "type": "bool"
        }
      ],
      "stateMutability": "view",
      "type": "function"
    },
    {
      "inputs": [
        {
          "internalType": "address",
          "name": "nodeAddress",
          "type": "address"
        }
      ],
      "name": "approveNode",
      "outputs": [],
      "stateMutability": "nonpayable",
      "type": "function"
    },
    {
      "inputs": [
        {
          "internalType": "address",
          "name": "nodeAddress",
          "type": "address"
        }
      ],
      "name": "deactivateNode",
      "outputs": [],
      "stateMutability": "nonpayable",
      "type": "function"
    },
    {
      "inputs": [],
      "name": "getActiveNodes",
      "outputs": [
        {
          "internalType": "address[]",
          "name": "",
          "type": "address[]"
        }
      ],
      "stateMutability": "view",
      "type": "function"
    },
    {
      "inputs": [],
      "name": "getBestNode",
      "outputs": [
        {
          "internalType": "address",
          "name": "",
          "type": "address"
        },
        {
          "internalType": "uint256",
          "name": "",
          "type": "uint256"
        }
      ],
      "stateMutability": "view",
      "type": "function"
    },
    {
      "inputs": [
        {
          "internalType": "address",
          "name": "nodeAddress",
          "type": "address"
        }
      ],
      "name": "getNodeDetails",
      "outputs": [
        {
          "internalType": "string",
          "name": "",
          "type": "string"
        },
        {
          "internalType": "address",
          "name": "",
          "type": "address"
        },
        {
          "internalType": "uint256",
          "name": "",
          "type": "uint256"
        },
        {
          "internalType": "bool",
          "name": "",
          "type": "bool"
        },
        {
          "internalType": "bool",
          "name": "",
          "type": "bool"
        },
        {
          "internalType": "uint256",
          "name": "",
          "type": "uint256"
        }
      ],
      "stateMutability": "view",
      "type": "function"
    },
    {
      "inputs": [
        {
          "internalType": "uint256",
          "name": "count",
          "type": "uint256"
        }
      ],
      "name": "getTopNodes",
      "outputs": [
        {
          "internalType": "address[]",
          "name": "",
          "type": "address[]"
        },
        {
          "internalType": "uint256[]",
          "name": "",
          "type": "uint256[]"
        }
      ],
      "stateMutability": "view",
      "type": "function"
    },
    {
      "inputs": [
        {
          "internalType": "address",
          "name": "account",
          "type": "address"
        }
      ],
      "name": "isAdmin",
      "outputs": [
        {
          "internalType": "bool",
          "name": "",
          "type": "bool"
        }
      ],
      "stateMutability": "view",
      "type": "function"
    },
    {
      "inputs": [
        {
          "internalType": "uint256",
          "name": "",
          "type": "uint256"
        }
      ],
      "name": "nodeAddresses",
      "outputs": [
        {
          "internalType": "address",
          "name": "",
          "type": "address"
        }
      ],
      "stateMutability": "view",
      "type": "function"
    },
    {
      "inputs": [
        {
          "internalType": "address",
          "name": "",
          "type": "address"
        }
      ],
      "name": "nodes",
      "outputs": [
        {
          "internalType": "string",
          "name": "ipAddress",
          "type": "string"
        },
        {
          "internalType": "address",
          "name": "owner",
          "type": "address"
        },
        {
          "internalType": "bool",
          "name": "isApproved",
          "type": "bool"
        },
        {
          "internalType": "bool",
          "name": "isActive",
          "type": "bool"
        },
        {
          "internalType": "uint256",
          "name": "timestamp",
          "type": "uint256"
        },
        {
          "internalType": "uint256",
          "name": "latency",
          "type": "uint256"
        },
        {
          "internalType": "uint256",
          "name": "bandwidth",
          "type": "uint256"
        },
        {
          "internalType": "uint256",
          "name": "uptime",
          "type": "uint256"
        },
        {
          "internalType": "uint256",
          "name": "reliability",
          "type": "uint256"
        },
        {
          "internalType": "uint256",
          "name": "totalScore",
          "type": "uint256"
        }
      ],
      "stateMutability": "view",
      "type": "function"
    },
    {
      "inputs": [
        {
          "internalType": "address",
          "name": "nodeAddress",
          "type": "address"
        },
        {
          "internalType": "string",
          "name": "ipAddress",
          "type": "string"
        }
      ],
      "name": "registerNode",
      "outputs": [],
      "stateMutability": "nonpayable",
      "type": "function"
    },
    {
      "inputs": [
        {
          "internalType": "address",
          "name": "",
          "type": "address"
        }
      ],
      "name": "registeredNodes",
      "outputs": [
        {
          "internalType": "bool",
          "name": "",
          "type": "bool"
        }
      ],
      "stateMutability": "view",
      "type": "function"
    },
    {
      "inputs": [
        {
          "internalType": "address",
          "name": "adminToRemove",
          "type": "address"
        }
      ],
      "name": "removeAdmin",
      "outputs": [],
      "stateMutability": "nonpayable",
      "type": "function"
    },
    {
      "inputs": [
        {
          "internalType": "address",
          "name": "nodeAddress",
          "type": "address"
        },
        {
          "internalType": "uint256",
          "name": "_latency",
          "type": "uint256"
        },
        {
          "internalType": "uint256",
          "name": "_bandwidth",
          "type": "uint256"
        },
        {
          "internalType": "uint256",
          "name": "_uptime",
          "type": "uint256"
        },
        {
          "internalType": "uint256",
          "name": "_reliability",
          "type": "uint256"
        }
      ],
      "name": "updateNodeMetrics",
      "outputs": [],
      "stateMutability": "nonpayable",
      "type": "function"
    }
  ],
  "bytecode": "0x6080604052348015600f57600080fd5b50600080546001600160a01b0319163390811782558152600160208190526040909120805460ff191690911790556120c38061004c6000396000f3fe608060405234801561001057600080fd5b50600436106101005760003560e01c8063bafb358111610097578063d3d1fb4811610066578063d3d1fb481461026a578063dd4c97a01461028d578063e243eaf0146102a0578063f851a440146102c157600080fd5b8063bafb3581146101f4578063bb9b342d14610219578063c4adf54b1461022c578063c4d770901461023f57600080fd5b806365814455116100d357806365814455146101925780636b51e919146101a557806370480275146101ba5780639ba446c9146101cd57600080fd5b80631785f53c14610105578063189a5a171461011a57806324d7806c1461014c578063429b62e51461016f575b600080fd5b610118610113366004611abf565b6102d4565b005b61012d610128366004611abf565b610416565b6040516101439a99989796959493929190611b27565b60405180910390f35b61015f61015a366004611abf565b6104fb565b6040519015158152602001610143565b61015f61017d366004611abf565b60016020526000908152604090205460ff1681565b6101186101a0366004611abf565b610536565b6101ad610651565b6040516101439190611bcf565b6101186101c8366004611abf565b610889565b6101d56109b3565b604080516001600160a01b039093168352602083019190915201610143565b610207610202366004611abf565b610b31565b60405161014396959493929190611be2565b610118610227366004611c3f565b610cde565b61011861023a366004611d09565b610f98565b61025261024d366004611d4b565b61120a565b6040516001600160a01b039091168152602001610143565b61015f610278366004611abf565b60046020526000908152604090205460ff1681565b61011861029b366004611abf565b611234565b6102b36102ae366004611d4b565b61130a565b604051610143929190611d64565b600054610252906001600160a01b031681565b6000546001600160a01b031633146103075760405162461bcd60e51b81526004016102fe90611dbe565b60405180910390fd5b6000546001600160a01b03908116908216036103655760405162461bcd60e51b815260206004820152601960248201527f43616e6e6f742072656d6f76652073757065722061646d696e0000000000000060448201526064016102fe565b6001600160a01b03811660009081526001602052604090205460ff166103cd5760405162461bcd60e51b815260206004820152601760248201527f41646472657373206973206e6f7420616e2061646d696e00000000000000000060448201526064016102fe565b6001600160a01b038116600081815260016020526040808220805460ff19169055517fa3b62bc36326052d97ea62d63c3d60308ed4c3ea8ac079dd8499f1e9c4f80c0f9190a250565b60026020526000908152604090208054819061043190611e06565b80601f016020809104026020016040519081016040528092919081815260200182805461045d90611e06565b80156104aa5780601f1061047f576101008083540402835291602001916104aa565b820191906000526020600020905b81548152906001019060200180831161048d57829003601f168201915b5050505060018301546002840154600385015460048601546005870154600688015460079098015496976001600160a01b0386169760ff600160a01b880481169850600160a81b909704909616958a565b600080546001600160a01b038381169116148061053057506001600160a01b03821660009081526001602052604090205460ff165b92915050565b6001600160a01b038116600090815260046020526040902054819060ff166105705760405162461bcd60e51b81526004016102fe90611e40565b6000546001600160a01b03163314806105a557506001600160a01b038281166000908152600260205260409020600101541633145b6106015760405162461bcd60e51b815260206004820152602760248201527f4f6e6c792061646d696e206f72206e6f6465206f776e65722063616e206465616044820152666374697661746560c81b60648201526084016102fe565b6001600160a01b038216600081815260026020526040808220600101805460ff60a81b19169055517fd9957750e6343405c319eb99a4ec67fa11cfd66969318cbc71aa2d45fa53a3499190a25050565b60606000805b60035481101561071857600260006003838154811061067857610678611e6d565b60009182526020808320909101546001600160a01b0316835282019290925260400190206001015460ff600160a81b9091041680156106fd575060026000600383815481106106c9576106c9611e6d565b60009182526020808320909101546001600160a01b0316835282019290925260400190206001015460ff600160a01b909104165b15610710578161070c81611e99565b9250505b600101610657565b5060008167ffffffffffffffff81111561073457610734611c29565b60405190808252806020026020018201604052801561075d578160200160208202803683370190505b5090506000805b60035481101561088057600260006003838154811061078557610785611e6d565b60009182526020808320909101546001600160a01b0316835282019290925260400190206001015460ff600160a81b90910416801561080a575060026000600383815481106107d6576107d6611e6d565b60009182526020808320909101546001600160a01b0316835282019290925260400190206001015460ff600160a01b909104165b15610878576003818154811061082257610822611e6d565b9060005260206000200160009054906101000a90046001600160a01b031683838151811061085257610852611e6d565b6001600160a01b03909216602092830291909101909101528161087481611e99565b9250505b600101610764565b50909392505050565b6000546001600160a01b031633146108b35760405162461bcd60e51b81526004016102fe90611dbe565b6001600160a01b0381166108fb5760405162461bcd60e51b815260206004820152600f60248201526e496e76616c6964206164647265737360881b60448201526064016102fe565b6001600160a01b03811660009081526001602052604090205460ff16156109645760405162461bcd60e51b815260206004820152601b60248201527f4164647265737320697320616c726561647920616e2061646d696e000000000060448201526064016102fe565b6001600160a01b0381166000818152600160208190526040808320805460ff1916909217909155517f44d6d25963f097ad14f29f06854a01f575648a1ef82f30e562ccd3889717e3399190a250565b60035460009081906109fd5760405162461bcd60e51b8152602060048201526013602482015272139bc81b9bd9195cc81c9959da5cdd195c9959606a1b60448201526064016102fe565b600080805b600354811015610ad957600060038281548110610a2157610a21611e6d565b60009182526020808320909101546001600160a01b0316808352600290915260409091206001015490915060ff600160a81b909104168015610a8557506001600160a01b038116600090815260026020526040902060010154600160a01b900460ff165b15610ad0576001600160a01b038116600090815260026020526040902060070154831015610ad0576001600160a01b0381166000908152600260205260409020600701549093509150825b50600101610a02565b506001600160a01b038216610b285760405162461bcd60e51b8152602060048201526015602482015274139bc81858dd1a5d99481b9bd9195cc8199bdd5b99605a1b60448201526064016102fe565b90939092509050565b6001600160a01b038116600090815260046020526040812054606091908190819081908190879060ff16610b775760405162461bcd60e51b81526004016102fe90611e40565b6001600160a01b03881660009081526002602052604080822081516101408101909252805482908290610ba990611e06565b80601f0160208091040260200160405190810160405280929190818152602001828054610bd590611e06565b8015610c225780601f10610bf757610100808354040283529160200191610c22565b820191906000526020600020905b815481529060010190602001808311610c0557829003601f168201915b505050918352505060018201546001600160a01b03811660208084019190915260ff600160a01b830481161515604080860191909152600160a81b9093041615156060808501919091526002850154608080860191909152600386015460a0860152600486015460c0860152600586015460e08601526006860154610100860152600790950154610120948501528551918601519386015192860151908601519590940151909e929d50909b5091995091975095509350505050565b6001600160a01b03821660009081526004602052604090205460ff1615610d475760405162461bcd60e51b815260206004820152601760248201527f4e6f646520616c7265616479207265676973746572656400000000000000000060448201526064016102fe565b6000815111610d985760405162461bcd60e51b815260206004820152601a60248201527f495020616464726573732063616e6e6f7420626520656d70747900000000000060448201526064016102fe565b610da18161193a565b610ded5760405162461bcd60e51b815260206004820152601960248201527f496e76616c6964204950206164647265737320666f726d61740000000000000060448201526064016102fe565b60408051610140810182528281523360208083019190915260008284018190526060830181905242608084015260a0830181905260c08301819052606460e0840152610100830181905261012083018190526001600160a01b038616815260029091529190912081518190610e629082611f01565b506020828101516001808401805460408088015160608901511515600160a81b0260ff60a81b19911515600160a01b026001600160a81b03199094166001600160a01b03978816179390931716919091179091556080860151600286015560a086015160038087019190915560c087015160048088019190915560e0880151600588015561010088015160068801556101209097015160079096019590955584548083019095557fc2575a0e9e593c00f959f8c92f12db2869c3395a3b0502d05e2516446f71f85b90940180549288166001600160a01b0319939093168317905560008281529490925292829020805460ff19169091179055513391907f604fb8f4b294861db7a506d41733c6d2b284bfc584623f6142eaca0d83a47c0290610f8c908590611fc0565b60405180910390a35050565b6000546001600160a01b0316331480610fc057503360009081526001602052604090205460ff165b610fdc5760405162461bcd60e51b81526004016102fe90611fd3565b6001600160a01b038516600090815260046020526040902054859060ff166110165760405162461bcd60e51b81526004016102fe90611e40565b606483111561105f5760405162461bcd60e51b81526020600482015260156024820152740557074696d65206d757374206265203c3d2031303605c1b60448201526064016102fe565b60648211156110b05760405162461bcd60e51b815260206004820152601a60248201527f52656c696162696c697479206d757374206265203c3d2031303000000000000060448201526064016102fe565b6001600160a01b038616600090815260026020526040812060038101879055600481018690556005810185905560068101849055906103e88711611115576103e86110fb8882612015565b611106906064612028565b611110919061203f565b611118565b60005b905060006103e88711611142576103e8611133886064612028565b61113d919061203f565b611145565b60645b90506064611154866014612028565b61115f886019612028565b61116a846019612028565b61117586601e612028565b61117f9190612061565b6111899190612061565b6111939190612061565b61119d919061203f565b60078401819055604080518a8152602081018a90529081018890526060810187905260808101919091526001600160a01b038a16907fd7f22bbfa2524e6e308b151c736e5b453ab2d8fa59fa8d2d46d0f2bf5362899a9060a00160405180910390a2505050505050505050565b6003818154811061121a57600080fd5b6000918252602090912001546001600160a01b0316905081565b6000546001600160a01b031633148061125c57503360009081526001602052604090205460ff165b6112785760405162461bcd60e51b81526004016102fe90611fd3565b6001600160a01b038116600090815260046020526040902054819060ff166112b25760405162461bcd60e51b81526004016102fe90611e40565b6001600160a01b038216600081815260026020526040808220600101805461ffff60a01b191661010160a01b179055517fc3d551ebc292891a4293fa7e08efe31a4abb41022df997ed0025b244902ff5bd9190a25050565b6060806000831161135d5760405162461bcd60e51b815260206004820152601c60248201527f436f756e74206d7573742062652067726561746572207468616e20300000000060448201526064016102fe565b6000805b60035481101561142257600260006003838154811061138257611382611e6d565b60009182526020808320909101546001600160a01b0316835282019290925260400190206001015460ff600160a81b909104168015611407575060026000600383815481106113d3576113d3611e6d565b60009182526020808320909101546001600160a01b0316835282019290925260400190206001015460ff600160a01b909104165b1561141a578161141681611e99565b9250505b600101611361565b508084111561142f578093505b60008167ffffffffffffffff81111561144a5761144a611c29565b604051908082528060200260200182016040528015611473578160200160208202803683370190505b50905060008267ffffffffffffffff81111561149157611491611c29565b6040519080825280602002602001820160405280156114ba578160200160208202803683370190505b5090506000805b6003548110156116435760026000600383815481106114e2576114e2611e6d565b60009182526020808320909101546001600160a01b0316835282019290925260400190206001015460ff600160a81b9091041680156115675750600260006003838154811061153357611533611e6d565b60009182526020808320909101546001600160a01b0316835282019290925260400190206001015460ff600160a01b909104165b1561163b576003818154811061157f5761157f611e6d565b9060005260206000200160009054906101000a90046001600160a01b03168483815181106115af576115af611e6d565b60200260200101906001600160a01b031690816001600160a01b03168152505060026000600383815481106115e6576115e6611e6d565b60009182526020808320909101546001600160a01b03168352820192909252604001902060070154835184908490811061162257611622611e6d565b60209081029190910101528161163781611e99565b9250505b6001016114c1565b5060005b611652600186612015565b8110156118065760005b60016116688388612015565b6116729190612015565b8110156117fd5783611685826001612061565b8151811061169557611695611e6d565b60200260200101518482815181106116af576116af611e6d565b602002602001015110156117f55760008482815181106116d1576116d1611e6d565b60200260200101519050848260016116e99190612061565b815181106116f9576116f9611e6d565b602002602001015185838151811061171357611713611e6d565b6020908102919091010152808561172b846001612061565b8151811061173b5761173b611e6d565b602002602001018181525050600086838151811061175b5761175b611e6d565b60200260200101519050868360016117739190612061565b8151811061178357611783611e6d565b602002602001015187848151811061179d5761179d611e6d565b6001600160a01b039092166020928302919091019091015280876117c2856001612061565b815181106117d2576117d2611e6d565b60200260200101906001600160a01b031690816001600160a01b03168152505050505b60010161165c565b50600101611647565b5060008767ffffffffffffffff81111561182257611822611c29565b60405190808252806020026020018201604052801561184b578160200160208202803683370190505b50905060008867ffffffffffffffff81111561186957611869611c29565b604051908082528060200260200182016040528015611892578160200160208202803683370190505b50905060005b8981101561192b578581815181106118b2576118b2611e6d565b60200260200101518382815181106118cc576118cc611e6d565b60200260200101906001600160a01b031690816001600160a01b0316815250508481815181106118fe576118fe611e6d565b602002602001015182828151811061191857611918611e6d565b6020908102919091010152600101611898565b50909890975095505050505050565b600081818080805b8451811015611a7e5784818151811061195d5761195d611e6d565b01602001516001600160f81b031916601760f91b036119cd57611981826001612061565b81148061198c575080155b1561199e575060009695505050505050565b836119a881611e99565b94505060038411156119c1575060009695505050505050565b60009250809150611a76565b60308582815181106119e1576119e1611e6d565b016020015160f81c1080611a0e57506039858281518110611a0457611a04611e6d565b016020015160f81c115b15611a20575060009695505050505050565b6030858281518110611a3457611a34611e6d565b0160200151611a46919060f81c612074565b60ff16611a5484600a612028565b611a5e9190612061565b925060ff831115611a76575060009695505050505050565b600101611942565b50826003148015611a995750611a95816001612061565b8451115b9695505050505050565b80356001600160a01b0381168114611aba57600080fd5b919050565b600060208284031215611ad157600080fd5b611ada82611aa3565b9392505050565b6000815180845260005b81811015611b0757602081850181015186830182015201611aeb565b506000602082860101526020601f19601f83011685010191505092915050565b61014081526000611b3c61014083018d611ae1565b6001600160a01b039b909b1660208301525097151560408901529515156060880152608087019490945260a086019290925260c085015260e084015261010083015261012090910152919050565b600081518084526020840193506020830160005b82811015611bc55781516001600160a01b0316865260209586019590910190600101611b9e565b5093949350505050565b602081526000611ada6020830184611b8a565b60c081526000611bf560c0830189611ae1565b6001600160a01b0397909716602083015250604081019490945291151560608401521515608083015260a090910152919050565b634e487b7160e01b600052604160045260246000fd5b60008060408385031215611c5257600080fd5b611c5b83611aa3565b9150602083013567ffffffffffffffff811115611c7757600080fd5b8301601f81018513611c8857600080fd5b803567ffffffffffffffff811115611ca257611ca2611c29565b604051601f8201601f19908116603f0116810167ffffffffffffffff81118282101715611cd157611cd1611c29565b604052818152828201602001871015611ce957600080fd5b816020840160208301376000602083830101528093505050509250929050565b600080600080600060a08688031215611d2157600080fd5b611d2a86611aa3565b97602087013597506040870135966060810135965060800135945092505050565b600060208284031215611d5d57600080fd5b5035919050565b604081526000611d776040830185611b8a565b828103602084015280845180835260208301915060208601925060005b81811015611db2578351835260209384019390920191600101611d94565b50909695505050505050565b60208082526028908201527f4f6e6c792073757065722061646d696e2063616e20706572666f726d20746869604082015267399030b1ba34b7b760c11b606082015260800190565b600181811c90821680611e1a57607f821691505b602082108103611e3a57634e487b7160e01b600052602260045260246000fd5b50919050565b602080825260139082015272139bd91948191bd95cc81b9bdd08195e1a5cdd606a1b604082015260600190565b634e487b7160e01b600052603260045260246000fd5b634e487b7160e01b600052601160045260246000fd5b600060018201611eab57611eab611e83565b5060010190565b601f821115611efc57806000526020600020601f840160051c81016020851015611ed95750805b601f840160051c820191505b81811015611ef95760008155600101611ee5565b50505b505050565b815167ffffffffffffffff811115611f1b57611f1b611c29565b611f2f81611f298454611e06565b84611eb2565b6020601f821160018114611f635760008315611f4b5750848201515b600019600385901b1c1916600184901b178455611ef9565b600084815260208120601f198516915b82811015611f935787850151825560209485019460019092019101611f73565b5084821015611fb15786840151600019600387901b60f8161c191681555b50505050600190811b01905550565b602081526000611ada6020830184611ae1565b60208082526022908201527f4f6e6c792061646d696e2063616e20706572666f726d2074686973206163746960408201526137b760f11b606082015260800190565b8181038181111561053057610530611e83565b808202811582820484141761053057610530611e83565b60008261205c57634e487b7160e01b600052601260045260246000fd5b500490565b8082018082111561053057610530611e83565b60ff828116828216039081111561053057610530611e8356fea26469706673582212207bc1a0792cd2a44e6b10024555498c79f13454f8cd308ca597cbbdfea774fa9264736f6c634300081c0033",
  "linkReferences": {},
  "deployedLinkReferences": {}
}