{
  "_format": "hh-sol-artifact-1",
  "contractName": "VPNSubscription",
  "sourceName": "contracts/VPNSubscription.sol",
  "abi": [
    {
      "inputs": [],
      "stateMutability": "nonpayable",
      "type": "constructor"
    },
    {
      "anonymous": false,
      "inputs": [
        {
          "indexed": true,
          "internalType": "address",
          "name": "owner",
          "type": "address"
        },
        {
          "indexed": true,
          "internalType": "address",
          "name": "approved",
          "type": "address"
        },
        {
          "indexed": true,
          "internalType": "uint256",
          "name": "tokenId",
          "type": "uint256"
        }
      ],
      "name": "Approval",
      "type": "event"
    },
    {
      "anonymous": false,
      "inputs": [
        {
          "indexed": true,
          "internalType": "address",
          "name": "owner",
          "type": "address"
        },
        {
          "indexed": true,
          "internalType": "address",
          "name": "operator",
          "type": "address"
        },
        {
          "indexed": false,
          "internalType": "bool",
          "name": "approved",
          "type": "bool"
        }
      ],
      "name": "ApprovalForAll",
      "type": "event"
    },
    {
      "anonymous": false,
      "inputs": [
        {
          "indexed": true,
          "internalType": "address",
          "name": "previousOwner",
          "type": "address"
        },
        {
          "indexed": true,
          "internalType": "address",
          "name": "newOwner",
          "type": "address"
        }
      ],
      "name": "OwnershipTransferred",
      "type": "event"
    },
    {
      "anonymous": false,
      "inputs": [
        {
          "indexed": true,
          "internalType": "address",
          "name": "from",
          "type": "address"
        },
        {
          "indexed": true,
          "internalType": "address",
          "name": "to",
          "type": "address"
        },
        {
          "indexed": true,
          "internalType": "uint256",
          "name": "tokenId",
          "type": "uint256"
        }
      ],
      "name": "Transfer",
      "type": "event"
    },
    {
      "inputs": [],
      "name": "SUBSCRIPTION_DURATION",
      "outputs": [
        {
          "internalType": "uint256",
          "name": "",
          "type": "uint256"
        }
      ],
      "stateMutability": "view",
      "type": "function"
    },
    {
      "inputs": [],
      "name": "SUBSCRIPTION_PRICE",
      "outputs": [
        {
          "internalType": "uint256",
          "name": "",
          "type": "uint256"
        }
      ],
      "stateMutability": "view",
      "type": "function"
    },
    {
      "inputs": [
        {
          "internalType": "address",
          "name": "to",
          "type": "address"
        },
        {
          "internalType": "uint256",
          "name": "tokenId",
          "type": "uint256"
        }
      ],
      "name": "approve",
      "outputs": [],
      "stateMutability": "nonpayable",
      "type": "function"
    },
    {
      "inputs": [
        {
          "internalType": "address",
          "name": "owner",
          "type": "address"
        }
      ],
      "name": "balanceOf",
      "outputs": [
        {
          "internalType": "uint256",
          "name": "",
          "type": "uint256"
        }
      ],
      "stateMutability": "view",
      "type": "function"
    },
    {
      "inputs": [
        {
          "internalType": "uint256",
          "name": "tokenId",
          "type": "uint256"
        }
      ],
      "name": "getApproved",
      "outputs": [
        {
          "internalType": "address",
          "name": "",
          "type": "address"
        }
      ],
      "stateMutability": "view",
      "type": "function"
    },
    {
      "inputs": [
        {
          "internalType": "uint256",
          "name": "tokenId",
          "type": "uint256"
        }
      ],
      "name": "getSubscriptionExpiry",
      "outputs": [
        {
          "internalType": "uint256",
          "name": "",
          "type": "uint256"
        }
      ],
      "stateMutability": "view",
      "type": "function"
    },
    {
      "inputs": [
        {
          "internalType": "address",
          "name": "owner",
          "type": "address"
        },
        {
          "internalType": "address",
          "name": "operator",
          "type": "address"
        }
      ],
      "name": "isApprovedForAll",
      "outputs": [
        {
          "internalType": "bool",
          "name": "",
          "type": "bool"
        }
      ],
      "stateMutability": "view",
      "type": "function"
    },
    {
      "inputs": [
        {
          "internalType": "uint256",
          "name": "tokenId",
          "type": "uint256"
        }
      ],
      "name": "isSubscriptionActive",
      "outputs": [
        {
          "internalType": "bool",
          "name": "",
          "type": "bool"
        }
      ],
      "stateMutability": "view",
      "type": "function"
    },
    {
      "inputs": [],
      "name": "name",
      "outputs": [
        {
          "internalType": "string",
          "name": "",
          "type": "string"
        }
      ],
      "stateMutability": "view",
      "type": "function"
    },
    {
      "inputs": [],
      "name": "owner",
      "outputs": [
        {
          "internalType": "address",
          "name": "",
          "type": "address"
        }
      ],
      "stateMutability": "view",
      "type": "function"
    },
    {
      "inputs": [
        {
          "internalType": "uint256",
          "name": "tokenId",
          "type": "uint256"
        }
      ],
      "name": "ownerOf",
      "outputs": [
        {
          "internalType": "address",
          "name": "",
          "type": "address"
        }
      ],
      "stateMutability": "view",
      "type": "function"
    },
    {
      "inputs": [
        {
          "internalType": "uint256",
          "name": "tokenId",
          "type": "uint256"
        }
      ],
      "name": "renewSubscription",
      "outputs": [],
      "stateMutability": "payable",
      "type": "function"
    },
    {
      "inputs": [],
      "name": "renounceOwnership",
      "outputs": [],
      "stateMutability": "nonpayable",
      "type": "function"
    },
    {
      "inputs": [
        {
          "internalType": "address",
          "name": "from",
          "type": "address"
        },
        {
          "internalType": "address",
          "name": "to",
          "type": "address"
        },
        {
          "internalType": "uint256",
          "name": "tokenId",
          "type": "uint256"
        }
      ],
      "name": "safeTransferFrom",
      "outputs": [],
      "stateMutability": "nonpayable",
      "type": "function"
    },
    {
      "inputs": [
        {
          "internalType": "address",
          "name": "from",
          "type": "address"
        },
        {
          "internalType": "address",
          "name": "to",
          "type": "address"
        },
        {
          "internalType": "uint256",
          "name": "tokenId",
          "type": "uint256"
        },
        {
          "internalType": "bytes",
          "name": "data",
          "type": "bytes"
        }
      ],
      "name": "safeTransferFrom",
      "outputs": [],
      "stateMutability": "nonpayable",
      "type": "function"
    },
    {
      "inputs": [
        {
          "internalType": "address",
          "name": "operator",
          "type": "address"
        },
        {
          "internalType": "bool",
          "name": "approved",
          "type": "bool"
        }
      ],
      "name": "setApprovalForAll",
      "outputs": [],
      "stateMutability": "nonpayable",
      "type": "function"
    },
    {
      "inputs": [],
      "name": "subscribe",
      "outputs": [
        {
          "internalType": "uint256",
          "name": "",
          "type": "uint256"
        }
      ],
      "stateMutability": "payable",
      "type": "function"
    },
    {
      "inputs": [
        {
          "internalType": "uint256",
          "name": "",
          "type": "uint256"
        }
      ],
      "name": "subscriptionExpiry",
      "outputs": [
        {
          "internalType": "uint256",
          "name": "",
          "type": "uint256"
        }
      ],
      "stateMutability": "view",
      "type": "function"
    },
    {
      "inputs": [
        {
          "internalType": "bytes4",
          "name": "interfaceId",
          "type": "bytes4"
        }
      ],
      "name": "supportsInterface",
      "outputs": [
        {
          "internalType": "bool",
          "name": "",
          "type": "bool"
        }
      ],
      "stateMutability": "view",
      "type": "function"
    },
    {
      "inputs": [],
      "name": "symbol",
      "outputs": [
        {
          "internalType": "string",
          "name": "",
          "type": "string"
        }
      ],
      "stateMutability": "view",
      "type": "function"
    },
    {
      "inputs": [
        {
          "internalType": "uint256",
          "name": "tokenId",
          "type": "uint256"
        }
      ],
      "name": "tokenURI",
      "outputs": [
        {
          "internalType": "string",
          "name": "",
          "type": "string"
        }
      ],
      "stateMutability": "view",
      "type": "function"
    },
    {
      "inputs": [
        {
          "internalType": "address",
          "name": "from",
          "type": "address"
        },
        {
          "internalType": "address",
          "name": "to",
          "type": "address"
        },
        {
          "internalType": "uint256",
          "name": "tokenId",
          "type": "uint256"
        }
      ],
      "name": "transferFrom",
      "outputs": [],
      "stateMutability": "nonpayable",
      "type": "function"
    },
    {
      "inputs": [
        {
          "internalType": "address",
          "name": "newOwner",
          "type": "address"
        }
      ],
      "name": "transferOwnership",
      "outputs": [],
      "stateMutability": "nonpayable",
      "type": "function"
    },
    {
      "inputs": [],
      "name": "withdrawFunds",
      "outputs": [],
      "stateMutability": "nonpayable",
      "type": "function"
    }
  ],
  "bytecode": "0x608060405234801561001057600080fd5b506040518060400160405280601081526020016f2b28271029bab139b1b934b83a34b7b760811b8152506040518060400160405280600481526020016356504e5360e01b81525081600090816100669190610186565b5060016100738282610186565b50505061008c61008761009160201b60201c565b610095565b610244565b3390565b600680546001600160a01b038381166001600160a01b0319831681179093556040519116919082907f8be0079c531659141344cd1fd0a4f28419497f9722a3daafe3b4186f6b6457e090600090a35050565b634e487b7160e01b600052604160045260246000fd5b600181811c9082168061011157607f821691505b60208210810361013157634e487b7160e01b600052602260045260246000fd5b50919050565b601f82111561018157806000526020600020601f840160051c8101602085101561015e5750805b601f840160051c820191505b8181101561017e576000815560010161016a565b50505b505050565b81516001600160401b0381111561019f5761019f6100e7565b6101b3816101ad84546100fd565b84610137565b6020601f8211600181146101e757600083156101cf5750848201515b600019600385901b1c1916600184901b17845561017e565b600084815260208120601f198516915b8281101561021757878501518255602094850194600190920191016101f7565b50848210156102355786840151600019600387901b60f8161c191681555b50505050600190811b01905550565b61190d806102536000396000f3fe60806040526004361061014b5760003560e01c80638da5cb5b116100b6578063b88d4fde1161006f578063b88d4fde1461039c578063c87b56dd146103bc578063d71bb37b146103dc578063e985e9c5146103ef578063f2fde38b1461040f578063f6847c821461042f57600080fd5b80638da5cb5b146102f45780638f449a051461031257806395d89b411461031a578063a0e26db91461032f578063a0f3b8761461034f578063a22cb4651461037c57600080fd5b806342842e0e1161010857806342842e0e1461023657806357e2c0f5146102565780636352211e146102765780636a890cb21461029657806370a08231146102bf578063715018a6146102df57600080fd5b806301ffc9a71461015057806306fdde0314610185578063081812fc146101a7578063095ea7b3146101df57806323b872dd1461020157806324600fc314610221575b600080fd5b34801561015c57600080fd5b5061017061016b366004611438565b610446565b60405190151581526020015b60405180910390f35b34801561019157600080fd5b5061019a610498565b60405161017c91906114a5565b3480156101b357600080fd5b506101c76101c23660046114b8565b61052a565b6040516001600160a01b03909116815260200161017c565b3480156101eb57600080fd5b506101ff6101fa3660046114ed565b610551565b005b34801561020d57600080fd5b506101ff61021c366004611517565b61066b565b34801561022d57600080fd5b506101ff61069c565b34801561024257600080fd5b506101ff610251366004611517565b61074d565b34801561026257600080fd5b506101706102713660046114b8565b610768565b34801561028257600080fd5b506101c76102913660046114b8565b6107a5565b3480156102a257600080fd5b506102b166038d7ea4c6800081565b60405190815260200161017c565b3480156102cb57600080fd5b506102b16102da366004611554565b610805565b3480156102eb57600080fd5b506101ff61088b565b34801561030057600080fd5b506006546001600160a01b03166101c7565b6102b161089f565b34801561032657600080fd5b5061019a610935565b34801561033b57600080fd5b506102b161034a3660046114b8565b610944565b34801561035b57600080fd5b506102b161036a3660046114b8565b60086020526000908152604090205481565b34801561038857600080fd5b506101ff61039736600461156f565b61097e565b3480156103a857600080fd5b506101ff6103b73660046115c1565b61098d565b3480156103c857600080fd5b5061019a6103d73660046114b8565b6109c5565b6101ff6103ea3660046114b8565b610a39565b3480156103fb57600080fd5b5061017061040a3660046116a5565b610b43565b34801561041b57600080fd5b506101ff61042a366004611554565b610b71565b34801561043b57600080fd5b506102b162278d0081565b60006001600160e01b031982166380ac58cd60e01b148061047757506001600160e01b03198216635b5e139f60e01b145b8061049257506301ffc9a760e01b6001600160e01b03198316145b92915050565b6060600080546104a7906116d8565b80601f01602080910402602001604051908101604052809291908181526020018280546104d3906116d8565b80156105205780601f106104f557610100808354040283529160200191610520565b820191906000526020600020905b81548152906001019060200180831161050357829003601f168201915b5050505050905090565b600061053582610be7565b506000908152600460205260409020546001600160a01b031690565b600061055c826107a5565b9050806001600160a01b0316836001600160a01b0316036105ce5760405162461bcd60e51b815260206004820152602160248201527f4552433732313a20617070726f76616c20746f2063757272656e74206f776e656044820152603960f91b60648201526084015b60405180910390fd5b336001600160a01b03821614806105ea57506105ea8133610b43565b61065c5760405162461bcd60e51b815260206004820152603d60248201527f4552433732313a20617070726f76652063616c6c6572206973206e6f7420746f60448201527f6b656e206f776e6572206f7220617070726f76656420666f7220616c6c00000060648201526084016105c5565b6106668383610c37565b505050565b6106753382610ca5565b6106915760405162461bcd60e51b81526004016105c590611712565b610666838383610d04565b6106a4610e68565b60006106b86006546001600160a01b031690565b6001600160a01b03164760405160006040518083038185875af1925050503d8060008114610702576040519150601f19603f3d011682016040523d82523d6000602084013e610707565b606091505b505090508061074a5760405162461bcd60e51b815260206004820152600f60248201526e151c985b9cd9995c8819985a5b1959608a1b60448201526064016105c5565b50565b6106668383836040518060200160405280600081525061098d565b600061077382610ec2565b61078f5760405162461bcd60e51b81526004016105c59061175f565b5060009081526008602052604090205442111590565b6000818152600260205260408120546001600160a01b0316806104925760405162461bcd60e51b8152602060048201526018602482015277115490cdcc8c4e881a5b9d985b1a59081d1bdad95b88125160421b60448201526064016105c5565b60006001600160a01b03821661086f5760405162461bcd60e51b815260206004820152602960248201527f4552433732313a2061646472657373207a65726f206973206e6f7420612076616044820152683634b21037bbb732b960b91b60648201526084016105c5565b506001600160a01b031660009081526003602052604090205490565b610893610e68565b61089d6000610edf565b565b600066038d7ea4c680003410156108ef5760405162461bcd60e51b8152602060048201526014602482015273125b9cdd59999a58da595b9d081c185e5b595b9d60621b60448201526064016105c5565b6108fd600780546001019055565b600061090860075490565b90506109143382610f31565b61092162278d0042611796565b600082815260086020526040902055919050565b6060600180546104a7906116d8565b600061094f82610ec2565b61096b5760405162461bcd60e51b81526004016105c59061175f565b5060009081526008602052604090205490565b61098933838361109e565b5050565b6109973383610ca5565b6109b35760405162461bcd60e51b81526004016105c590611712565b6109bf8484848461116c565b50505050565b60606109d082610be7565b60006109e760408051602081019091526000815290565b90506000815111610a075760405180602001604052806000815250610a32565b80610a118461119f565b604051602001610a229291906117b7565b6040516020818303038152906040525b9392505050565b610a4281610ec2565b610a5e5760405162461bcd60e51b81526004016105c59061175f565b33610a68826107a5565b6001600160a01b031614610ab75760405162461bcd60e51b81526020600482015260166024820152752737ba1039bab139b1b934b83a34b7b71037bbb732b960511b60448201526064016105c5565b66038d7ea4c68000341015610b055760405162461bcd60e51b8152602060048201526014602482015273125b9cdd59999a58da595b9d081c185e5b595b9d60621b60448201526064016105c5565b60008181526008602052604081205462278d0090610b239042611232565b610b2d9190611796565b6000928352600860205260409092209190915550565b6001600160a01b03918216600090815260056020908152604080832093909416825291909152205460ff1690565b610b79610e68565b6001600160a01b038116610bde5760405162461bcd60e51b815260206004820152602660248201527f4f776e61626c653a206e6577206f776e657220697320746865207a65726f206160448201526564647265737360d01b60648201526084016105c5565b61074a81610edf565b610bf081610ec2565b61074a5760405162461bcd60e51b8152602060048201526018602482015277115490cdcc8c4e881a5b9d985b1a59081d1bdad95b88125160421b60448201526064016105c5565b600081815260046020526040902080546001600160a01b0319166001600160a01b0384169081179091558190610c6c826107a5565b6001600160a01b03167f8c5be1e5ebec7d5bd14f71427d1e84f3dd0314c0f7b2291e5b200ac8c7c3b92560405160405180910390a45050565b600080610cb1836107a5565b9050806001600160a01b0316846001600160a01b03161480610cd85750610cd88185610b43565b80610cfc5750836001600160a01b0316610cf18461052a565b6001600160a01b0316145b949350505050565b826001600160a01b0316610d17826107a5565b6001600160a01b031614610d3d5760405162461bcd60e51b81526004016105c5906117e6565b6001600160a01b038216610d9f5760405162461bcd60e51b8152602060048201526024808201527f4552433732313a207472616e7366657220746f20746865207a65726f206164646044820152637265737360e01b60648201526084016105c5565b826001600160a01b0316610db2826107a5565b6001600160a01b031614610dd85760405162461bcd60e51b81526004016105c5906117e6565b600081815260046020908152604080832080546001600160a01b03199081169091556001600160a01b0387811680865260038552838620805460001901905590871680865283862080546001019055868652600290945282852080549092168417909155905184937fddf252ad1be2c89b69c2b068fc378daa952ba7f163c4a11628f55a4df523b3ef91a4505050565b6006546001600160a01b0316331461089d5760405162461bcd60e51b815260206004820181905260248201527f4f776e61626c653a2063616c6c6572206973206e6f7420746865206f776e657260448201526064016105c5565b6000908152600260205260409020546001600160a01b0316151590565b600680546001600160a01b038381166001600160a01b0319831681179093556040519116919082907f8be0079c531659141344cd1fd0a4f28419497f9722a3daafe3b4186f6b6457e090600090a35050565b6001600160a01b038216610f875760405162461bcd60e51b815260206004820181905260248201527f4552433732313a206d696e7420746f20746865207a65726f206164647265737360448201526064016105c5565b610f9081610ec2565b15610fdd5760405162461bcd60e51b815260206004820152601c60248201527f4552433732313a20746f6b656e20616c7265616479206d696e7465640000000060448201526064016105c5565b610fe681610ec2565b156110335760405162461bcd60e51b815260206004820152601c60248201527f4552433732313a20746f6b656e20616c7265616479206d696e7465640000000060448201526064016105c5565b6001600160a01b038216600081815260036020908152604080832080546001019055848352600290915280822080546001600160a01b0319168417905551839291907fddf252ad1be2c89b69c2b068fc378daa952ba7f163c4a11628f55a4df523b3ef908290a45050565b816001600160a01b0316836001600160a01b0316036110ff5760405162461bcd60e51b815260206004820152601960248201527f4552433732313a20617070726f766520746f2063616c6c65720000000000000060448201526064016105c5565b6001600160a01b03838116600081815260056020908152604080832094871680845294825291829020805460ff191686151590811790915591519182527f17307eab39ab6107e8899845ad3d59bd9653f200f220920489ca2b5937696c31910160405180910390a3505050565b611177848484610d04565b61118384848484611249565b6109bf5760405162461bcd60e51b81526004016105c59061182b565b606060006111ac8361134a565b600101905060008167ffffffffffffffff8111156111cc576111cc6115ab565b6040519080825280601f01601f1916602001820160405280156111f6576020820181803683370190505b5090508181016020015b600019016f181899199a1a9b1b9c1cb0b131b232b360811b600a86061a8153600a850494508461120057509392505050565b6000818310156112425781610a32565b5090919050565b60006001600160a01b0384163b1561133f57604051630a85bd0160e11b81526001600160a01b0385169063150b7a029061128d90339089908890889060040161187d565b6020604051808303816000875af19250505080156112c8575060408051601f3d908101601f191682019092526112c5918101906118ba565b60015b611325573d8080156112f6576040519150601f19603f3d011682016040523d82523d6000602084013e6112fb565b606091505b50805160000361131d5760405162461bcd60e51b81526004016105c59061182b565b805181602001fd5b6001600160e01b031916630a85bd0160e11b149050610cfc565b506001949350505050565b60008072184f03e93ff9f4daa797ed6e38ed64bf6a1f0160401b83106113895772184f03e93ff9f4daa797ed6e38ed64bf6a1f0160401b830492506040015b6d04ee2d6d415b85acef810000000083106113b5576d04ee2d6d415b85acef8100000000830492506020015b662386f26fc1000083106113d357662386f26fc10000830492506010015b6305f5e10083106113eb576305f5e100830492506008015b61271083106113ff57612710830492506004015b60648310611411576064830492506002015b600a83106104925760010192915050565b6001600160e01b03198116811461074a57600080fd5b60006020828403121561144a57600080fd5b8135610a3281611422565b60005b83811015611470578181015183820152602001611458565b50506000910152565b60008151808452611491816020860160208601611455565b601f01601f19169290920160200192915050565b602081526000610a326020830184611479565b6000602082840312156114ca57600080fd5b5035919050565b80356001600160a01b03811681146114e857600080fd5b919050565b6000806040838503121561150057600080fd5b611509836114d1565b946020939093013593505050565b60008060006060848603121561152c57600080fd5b611535846114d1565b9250611543602085016114d1565b929592945050506040919091013590565b60006020828403121561156657600080fd5b610a32826114d1565b6000806040838503121561158257600080fd5b61158b836114d1565b9150602083013580151581146115a057600080fd5b809150509250929050565b634e487b7160e01b600052604160045260246000fd5b600080600080608085870312156115d757600080fd5b6115e0856114d1565b93506115ee602086016114d1565b925060408501359150606085013567ffffffffffffffff81111561161157600080fd5b8501601f8101871361162257600080fd5b803567ffffffffffffffff81111561163c5761163c6115ab565b604051601f8201601f19908116603f0116810167ffffffffffffffff8111828210171561166b5761166b6115ab565b60405281815282820160200189101561168357600080fd5b8160208401602083013760006020838301015280935050505092959194509250565b600080604083850312156116b857600080fd5b6116c1836114d1565b91506116cf602084016114d1565b90509250929050565b600181811c908216806116ec57607f821691505b60208210810361170c57634e487b7160e01b600052602260045260246000fd5b50919050565b6020808252602d908201527f4552433732313a2063616c6c6572206973206e6f7420746f6b656e206f776e6560408201526c1c881bdc88185c1c1c9bdd9959609a1b606082015260800190565b6020808252601b908201527f537562736372697074696f6e20646f6573206e6f742065786973740000000000604082015260600190565b8082018082111561049257634e487b7160e01b600052601160045260246000fd5b600083516117c9818460208801611455565b8351908301906117dd818360208801611455565b01949350505050565b60208082526025908201527f4552433732313a207472616e736665722066726f6d20696e636f72726563742060408201526437bbb732b960d91b606082015260800190565b60208082526032908201527f4552433732313a207472616e7366657220746f206e6f6e20455243373231526560408201527131b2b4bb32b91034b6b83632b6b2b73a32b960711b606082015260800190565b6001600160a01b03858116825284166020820152604081018390526080606082018190526000906118b090830184611479565b9695505050505050565b6000602082840312156118cc57600080fd5b8151610a328161142256fea264697066735822122036d8fe006ec9f0eafa2c649e17e2b7ea22555f56d12d99fe6eefa9d548dfcdce64736f6c634300081c0033",
  "linkReferences": {},
  "deployedLinkReferences": {}
}